{
  "contractName": "BridgeRGEToken",
  "abi": [
    {
      "constant": true,
      "inputs": [],
      "name": "name",
      "outputs": [
        {
          "name": "",
          "type": "string"
        }
      ],
      "payable": false,
      "stateMutability": "view",
      "type": "function"
    },
    {
      "constant": false,
      "inputs": [
        {
          "name": "_spender",
          "type": "address"
        },
        {
          "name": "_value",
          "type": "uint256"
        }
      ],
      "name": "approve",
      "outputs": [
        {
          "name": "success",
          "type": "bool"
        }
      ],
      "payable": false,
      "stateMutability": "nonpayable",
      "type": "function"
    },
    {
      "constant": true,
      "inputs": [],
      "name": "totalSupply",
      "outputs": [
        {
          "name": "",
          "type": "uint256"
        }
      ],
      "payable": false,
      "stateMutability": "view",
      "type": "function"
    },
    {
      "constant": false,
      "inputs": [
        {
          "name": "_from",
          "type": "address"
        },
        {
          "name": "_to",
          "type": "address"
        },
        {
          "name": "_value",
          "type": "uint256"
        }
      ],
      "name": "transferFrom",
      "outputs": [
        {
          "name": "success",
          "type": "bool"
        }
      ],
      "payable": false,
      "stateMutability": "nonpayable",
      "type": "function"
    },
    {
      "constant": true,
      "inputs": [
        {
          "name": "",
          "type": "address"
        }
      ],
      "name": "balances",
      "outputs": [
        {
          "name": "",
          "type": "uint256"
        }
      ],
      "payable": false,
      "stateMutability": "view",
      "type": "function"
    },
    {
      "constant": true,
      "inputs": [],
      "name": "decimals",
      "outputs": [
        {
          "name": "",
          "type": "uint8"
        }
      ],
      "payable": false,
      "stateMutability": "view",
      "type": "function"
    },
    {
      "constant": true,
      "inputs": [],
      "name": "validator",
      "outputs": [
        {
          "name": "",
          "type": "address"
        }
      ],
      "payable": false,
      "stateMutability": "view",
      "type": "function"
    },
    {
      "constant": true,
      "inputs": [
        {
          "name": "",
          "type": "address"
        },
        {
          "name": "",
          "type": "uint256"
        }
      ],
      "name": "claimed",
      "outputs": [
        {
          "name": "",
          "type": "bool"
        }
      ],
      "payable": false,
      "stateMutability": "view",
      "type": "function"
    },
    {
      "constant": true,
      "inputs": [],
      "name": "version",
      "outputs": [
        {
          "name": "",
          "type": "string"
        }
      ],
      "payable": false,
      "stateMutability": "view",
      "type": "function"
    },
    {
      "constant": true,
      "inputs": [
        {
          "name": "",
          "type": "address"
        },
        {
          "name": "",
          "type": "address"
        }
      ],
      "name": "allowed",
      "outputs": [
        {
          "name": "",
          "type": "uint256"
        }
      ],
      "payable": false,
      "stateMutability": "view",
      "type": "function"
    },
    {
      "constant": true,
      "inputs": [],
      "name": "network",
      "outputs": [
        {
          "name": "",
          "type": "uint256"
        }
      ],
      "payable": false,
      "stateMutability": "view",
      "type": "function"
    },
    {
      "constant": true,
      "inputs": [
        {
          "name": "_owner",
          "type": "address"
        }
      ],
      "name": "balanceOf",
      "outputs": [
        {
          "name": "balance",
          "type": "uint256"
        }
      ],
      "payable": false,
      "stateMutability": "view",
      "type": "function"
    },
    {
      "constant": true,
      "inputs": [],
      "name": "bridgeIsOpened",
      "outputs": [
        {
          "name": "",
          "type": "bool"
        }
      ],
      "payable": false,
      "stateMutability": "view",
      "type": "function"
    },
    {
      "constant": true,
      "inputs": [],
      "name": "homeBridge",
      "outputs": [
        {
          "name": "",
          "type": "address"
        }
      ],
      "payable": false,
      "stateMutability": "view",
      "type": "function"
    },
    {
      "constant": true,
      "inputs": [
        {
          "name": "",
          "type": "address"
        },
        {
          "name": "",
          "type": "uint256"
        }
      ],
      "name": "surrendered",
      "outputs": [
        {
          "name": "",
          "type": "bool"
        }
      ],
      "payable": false,
      "stateMutability": "view",
      "type": "function"
    },
    {
      "constant": true,
      "inputs": [],
      "name": "reserveY1",
      "outputs": [
        {
          "name": "",
          "type": "uint256"
        }
      ],
      "payable": false,
      "stateMutability": "view",
      "type": "function"
    },
    {
      "constant": true,
      "inputs": [],
      "name": "symbol",
      "outputs": [
        {
          "name": "",
          "type": "string"
        }
      ],
      "payable": false,
      "stateMutability": "view",
      "type": "function"
    },
    {
      "constant": true,
      "inputs": [],
      "name": "homeValidator",
      "outputs": [
        {
          "name": "",
          "type": "address"
        }
      ],
      "payable": false,
      "stateMutability": "view",
      "type": "function"
    },
    {
      "constant": false,
      "inputs": [
        {
          "name": "_to",
          "type": "address"
        },
        {
          "name": "_value",
          "type": "uint256"
        }
      ],
      "name": "transfer",
      "outputs": [
        {
          "name": "success",
          "type": "bool"
        }
      ],
      "payable": false,
      "stateMutability": "nonpayable",
      "type": "function"
    },
    {
      "constant": true,
      "inputs": [],
      "name": "factory",
      "outputs": [
        {
          "name": "",
          "type": "address"
        }
      ],
      "payable": false,
      "stateMutability": "view",
      "type": "function"
    },
    {
      "constant": true,
      "inputs": [
        {
          "name": "_owner",
          "type": "address"
        },
        {
          "name": "_spender",
          "type": "address"
        }
      ],
      "name": "allowance",
      "outputs": [
        {
          "name": "remaining",
          "type": "uint256"
        }
      ],
      "payable": false,
      "stateMutability": "view",
      "type": "function"
    },
    {
      "constant": true,
      "inputs": [],
      "name": "reserveY2",
      "outputs": [
        {
          "name": "",
          "type": "uint256"
        }
      ],
      "payable": false,
      "stateMutability": "view",
      "type": "function"
    },
    {
      "inputs": [
        {
          "name": "_network",
          "type": "uint256"
        },
        {
          "name": "_validator",
          "type": "address"
        },
        {
          "name": "_homeBridge",
          "type": "address"
        },
        {
          "name": "_homeValidator",
          "type": "address"
        },
        {
          "name": "_name",
          "type": "string"
        },
        {
          "name": "_symbol",
          "type": "string"
        }
      ],
      "payable": false,
      "stateMutability": "nonpayable",
      "type": "constructor"
    },
    {
      "anonymous": false,
      "inputs": [
        {
          "indexed": true,
          "name": "account",
          "type": "address"
        },
        {
          "indexed": true,
          "name": "_network",
          "type": "uint256"
        },
        {
          "indexed": true,
          "name": "depositBlock",
          "type": "uint256"
        },
        {
          "indexed": false,
          "name": "value",
          "type": "uint256"
        }
      ],
      "name": "RGEClaim",
      "type": "event"
    },
    {
      "anonymous": false,
      "inputs": [
        {
          "indexed": true,
          "name": "account",
          "type": "address"
        },
        {
          "indexed": true,
          "name": "_network",
          "type": "uint256"
        },
        {
          "indexed": true,
          "name": "depositBlock",
          "type": "uint256"
        },
        {
          "indexed": false,
          "name": "value",
          "type": "uint256"
        }
      ],
      "name": "Surrender",
      "type": "event"
    },
    {
      "anonymous": false,
      "inputs": [
        {
          "indexed": true,
          "name": "account",
          "type": "address"
        },
        {
          "indexed": true,
          "name": "_network",
          "type": "uint256"
        },
        {
          "indexed": true,
          "name": "depositBlock",
          "type": "uint256"
        },
        {
          "indexed": false,
          "name": "v",
          "type": "uint8"
        },
        {
          "indexed": false,
          "name": "r",
          "type": "bytes32"
        },
        {
          "indexed": false,
          "name": "s",
          "type": "bytes32"
        }
      ],
      "name": "Repudiate",
      "type": "event"
    },
    {
      "anonymous": false,
      "inputs": [
        {
          "indexed": true,
          "name": "burner",
          "type": "address"
        },
        {
          "indexed": false,
          "name": "value",
          "type": "uint256"
        }
      ],
      "name": "Burn",
      "type": "event"
    },
    {
      "anonymous": false,
      "inputs": [
        {
          "indexed": true,
          "name": "_from",
          "type": "address"
        },
        {
          "indexed": true,
          "name": "_to",
          "type": "address"
        },
        {
          "indexed": false,
          "name": "_value",
          "type": "uint256"
        }
      ],
      "name": "Transfer",
      "type": "event"
    },
    {
      "anonymous": false,
      "inputs": [
        {
          "indexed": true,
          "name": "_owner",
          "type": "address"
        },
        {
          "indexed": true,
          "name": "_spender",
          "type": "address"
        },
        {
          "indexed": false,
          "name": "_value",
          "type": "uint256"
        }
      ],
      "name": "Approval",
      "type": "event"
    },
    {
      "constant": false,
      "inputs": [
        {
          "name": "_account",
          "type": "address"
        }
      ],
      "name": "newOwner",
      "outputs": [],
      "payable": false,
      "stateMutability": "nonpayable",
      "type": "function"
    },
    {
      "constant": false,
      "inputs": [
        {
          "name": "_validator",
          "type": "address"
        },
        {
          "name": "_homeValidator",
          "type": "address"
        }
      ],
      "name": "setValidators",
      "outputs": [],
      "payable": false,
      "stateMutability": "nonpayable",
      "type": "function"
    },
    {
      "constant": false,
      "inputs": [
        {
          "name": "_flag",
          "type": "bool"
        }
      ],
      "name": "toggleBridge",
      "outputs": [],
      "payable": false,
      "stateMutability": "nonpayable",
      "type": "function"
    },
    {
      "constant": false,
      "inputs": [
        {
          "name": "_sealHash",
          "type": "bytes32"
        },
        {
          "name": "_value",
          "type": "uint256"
        },
        {
          "name": "_depositBlock",
          "type": "uint256"
        },
        {
          "name": "_lockBlock",
          "type": "uint256"
        },
        {
          "name": "vLock",
          "type": "uint8"
        },
        {
          "name": "rLock",
          "type": "bytes32"
        },
        {
          "name": "sLock",
          "type": "bytes32"
        },
        {
          "name": "vAuth",
          "type": "uint8"
        },
        {
          "name": "rAuth",
          "type": "bytes32"
        },
        {
          "name": "sAuth",
          "type": "bytes32"
        }
      ],
      "name": "claim",
      "outputs": [
        {
          "name": "success",
          "type": "bool"
        }
      ],
      "payable": false,
      "stateMutability": "nonpayable",
      "type": "function"
    },
    {
      "constant": false,
      "inputs": [
        {
          "name": "_value",
          "type": "uint256"
        },
        {
          "name": "_depositBlock",
          "type": "uint256"
        },
        {
          "name": "vLock",
          "type": "uint8"
        },
        {
          "name": "rLock",
          "type": "bytes32"
        },
        {
          "name": "sLock",
          "type": "bytes32"
        }
      ],
      "name": "surrender",
      "outputs": [
        {
          "name": "success",
          "type": "bool"
        }
      ],
      "payable": false,
      "stateMutability": "nonpayable",
      "type": "function"
    },
    {
      "constant": false,
      "inputs": [
        {
          "name": "_hash",
          "type": "bytes32"
        },
        {
          "name": "_account",
          "type": "address"
        },
        {
          "name": "_depositBlock",
          "type": "uint256"
        },
        {
          "name": "v",
          "type": "uint8"
        },
        {
          "name": "r",
          "type": "bytes32"
        },
        {
          "name": "s",
          "type": "bytes32"
        }
      ],
      "name": "repudiate",
      "outputs": [],
      "payable": false,
      "stateMutability": "nonpayable",
      "type": "function"
    },
    {
      "constant": false,
      "inputs": [
        {
          "name": "_factory",
          "type": "address"
        }
      ],
      "name": "setFactory",
      "outputs": [],
      "payable": false,
      "stateMutability": "nonpayable",
      "type": "function"
    },
    {
      "constant": false,
      "inputs": [
        {
          "name": "_issuance",
          "type": "uint32"
        },
        {
          "name": "_value",
          "type": "uint256"
        }
      ],
      "name": "newCampaign",
      "outputs": [],
      "payable": false,
      "stateMutability": "nonpayable",
      "type": "function"
    },
    {
      "constant": false,
      "inputs": [
        {
          "name": "_value",
          "type": "uint256"
        }
      ],
      "name": "burn",
      "outputs": [
        {
          "name": "success",
          "type": "bool"
        }
      ],
      "payable": false,
      "stateMutability": "nonpayable",
      "type": "function"
    }
  ],
  "bytecode": "0x608060405260068060006101000a81548160ff021916908360ff1602179055506040805190810160405280600881526020017f76312e302d302e34000000000000000000000000000000000000000000000000815250600790805190602001906200006c92919062000323565b50600660009054906101000a900460ff1660ff16600a0a633b9aca000260085560006009556000600a556001600e60146101000a81548160ff021916908315150217905550348015620000be57600080fd5b506040516200337e3803806200337e83398101806040528101908080519060200190929190805190602001909291908051906020019092919080519060200190929190805182019291906020018051820192919050505060085482600660009054906101000a900460ff168383600160003373ffffffffffffffffffffffffffffffffffffffff1673ffffffffffffffffffffffffffffffffffffffff168152602001908152602001600020819055508360008190555082600390805190602001906200018d92919062000323565b5081600460006101000a81548160ff021916908360ff1602179055508060059080519060200190620001c192919062000323565b505050505033600660016101000a81548173ffffffffffffffffffffffffffffffffffffffff021916908373ffffffffffffffffffffffffffffffffffffffff16021790555085600b8190555084600c60006101000a81548173ffffffffffffffffffffffffffffffffffffffff021916908373ffffffffffffffffffffffffffffffffffffffff16021790555083600d60006101000a81548173ffffffffffffffffffffffffffffffffffffffff021916908373ffffffffffffffffffffffffffffffffffffffff16021790555082600e60006101000a81548173ffffffffffffffffffffffffffffffffffffffff021916908373ffffffffffffffffffffffffffffffffffffffff160217905550600854600160008073ffffffffffffffffffffffffffffffffffffffff1673ffffffffffffffffffffffffffffffffffffffff16815260200190815260200160002081905550505050505050620003d2565b828054600181600116156101000203166002900490600052602060002090601f016020900481019282601f106200036657805160ff191683800117855562000397565b8280016001018555821562000397579182015b828111156200039657825182559160200191906001019062000379565b5b509050620003a69190620003aa565b5090565b620003cf91905b80821115620003cb576000816000905550600101620003b1565b5090565b90565b612f9c80620003e26000396000f30060806040526004361061018b576000357c0100000000000000000000000000000000000000000000000000000000900463ffffffff16806306fdde0314610190578063095ea7b31461022057806318160ddd1461028557806323b872dd146102b057806327e235e314610335578063313ce5671461038c5780633a5381b5146103bd5780634019e63a1461041457806342966c681461048c5780634dd6c8de146104d157806354fd4d50146105365780635bb47808146105c65780635c658165146106095780636739afca1461068057806370a08231146106ab57806385952454146107025780638e80c4f314610745578063902fe70e14610774578063908d6cf4146107cb57806392afac6d1461083057806395d89b411461085b57806396a1f64e146108eb578063a0c1c95614610942578063a9059cbb146109c6578063b16e356814610a2b578063c45a015514610ae4578063dc11639114610b3b578063dd62ed3e14610b9e578063e81d6c6f14610c15578063eb18380014610c40578063fb850fab14610c6f575b600080fd5b34801561019c57600080fd5b506101a5610cac565b6040518080602001828103825283818151815260200191508051906020019080838360005b838110156101e55780820151818401526020810190506101ca565b50505050905090810190601f1680156102125780820380516001836020036101000a031916815260200191505b509250505060405180910390f35b34801561022c57600080fd5b5061026b600480360381019080803573ffffffffffffffffffffffffffffffffffffffff16906020019092919080359060200190929190505050610d4a565b604051808215151515815260200191505060405180910390f35b34801561029157600080fd5b5061029a610e3c565b6040518082815260200191505060405180910390f35b3480156102bc57600080fd5b5061031b600480360381019080803573ffffffffffffffffffffffffffffffffffffffff169060200190929190803573ffffffffffffffffffffffffffffffffffffffff16906020019092919080359060200190929190505050610e42565b604051808215151515815260200191505060405180910390f35b34801561034157600080fd5b50610376600480360381019080803573ffffffffffffffffffffffffffffffffffffffff1690602001909291905050506110dc565b6040518082815260200191505060405180910390f35b34801561039857600080fd5b506103a16110f4565b604051808260ff1660ff16815260200191505060405180910390f35b3480156103c957600080fd5b506103d2611107565b604051808273ffffffffffffffffffffffffffffffffffffffff1673ffffffffffffffffffffffffffffffffffffffff16815260200191505060405180910390f35b34801561042057600080fd5b506104726004803603810190808035906020019092919080359060200190929190803560ff1690602001909291908035600019169060200190929190803560001916906020019092919050505061112d565b604051808215151515815260200191505060405180910390f35b34801561049857600080fd5b506104b760048036038101908080359060200190929190505050611699565b604051808215151515815260200191505060405180910390f35b3480156104dd57600080fd5b5061051c600480360381019080803573ffffffffffffffffffffffffffffffffffffffff16906020019092919080359060200190929190505050611811565b604051808215151515815260200191505060405180910390f35b34801561054257600080fd5b5061054b611840565b6040518080602001828103825283818151815260200191508051906020019080838360005b8381101561058b578082015181840152602081019050610570565b50505050905090810190601f1680156105b85780820380516001836020036101000a031916815260200191505b509250505060405180910390f35b3480156105d257600080fd5b50610607600480360381019080803573ffffffffffffffffffffffffffffffffffffffff1690602001909291905050506118de565b005b34801561061557600080fd5b5061066a600480360381019080803573ffffffffffffffffffffffffffffffffffffffff169060200190929190803573ffffffffffffffffffffffffffffffffffffffff169060200190929190505050611980565b6040518082815260200191505060405180910390f35b34801561068c57600080fd5b506106956119a5565b6040518082815260200191505060405180910390f35b3480156106b757600080fd5b506106ec600480360381019080803573ffffffffffffffffffffffffffffffffffffffff1690602001909291905050506119ab565b6040518082815260200191505060405180910390f35b34801561070e57600080fd5b50610743600480360381019080803573ffffffffffffffffffffffffffffffffffffffff1690602001909291905050506119f4565b005b34801561075157600080fd5b5061075a611a96565b604051808215151515815260200191505060405180910390f35b34801561078057600080fd5b50610789611aa9565b604051808273ffffffffffffffffffffffffffffffffffffffff1673ffffffffffffffffffffffffffffffffffffffff16815260200191505060405180910390f35b3480156107d757600080fd5b50610816600480360381019080803573ffffffffffffffffffffffffffffffffffffffff16906020019092919080359060200190929190505050611acf565b604051808215151515815260200191505060405180910390f35b34801561083c57600080fd5b50610845611afe565b6040518082815260200191505060405180910390f35b34801561086757600080fd5b50610870611b04565b6040518080602001828103825283818151815260200191508051906020019080838360005b838110156108b0578082015181840152602081019050610895565b50505050905090810190601f1680156108dd5780820380516001836020036101000a031916815260200191505b509250505060405180910390f35b3480156108f757600080fd5b50610900611ba2565b604051808273ffffffffffffffffffffffffffffffffffffffff1673ffffffffffffffffffffffffffffffffffffffff16815260200191505060405180910390f35b34801561094e57600080fd5b506109c46004803603810190808035600019169060200190929190803573ffffffffffffffffffffffffffffffffffffffff16906020019092919080359060200190929190803560ff16906020019092919080356000191690602001909291908035600019169060200190929190505050611bc8565b005b3480156109d257600080fd5b50610a11600480360381019080803573ffffffffffffffffffffffffffffffffffffffff16906020019092919080359060200190929190505050611f55565b604051808215151515815260200191505060405180910390f35b348015610a3757600080fd5b50610aca6004803603810190808035600019169060200190929190803590602001909291908035906020019092919080359060200190929190803560ff16906020019092919080356000191690602001909291908035600019169060200190929190803560ff169060200190929190803560001916906020019092919080356000191690602001909291905050506120ae565b604051808215151515815260200191505060405180910390f35b348015610af057600080fd5b50610af96127ac565b604051808273ffffffffffffffffffffffffffffffffffffffff1673ffffffffffffffffffffffffffffffffffffffff16815260200191505060405180910390f35b348015610b4757600080fd5b50610b9c600480360381019080803573ffffffffffffffffffffffffffffffffffffffff169060200190929190803573ffffffffffffffffffffffffffffffffffffffff1690602001909291905050506127d2565b005b348015610baa57600080fd5b50610bff600480360381019080803573ffffffffffffffffffffffffffffffffffffffff169060200190929190803573ffffffffffffffffffffffffffffffffffffffff1690602001909291905050506128b6565b6040518082815260200191505060405180910390f35b348015610c2157600080fd5b50610c2a61293d565b6040518082815260200191505060405180910390f35b348015610c4c57600080fd5b50610c6d600480360381019080803515159060200190929190505050612943565b005b348015610c7b57600080fd5b50610caa600480360381019080803563ffffffff169060200190929190803590602001909291905050506129be565b005b60038054600181600116156101000203166002900480601f016020809104026020016040519081016040528092919081815260200182805460018160011615610100020316600290048015610d425780601f10610d1757610100808354040283529160200191610d42565b820191906000526020600020905b815481529060010190602001808311610d2557829003601f168201915b505050505081565b600081600260003373ffffffffffffffffffffffffffffffffffffffff1673ffffffffffffffffffffffffffffffffffffffff16815260200190815260200160002060008573ffffffffffffffffffffffffffffffffffffffff1673ffffffffffffffffffffffffffffffffffffffff168152602001908152602001600020819055508273ffffffffffffffffffffffffffffffffffffffff163373ffffffffffffffffffffffffffffffffffffffff167f8c5be1e5ebec7d5bd14f71427d1e84f3dd0314c0f7b2291e5b200ac8c7c3b925846040518082815260200191505060405180910390a36001905092915050565b60085481565b600080600260008673ffffffffffffffffffffffffffffffffffffffff1673ffffffffffffffffffffffffffffffffffffffff16815260200190815260200160002060003373ffffffffffffffffffffffffffffffffffffffff1673ffffffffffffffffffffffffffffffffffffffff16815260200190815260200160002054905082600160008773ffffffffffffffffffffffffffffffffffffffff1673ffffffffffffffffffffffffffffffffffffffff1681526020019081526020016000205410158015610f135750828110155b1515610f1e57600080fd5b82600160008673ffffffffffffffffffffffffffffffffffffffff1673ffffffffffffffffffffffffffffffffffffffff1681526020019081526020016000206000828254019250508190555082600160008773ffffffffffffffffffffffffffffffffffffffff1673ffffffffffffffffffffffffffffffffffffffff168152602001908152602001600020600082825403925050819055507fffffffffffffffffffffffffffffffffffffffffffffffffffffffffffffffff81101561106b5782600260008773ffffffffffffffffffffffffffffffffffffffff1673ffffffffffffffffffffffffffffffffffffffff16815260200190815260200160002060003373ffffffffffffffffffffffffffffffffffffffff1673ffffffffffffffffffffffffffffffffffffffff168152602001908152602001600020600082825403925050819055505b8373ffffffffffffffffffffffffffffffffffffffff168573ffffffffffffffffffffffffffffffffffffffff167fddf252ad1be2c89b69c2b068fc378daa952ba7f163c4a11628f55a4df523b3ef856040518082815260200191505060405180910390a360019150509392505050565b60016020528060005260406000206000915090505481565b600660009054906101000a900460ff1681565b600c60009054906101000a900473ffffffffffffffffffffffffffffffffffffffff1681565b600080600e60009054906101000a900473ffffffffffffffffffffffffffffffffffffffff1673ffffffffffffffffffffffffffffffffffffffff163373ffffffffffffffffffffffffffffffffffffffff161415151561118d57600080fd5b600f60003373ffffffffffffffffffffffffffffffffffffffff1673ffffffffffffffffffffffffffffffffffffffff168152602001908152602001600020600087815260200190815260200160002060009054906101000a900460ff1615156111f657600080fd5b601060003373ffffffffffffffffffffffffffffffffffffffff1673ffffffffffffffffffffffffffffffffffffffff168152602001908152602001600020600087815260200190815260200160002060009054906101000a900460ff1615151561126057600080fd5b3387600b54600d60009054906101000a900473ffffffffffffffffffffffffffffffffffffffff1689604051602001808673ffffffffffffffffffffffffffffffffffffffff1673ffffffffffffffffffffffffffffffffffffffff166c010000000000000000000000000281526014018581526020018481526020018373ffffffffffffffffffffffffffffffffffffffff1673ffffffffffffffffffffffffffffffffffffffff166c01000000000000000000000000028152601401828152602001955050505050506040516020818303038152906040526040518082805190602001908083835b60208310151561136f578051825260208201915060208101905060208303925061134a565b6001836020036101000a03801982511681845116808217855250505050505090500191505060405180910390209050600c60009054906101000a900473ffffffffffffffffffffffffffffffffffffffff1673ffffffffffffffffffffffffffffffffffffffff1660016113e283612b42565b878787604051600081526020016040526040518085600019166000191681526020018460ff1660ff1681526020018360001916600019168152602001826000191660001916815260200194505050505060206040516020810390808403906000865af1158015611456573d6000803e3d6000fd5b5050506020604051035173ffffffffffffffffffffffffffffffffffffffff1614151561148257600080fd5b86600160003373ffffffffffffffffffffffffffffffffffffffff1673ffffffffffffffffffffffffffffffffffffffff16815260200190815260200160002054101515156114d057600080fd5b6001601060003373ffffffffffffffffffffffffffffffffffffffff1673ffffffffffffffffffffffffffffffffffffffff168152602001908152602001600020600088815260200190815260200160002060006101000a81548160ff02191690831515021790555086600160003373ffffffffffffffffffffffffffffffffffffffff1673ffffffffffffffffffffffffffffffffffffffff1681526020019081526020016000206000828254039250508190555086600160008073ffffffffffffffffffffffffffffffffffffffff1673ffffffffffffffffffffffffffffffffffffffff16815260200190815260200160002060008282540192505081905550600073ffffffffffffffffffffffffffffffffffffffff163373ffffffffffffffffffffffffffffffffffffffff167fddf252ad1be2c89b69c2b068fc378daa952ba7f163c4a11628f55a4df523b3ef896040518082815260200191505060405180910390a385600b543373ffffffffffffffffffffffffffffffffffffffff167f84a2a654371502593d00cdbabdd6bcb79a5aecdff182f8bbfc99bd09b75a64548a6040518082815260200191505060405180910390a4600191505095945050505050565b600080821115156116a957600080fd5b81600160003373ffffffffffffffffffffffffffffffffffffffff1673ffffffffffffffffffffffffffffffffffffffff16815260200190815260200160002054101515156116f757600080fd5b81600160003373ffffffffffffffffffffffffffffffffffffffff1673ffffffffffffffffffffffffffffffffffffffff1681526020019081526020016000206000828254039250508190555081600860008282540392505081905550600073ffffffffffffffffffffffffffffffffffffffff163373ffffffffffffffffffffffffffffffffffffffff167fddf252ad1be2c89b69c2b068fc378daa952ba7f163c4a11628f55a4df523b3ef846040518082815260200191505060405180910390a33373ffffffffffffffffffffffffffffffffffffffff167fcc16f5dbb4873280815c1ee09dbd06736cffcc184412cf7a71a0fdb75d397ca5836040518082815260200191505060405180910390a260019050919050565b600f6020528160005260406000206020528060005260406000206000915091509054906101000a900460ff1681565b60078054600181600116156101000203166002900480601f0160208091040260200160405190810160405280929190818152602001828054600181600116156101000203166002900480156118d65780601f106118ab576101008083540402835291602001916118d6565b820191906000526020600020905b8154815290600101906020018083116118b957829003601f168201915b505050505081565b600660019054906101000a900473ffffffffffffffffffffffffffffffffffffffff168073ffffffffffffffffffffffffffffffffffffffff163373ffffffffffffffffffffffffffffffffffffffff1614151561193b57600080fd5b81601160006101000a81548173ffffffffffffffffffffffffffffffffffffffff021916908373ffffffffffffffffffffffffffffffffffffffff1602179055505050565b6002602052816000526040600020602052806000526040600020600091509150505481565b600b5481565b6000600160008373ffffffffffffffffffffffffffffffffffffffff1673ffffffffffffffffffffffffffffffffffffffff168152602001908152602001600020549050919050565b600660019054906101000a900473ffffffffffffffffffffffffffffffffffffffff168073ffffffffffffffffffffffffffffffffffffffff163373ffffffffffffffffffffffffffffffffffffffff16141515611a5157600080fd5b81600660016101000a81548173ffffffffffffffffffffffffffffffffffffffff021916908373ffffffffffffffffffffffffffffffffffffffff1602179055505050565b600e60149054906101000a900460ff1681565b600d60009054906101000a900473ffffffffffffffffffffffffffffffffffffffff1681565b60106020528160005260406000206020528060005260406000206000915091509054906101000a900460ff1681565b60095481565b60058054600181600116156101000203166002900480601f016020809104026020016040519081016040528092919081815260200182805460018160011615610100020316600290048015611b9a5780601f10611b6f57610100808354040283529160200191611b9a565b820191906000526020600020905b815481529060010190602001808311611b7d57829003601f168201915b505050505081565b600e60009054906101000a900473ffffffffffffffffffffffffffffffffffffffff1681565b600c60009054906101000a900473ffffffffffffffffffffffffffffffffffffffff168073ffffffffffffffffffffffffffffffffffffffff163373ffffffffffffffffffffffffffffffffffffffff16141515611c2557600080fd5b8573ffffffffffffffffffffffffffffffffffffffff163373ffffffffffffffffffffffffffffffffffffffff1614151515611c6057600080fd5b601060008773ffffffffffffffffffffffffffffffffffffffff1673ffffffffffffffffffffffffffffffffffffffff168152602001908152602001600020600086815260200190815260200160002060009054906101000a900460ff161515611cc957600080fd5b85600b54600d60009054906101000a900473ffffffffffffffffffffffffffffffffffffffff1687604051602001808573ffffffffffffffffffffffffffffffffffffffff1673ffffffffffffffffffffffffffffffffffffffff166c010000000000000000000000000281526014018481526020018373ffffffffffffffffffffffffffffffffffffffff1673ffffffffffffffffffffffffffffffffffffffff166c010000000000000000000000000281526014018281526020019450505050506040516020818303038152906040526040518082805190602001908083835b602083101515611dd05780518252602082019150602081019050602083039250611dab565b6001836020036101000a0380198251168184511680821785525050505050509050019150506040518091039020600019168760001916141515611e1257600080fd5b3373ffffffffffffffffffffffffffffffffffffffff166001611e3489612b42565b868686604051600081526020016040526040518085600019166000191681526020018460ff1660ff1681526020018360001916600019168152602001826000191660001916815260200194505050505060206040516020810390808403906000865af1158015611ea8573d6000803e3d6000fd5b5050506020604051035173ffffffffffffffffffffffffffffffffffffffff16141515611ed457600080fd5b84600b548773ffffffffffffffffffffffffffffffffffffffff167f368f40208db6c6906b67a3eb66a7b8a2d99827e34851d9112e3d0839caa0d250878787604051808460ff1660ff16815260200183600019166000191681526020018260001916600019168152602001935050505060405180910390a450505050505050565b600081600160003373ffffffffffffffffffffffffffffffffffffffff1673ffffffffffffffffffffffffffffffffffffffff1681526020019081526020016000205410151515611fa557600080fd5b81600160003373ffffffffffffffffffffffffffffffffffffffff1673ffffffffffffffffffffffffffffffffffffffff1681526020019081526020016000206000828254039250508190555081600160008573ffffffffffffffffffffffffffffffffffffffff1673ffffffffffffffffffffffffffffffffffffffff168152602001908152602001600020600082825401925050819055508273ffffffffffffffffffffffffffffffffffffffff163373ffffffffffffffffffffffffffffffffffffffff167fddf252ad1be2c89b69c2b068fc378daa952ba7f163c4a11628f55a4df523b3ef846040518082815260200191505060405180910390a36001905092915050565b600080600e60149054906101000a900460ff1615156120cc57600080fd5b600e60009054906101000a900473ffffffffffffffffffffffffffffffffffffffff1673ffffffffffffffffffffffffffffffffffffffff163373ffffffffffffffffffffffffffffffffffffffff161415151561212957600080fd5b8a600160008073ffffffffffffffffffffffffffffffffffffffff1673ffffffffffffffffffffffffffffffffffffffff168152602001908152602001600020541015151561217757600080fd5b600f60003373ffffffffffffffffffffffffffffffffffffffff1673ffffffffffffffffffffffffffffffffffffffff16815260200190815260200160002060008b815260200190815260200160002060009054906101000a900460ff161515156121e157600080fd5b338b600b54600d60009054906101000a900473ffffffffffffffffffffffffffffffffffffffff168d604051602001808673ffffffffffffffffffffffffffffffffffffffff1673ffffffffffffffffffffffffffffffffffffffff166c010000000000000000000000000281526014018581526020018481526020018373ffffffffffffffffffffffffffffffffffffffff1673ffffffffffffffffffffffffffffffffffffffff166c01000000000000000000000000028152601401828152602001955050505050506040516020818303038152906040526040518082805190602001908083835b6020831015156122f057805182526020820191506020810190506020830392506122cb565b6001836020036101000a03801982511681845116808217855250505050505090500191505060405180910390209050600c60009054906101000a900473ffffffffffffffffffffffffffffffffffffffff1673ffffffffffffffffffffffffffffffffffffffff16600161236383612b42565b8a8a8a604051600081526020016040526040518085600019166000191681526020018460ff1660ff1681526020018360001916600019168152602001826000191660001916815260200194505050505060206040516020810390808403906000865af11580156123d7573d6000803e3d6000fd5b5050506020604051035173ffffffffffffffffffffffffffffffffffffffff1614151561240357600080fd5b808888888c6040516020018086600019166000191681526020018560ff1660ff167f010000000000000000000000000000000000000000000000000000000000000002815260010184600019166000191681526020018360001916600019168152602001828152602001955050505050506040516020818303038152906040526040518082805190602001908083835b6020831015156124b85780518252602082019150602081019050602083039250612493565b6001836020036101000a0380198251168184511680821785525050505050509050019150506040518091039020600019168c600019161415156124fa57600080fd5b600e60009054906101000a900473ffffffffffffffffffffffffffffffffffffffff1673ffffffffffffffffffffffffffffffffffffffff16600161253e8e612b42565b878787604051600081526020016040526040518085600019166000191681526020018460ff1660ff1681526020018360001916600019168152602001826000191660001916815260200194505050505060206040516020810390808403906000865af11580156125b2573d6000803e3d6000fd5b5050506020604051035173ffffffffffffffffffffffffffffffffffffffff161415156125de57600080fd5b6001600f60003373ffffffffffffffffffffffffffffffffffffffff1673ffffffffffffffffffffffffffffffffffffffff16815260200190815260200160002060008c815260200190815260200160002060006101000a81548160ff0219169083151502179055508a600160008073ffffffffffffffffffffffffffffffffffffffff1673ffffffffffffffffffffffffffffffffffffffff168152602001908152602001600020600082825403925050819055508a600160003373ffffffffffffffffffffffffffffffffffffffff1673ffffffffffffffffffffffffffffffffffffffff1681526020019081526020016000206000828254019250508190555089600b543373ffffffffffffffffffffffffffffffffffffffff167f137c429ce094a36c792d19cb4685254162f26c9553f7af04ec111a7104e77da18e6040518082815260200191505060405180910390a43373ffffffffffffffffffffffffffffffffffffffff16600073ffffffffffffffffffffffffffffffffffffffff167fddf252ad1be2c89b69c2b068fc378daa952ba7f163c4a11628f55a4df523b3ef8d6040518082815260200191505060405180910390a360019150509a9950505050505050505050565b601160009054906101000a900473ffffffffffffffffffffffffffffffffffffffff1681565b600660019054906101000a900473ffffffffffffffffffffffffffffffffffffffff168073ffffffffffffffffffffffffffffffffffffffff163373ffffffffffffffffffffffffffffffffffffffff1614151561282f57600080fd5b82600c60006101000a81548173ffffffffffffffffffffffffffffffffffffffff021916908373ffffffffffffffffffffffffffffffffffffffff16021790555081600e60006101000a81548173ffffffffffffffffffffffffffffffffffffffff021916908373ffffffffffffffffffffffffffffffffffffffff160217905550505050565b6000600260008473ffffffffffffffffffffffffffffffffffffffff1673ffffffffffffffffffffffffffffffffffffffff16815260200190815260200160002060008373ffffffffffffffffffffffffffffffffffffffff1673ffffffffffffffffffffffffffffffffffffffff16815260200190815260200160002054905092915050565b600a5481565b600660019054906101000a900473ffffffffffffffffffffffffffffffffffffffff168073ffffffffffffffffffffffffffffffffffffffff163373ffffffffffffffffffffffffffffffffffffffff161415156129a057600080fd5b81600e60146101000a81548160ff0219169083151502179055505050565b6129ea601160009054906101000a900473ffffffffffffffffffffffffffffffffffffffff1682611f55565b50601160009054906101000a900473ffffffffffffffffffffffffffffffffffffffff1673ffffffffffffffffffffffffffffffffffffffff1660405180807f63726561746543616d706169676e28616464726573732c75696e7433322c756981526020017f6e74323536290000000000000000000000000000000000000000000000000000815250602601905060405180910390207c010000000000000000000000000000000000000000000000000000000090043384846040518463ffffffff167c0100000000000000000000000000000000000000000000000000000000028152600401808473ffffffffffffffffffffffffffffffffffffffff1673ffffffffffffffffffffffffffffffffffffffff1681526020018363ffffffff1663ffffffff16815260200182815260200193505050506000604051808303816000875af1925050501515612b3e57600080fd5b5050565b6000612b4d82612c70565b60405160200180807f19457468657265756d205369676e6564204d6573736167653a0a37364272696481526020017f6765206663743a2000000000000000000000000000000000000000000000000081525060280182805190602001908083835b602083101515612bd35780518252602082019150602081019050602083039250612bae565b6001836020036101000a0380198251168184511680821785525050505050509050019150506040516020818303038152906040526040518082805190602001908083835b602083101515612c3c5780518252602082019150602081019050602083039250612c17565b6001836020036101000a03801982511681845116808217855250505050505090500191505060405180910390209050919050565b6060806060806000604080519080825280601f01601f191660200182016040528015612cab5781602001602082028038833980820191505090505b5093506040805190810160405280601081526020017f30313233343536373839616263646566000000000000000000000000000000008152509250829150600090505b60208160ff161015612f645781600460f07f010000000000000000000000000000000000000000000000000000000000000002888460ff16602081101515612d3257fe5b1a7f010000000000000000000000000000000000000000000000000000000000000002167effffffffffffffffffffffffffffffffffffffffffffffffffffffffffffff19169060020a90047f01000000000000000000000000000000000000000000000000000000000000009004815181101515612dad57fe5b9060200101517f010000000000000000000000000000000000000000000000000000000000000090047f010000000000000000000000000000000000000000000000000000000000000002846002830260ff16815181101515612e0c57fe5b9060200101907effffffffffffffffffffffffffffffffffffffffffffffffffffffffffffff1916908160001a90535081600f7f010000000000000000000000000000000000000000000000000000000000000002878360ff16602081101515612e7257fe5b1a7f010000000000000000000000000000000000000000000000000000000000000002167f01000000000000000000000000000000000000000000000000000000000000009004815181101515612ec557fe5b9060200101517f010000000000000000000000000000000000000000000000000000000000000090047f010000000000000000000000000000000000000000000000000000000000000002846001600284020160ff16815181101515612f2757fe5b9060200101907effffffffffffffffffffffffffffffffffffffffffffffffffffffffffffff1916908160001a9053508080600101915050612cee565b839450505050509190505600a165627a7a7230582022a0d9d027922830408e3f2876b9abc59d95cf9d0b3d92c7030e406c51d22c5b0029",
  "source": "/*\n\n  Bridged ERC20 RGE contract to be used on a FOREIGN CHAIN (not Ethereum mainnet, i.e. \"home\")\n\n  See RougeBridge for the contract on Ethereum mainnet (HOME CHAIN) responsible to lock home RGE for every Bridged RGE\n\n*/\n\npragma solidity ^0.4.24;\n\nimport \"./EIP20.sol\";\n\ncontract BridgeRGEToken is EIP20 {\n    \n    /* ERC20 */\n    uint8 public decimals = 6;\n    \n    /* RGEToken - keeping the bridged RGE interface as similar as the home RGE */\n    address owner; \n    string public version = 'v1.0-0.4'; /* composition rge version + bridge version */\n    uint256 public totalSupply = 1000000000 * 10**uint(decimals);\n    uint256 public   reserveY1 = 0;\n    uint256 public   reserveY2 = 0;\n\n    modifier onlyBy(address _address) {\n        require(msg.sender == _address);\n        _;\n    }\n    \n    uint public network;                  /* the foreign RGE network ID */\n    address public validator;             /* this (foreign) validator */\n\n    address public homeBridge;               \n    address public homeValidator;         /* validator in the RougeBridge contract on the home RGE network */\n\n    constructor(uint _network, address _validator, address _homeBridge, address _homeValidator, string _name, string _symbol)\n          EIP20 (totalSupply, _name, decimals, _symbol) public {\n        owner = msg.sender;\n        network = _network;\n        validator = _validator;\n        homeBridge = _homeBridge;\n        homeValidator = _homeValidator;\n        balances[address(0)] = totalSupply;      /* RGE on address(0) means there are not circulating on this foreign chain */\n    }\n    \n    function newOwner(address _account) onlyBy(owner) public {\n        owner = _account;\n    }\n\n    function setValidators(address _validator, address _homeValidator) onlyBy(owner) public {\n        validator = _validator;\n        homeValidator = _homeValidator;\n    }\n\n    bool public bridgeIsOpened = true;\n\n    function toggleBridge(bool _flag) onlyBy(owner) public {\n        bridgeIsOpened = _flag;\n    }\n\n    modifier BridgeOpen() {\n        require(bridgeIsOpened);\n        _;\n    }\n    \n    mapping (address => mapping (uint => bool)) public claimed;\n    mapping (address => mapping (uint => bool)) public surrendered;\n\n    /* the lockHash can be read on the bridge main chain by the user */\n    /* the sealHash is be sure that the RGE tokens are already locked + homeValidator signature */\n    \n    event RGEClaim(address indexed account, uint indexed _network, uint indexed depositBlock, uint256 value);\n\n    function claim(bytes32 _sealHash, uint256 _value, uint _depositBlock, uint _lockBlock,\n                   uint8 vLock, bytes32 rLock, bytes32 sLock, uint8 vAuth, bytes32 rAuth, bytes32 sAuth)\n      BridgeOpen public returns (bool success) {\n        require(msg.sender != homeValidator); \n        require(balances[address(0)] >= _value);\n        require(!claimed[msg.sender][_depositBlock]);           // check if the deposit has not been already claimed\n        bytes32 _lockHash = keccak256(abi.encodePacked(msg.sender, _value, network, homeBridge, _depositBlock));\n        require(ecrecover(prefixed(_lockHash), vLock, rLock, sLock) == validator);\n        require(_sealHash == keccak256(abi.encodePacked(_lockHash, vLock, rLock, sLock, _lockBlock)));\n        require(ecrecover(prefixed(_sealHash), vAuth, rAuth, sAuth) == homeValidator);\n        claimed[msg.sender][_depositBlock] = true;             // distribute the claim\n        balances[address(0)] -= _value;\n        balances[msg.sender] += _value;\n        emit RGEClaim(msg.sender, network, _depositBlock, _value);\n        emit Transfer(address(0), msg.sender, _value);\n        return true;\n     }\n\n    event Surrender(address indexed account, uint indexed _network, uint indexed depositBlock, uint256 value);\n\n    function surrender(uint256 _value, uint _depositBlock, uint8 vLock, bytes32 rLock, bytes32 sLock) public returns (bool success) {\n        require(msg.sender != homeValidator); \n        require(claimed[msg.sender][_depositBlock]);\n        require(!surrendered[msg.sender][_depositBlock]);        // not surrendered already\n        bytes32 _lockHash = keccak256(abi.encodePacked(msg.sender, _value, network, homeBridge, _depositBlock));\n        require(ecrecover(prefixed(_lockHash), vLock, rLock, sLock) == validator);\n        require(balances[msg.sender] >= _value);\n        surrendered[msg.sender][_depositBlock] = true;        // withdraw tokens from circulation\n        balances[msg.sender] -= _value;\n        balances[address(0)] += _value;\n        emit Transfer(msg.sender, address(0), _value);\n        emit Surrender(msg.sender, network, _depositBlock, _value);\n        return true;\n     }\n\n    function getHexString(bytes32 value) internal pure returns (string) {\n        bytes memory result = new bytes(64);\n        string memory characterString = \"0123456789abcdef\";\n        bytes memory characters = bytes(characterString);\n        for (uint8 i = 0; i < 32; i++) {\n            result[i * 2] = characters[uint256((value[i] & 0xF0) >> 4)];\n            result[i * 2 + 1] = characters[uint256(value[i] & 0xF)];\n        }\n        return string(result);\n    }\n\n    function prefixed(bytes32 _hash) internal pure returns (bytes32) {\n        return keccak256(abi.encodePacked(\"\\x19Ethereum Signed Message:\\n76Bridge fct: \", getHexString(_hash)));\n    }\n    \n    // This function should be called after a surrender, to publish information necessary to unlock tokens on home chain\n\n    event Repudiate(address indexed account, uint indexed _network, uint indexed depositBlock, uint8 v, bytes32 r, bytes32 s);\n\n    function repudiate(bytes32 _hash, address _account, uint _depositBlock, uint8 v, bytes32 r, bytes32 s)\n        onlyBy(validator) public {\n        require(msg.sender != _account);\n        require(surrendered[_account][_depositBlock]);\n        require(_hash == keccak256(abi.encodePacked(_account, network, homeBridge, _depositBlock)));\n        require(ecrecover(prefixed(_hash), v, r, s) == msg.sender);\n        emit Repudiate(_account, network, _depositBlock, v, r, s);\n    }\n\n    /* standard RGE interface  */\n\n    address public factory;\n\n    function setFactory(address _factory) onlyBy(owner) public {\n        factory = _factory;\n    }\n\n    function newCampaign(uint32 _issuance, uint256 _value) public {\n        transfer(factory,_value);\n        require(factory.call(bytes4(keccak256(\"createCampaign(address,uint32,uint256)\")),msg.sender,_issuance,_value));\n    }\n\n    event Burn(address indexed burner, uint256 value);\n\n    function burn(uint256 _value) public returns (bool success) {\n        require(_value > 0);\n        require(balances[msg.sender] >= _value);\n        balances[msg.sender] -= _value;\n        totalSupply -= _value;\n        emit Transfer(msg.sender, address(0), _value);\n        emit Burn(msg.sender, _value);\n        return true;\n    }\n\n}\n",
  "sourcePath": "/home/clb/notes/rouge/repositories/rge/protocol/contracts/BridgeRGEToken.sol",
  "compiler": {
    "name": "solc",
    "version": "0.4.24+commit.e67f0147.Emscripten.clang"
  },
  "schemaVersion": "2.0.1",
  "updatedAt": "2018-08-28T02:06:16.529Z"
}