{
  "contractName": "RougeRegistry",
  "abi": [
    {
      "constant": true,
      "inputs": [
        {
          "name": "",
          "type": "address"
        }
      ],
      "name": "is_campaign",
      "outputs": [
        {
          "name": "",
          "type": "bool"
        }
      ],
      "payable": false,
      "stateMutability": "view",
      "type": "function"
    },
    {
      "constant": true,
      "inputs": [
        {
          "name": "",
          "type": "address"
        }
      ],
      "name": "is_issuer",
      "outputs": [
        {
          "name": "",
          "type": "bool"
        }
      ],
      "payable": false,
      "stateMutability": "view",
      "type": "function"
    },
    {
      "constant": true,
      "inputs": [
        {
          "name": "",
          "type": "address"
        }
      ],
      "name": "campaign_index",
      "outputs": [
        {
          "name": "",
          "type": "uint256"
        }
      ],
      "payable": false,
      "stateMutability": "view",
      "type": "function"
    },
    {
      "constant": true,
      "inputs": [],
      "name": "get_all_count",
      "outputs": [
        {
          "name": "count",
          "type": "uint256"
        }
      ],
      "payable": false,
      "stateMutability": "view",
      "type": "function"
    },
    {
      "constant": true,
      "inputs": [
        {
          "name": "index",
          "type": "uint256"
        }
      ],
      "name": "get_all_campaign",
      "outputs": [
        {
          "name": "",
          "type": "address"
        }
      ],
      "payable": false,
      "stateMutability": "view",
      "type": "function"
    },
    {
      "constant": true,
      "inputs": [
        {
          "name": "issuer",
          "type": "address"
        }
      ],
      "name": "get_count",
      "outputs": [
        {
          "name": "count",
          "type": "uint256"
        }
      ],
      "payable": false,
      "stateMutability": "view",
      "type": "function"
    },
    {
      "constant": true,
      "inputs": [
        {
          "name": "issuer",
          "type": "address"
        },
        {
          "name": "index",
          "type": "uint256"
        }
      ],
      "name": "get_campaign",
      "outputs": [
        {
          "name": "",
          "type": "address"
        }
      ],
      "payable": false,
      "stateMutability": "view",
      "type": "function"
    },
    {
      "constant": true,
      "inputs": [
        {
          "name": "issuer",
          "type": "address"
        }
      ],
      "name": "get_last_campaign",
      "outputs": [
        {
          "name": "",
          "type": "address"
        }
      ],
      "payable": false,
      "stateMutability": "view",
      "type": "function"
    },
    {
      "constant": true,
      "inputs": [],
      "name": "get_mycount",
      "outputs": [
        {
          "name": "count",
          "type": "uint256"
        }
      ],
      "payable": false,
      "stateMutability": "view",
      "type": "function"
    },
    {
      "constant": true,
      "inputs": [
        {
          "name": "index",
          "type": "uint256"
        }
      ],
      "name": "get_mycampaign",
      "outputs": [
        {
          "name": "",
          "type": "address"
        }
      ],
      "payable": false,
      "stateMutability": "view",
      "type": "function"
    }
  ],
  "bytecode": "0x608060405234801561001057600080fd5b5061077d806100206000396000f3006080604052600436106100a4576000357c0100000000000000000000000000000000000000000000000000000000900463ffffffff16806301f8eefc146100a957806336f350eb14610116578063397e6a9b146101995780633f09d078146102065780637a446d541461025d578063ac2ab212146102b8578063c3c4b90914610313578063c8a0df9f1461033e578063e018132c14610395578063e75de7c6146103c0575b600080fd5b3480156100b557600080fd5b506100d46004803603810190808035906020019092919050505061044d565b604051808273ffffffffffffffffffffffffffffffffffffffff1673ffffffffffffffffffffffffffffffffffffffff16815260200191505060405180910390f35b34801561012257600080fd5b50610157600480360381019080803573ffffffffffffffffffffffffffffffffffffffff1690602001909291905050506104cd565b604051808273ffffffffffffffffffffffffffffffffffffffff1673ffffffffffffffffffffffffffffffffffffffff16815260200191505060405180910390f35b3480156101a557600080fd5b506101c460048036038101908080359060200190929190505050610592565b604051808273ffffffffffffffffffffffffffffffffffffffff1673ffffffffffffffffffffffffffffffffffffffff16815260200191505060405180910390f35b34801561021257600080fd5b50610247600480360381019080803573ffffffffffffffffffffffffffffffffffffffff1690602001909291905050506105d5565b6040518082815260200191505060405180910390f35b34801561026957600080fd5b5061029e600480360381019080803573ffffffffffffffffffffffffffffffffffffffff169060200190929190505050610621565b604051808215151515815260200191505060405180910390f35b3480156102c457600080fd5b506102f9600480360381019080803573ffffffffffffffffffffffffffffffffffffffff169060200190929190505050610641565b604051808215151515815260200191505060405180910390f35b34801561031f57600080fd5b50610328610661565b6040518082815260200191505060405180910390f35b34801561034a57600080fd5b5061037f600480360381019080803573ffffffffffffffffffffffffffffffffffffffff1690602001909291905050506106ab565b6040518082815260200191505060405180910390f35b3480156103a157600080fd5b506103aa6106c3565b6040518082815260200191505060405180910390f35b3480156103cc57600080fd5b5061040b600480360381019080803573ffffffffffffffffffffffffffffffffffffffff169060200190929190803590602001909291905050506106d0565b604051808273ffffffffffffffffffffffffffffffffffffffff1673ffffffffffffffffffffffffffffffffffffffff16815260200191505060405180910390f35b6000600560003373ffffffffffffffffffffffffffffffffffffffff1673ffffffffffffffffffffffffffffffffffffffff1681526020019081526020016000208281548110151561049b57fe5b9060005260206000200160009054906101000a900473ffffffffffffffffffffffffffffffffffffffff169050919050565b6000600560008373ffffffffffffffffffffffffffffffffffffffff1673ffffffffffffffffffffffffffffffffffffffff1681526020019081526020016000206001600560008573ffffffffffffffffffffffffffffffffffffffff1673ffffffffffffffffffffffffffffffffffffffff168152602001908152602001600020805490500381548110151561056057fe5b9060005260206000200160009054906101000a900473ffffffffffffffffffffffffffffffffffffffff169050919050565b60006001828154811015156105a357fe5b9060005260206000200160009054906101000a900473ffffffffffffffffffffffffffffffffffffffff169050919050565b6000600560008373ffffffffffffffffffffffffffffffffffffffff1673ffffffffffffffffffffffffffffffffffffffff168152602001908152602001600020805490509050919050565b60036020528060005260406000206000915054906101000a900460ff1681565b60026020528060005260406000206000915054906101000a900460ff1681565b6000600560003373ffffffffffffffffffffffffffffffffffffffff1673ffffffffffffffffffffffffffffffffffffffff16815260200190815260200160002080549050905090565b60046020528060005260406000206000915090505481565b6000600180549050905090565b6000600560008473ffffffffffffffffffffffffffffffffffffffff1673ffffffffffffffffffffffffffffffffffffffff1681526020019081526020016000208281548110151561071e57fe5b9060005260206000200160009054906101000a900473ffffffffffffffffffffffffffffffffffffffff169050929150505600a165627a7a72305820723c6bc99438e440f9b1a44141a566aac00045b79782b58f84ee7eebc3c05b890029",
  "source": "\npragma solidity ^0.4.24;\n\nimport \"./RougeRegistryInterface.sol\";\n\ncontract RougeRegistry is RougeRegistryInterface {\n\n    address[] issuers;\n    address[] all_campaigns;\n    \n    mapping (address => bool) public is_issuer;\n    mapping (address => bool) public is_campaign;\n    mapping (address => uint256) public campaign_index;\n    mapping (address => address[]) campaigns;\n\n    function add_campaign(address _issuer, address _a) internal {\n        if (!is_issuer[_issuer]) {\n            is_issuer[_issuer] = true;\n            issuers.push(_issuer);\n        }\n        all_campaigns.push(_a);\n        campaigns[_issuer].push(_a);\n        is_campaign[_a] = true;\n        campaign_index[_a] = all_campaigns.length - 1;\n    }\n\n    function get_all_count() public view returns(uint count) {\n        return all_campaigns.length;\n    }\n   \n    function get_all_campaign(uint index) public view returns(address) {\n        return all_campaigns[index];\n    }\n   \n    function get_count(address issuer) public view returns(uint count) {\n        return campaigns[issuer].length;\n    }\n   \n    function get_campaign(address issuer, uint index) public view returns(address) {\n        return campaigns[issuer][index];\n    }\n   \n    function get_last_campaign(address issuer) public view returns(address) {\n        return campaigns[issuer][campaigns[issuer].length - 1];\n    }\n   \n    function get_mycount() public view returns(uint count) {\n        return campaigns[msg.sender].length;\n    }\n\n    function get_mycampaign(uint index) public view returns(address) {\n        return campaigns[msg.sender][index];\n    }\n\n}\n",
  "sourcePath": "/home/clb/notes/rouge/repositories/rge/protocol/contracts/RougeRegistry.sol",
  "compiler": {
    "name": "solc",
    "version": "0.4.24+commit.e67f0147.Emscripten.clang"
  },
  "schemaVersion": "2.0.1",
  "updatedAt": "2018-08-28T02:06:16.543Z"
}