{
  "contractName": "RougeBridge",
  "abi": [
    {
      "constant": true,
      "inputs": [
        {
          "name": "",
          "type": "uint256"
        }
      ],
      "name": "homeValidator",
      "outputs": [
        {
          "name": "",
          "type": "address"
        }
      ],
      "payable": false,
      "stateMutability": "view",
      "type": "function"
    },
    {
      "constant": true,
      "inputs": [],
      "name": "rge",
      "outputs": [
        {
          "name": "",
          "type": "address"
        }
      ],
      "payable": false,
      "stateMutability": "view",
      "type": "function"
    },
    {
      "constant": true,
      "inputs": [
        {
          "name": "",
          "type": "uint256"
        }
      ],
      "name": "isOpen",
      "outputs": [
        {
          "name": "",
          "type": "bool"
        }
      ],
      "payable": false,
      "stateMutability": "view",
      "type": "function"
    },
    {
      "constant": true,
      "inputs": [],
      "name": "version",
      "outputs": [
        {
          "name": "",
          "type": "string"
        }
      ],
      "payable": false,
      "stateMutability": "view",
      "type": "function"
    },
    {
      "constant": true,
      "inputs": [
        {
          "name": "",
          "type": "uint256"
        }
      ],
      "name": "foreignValidator",
      "outputs": [
        {
          "name": "",
          "type": "address"
        }
      ],
      "payable": false,
      "stateMutability": "view",
      "type": "function"
    },
    {
      "constant": true,
      "inputs": [],
      "name": "owner",
      "outputs": [
        {
          "name": "",
          "type": "address"
        }
      ],
      "payable": false,
      "stateMutability": "view",
      "type": "function"
    },
    {
      "constant": true,
      "inputs": [
        {
          "name": "",
          "type": "address"
        },
        {
          "name": "",
          "type": "uint256"
        },
        {
          "name": "",
          "type": "uint256"
        }
      ],
      "name": "escrow",
      "outputs": [
        {
          "name": "",
          "type": "uint256"
        }
      ],
      "payable": false,
      "stateMutability": "view",
      "type": "function"
    },
    {
      "constant": true,
      "inputs": [
        {
          "name": "",
          "type": "address"
        },
        {
          "name": "",
          "type": "uint256"
        },
        {
          "name": "",
          "type": "uint256"
        }
      ],
      "name": "escrowSeal",
      "outputs": [
        {
          "name": "",
          "type": "bytes32"
        }
      ],
      "payable": false,
      "stateMutability": "view",
      "type": "function"
    },
    {
      "inputs": [
        {
          "name": "_rge",
          "type": "address"
        }
      ],
      "payable": false,
      "stateMutability": "nonpayable",
      "type": "constructor"
    },
    {
      "anonymous": false,
      "inputs": [
        {
          "indexed": true,
          "name": "account",
          "type": "address"
        },
        {
          "indexed": true,
          "name": "_network",
          "type": "uint256"
        },
        {
          "indexed": true,
          "name": "depositBlock",
          "type": "uint256"
        },
        {
          "indexed": false,
          "name": "value",
          "type": "uint256"
        }
      ],
      "name": "BridgeDeposit",
      "type": "event"
    },
    {
      "anonymous": false,
      "inputs": [
        {
          "indexed": true,
          "name": "account",
          "type": "address"
        },
        {
          "indexed": true,
          "name": "_network",
          "type": "uint256"
        },
        {
          "indexed": true,
          "name": "depositBlock",
          "type": "uint256"
        },
        {
          "indexed": false,
          "name": "value",
          "type": "uint256"
        }
      ],
      "name": "BridgeWithdraw",
      "type": "event"
    },
    {
      "anonymous": false,
      "inputs": [
        {
          "indexed": true,
          "name": "account",
          "type": "address"
        },
        {
          "indexed": true,
          "name": "_network",
          "type": "uint256"
        },
        {
          "indexed": true,
          "name": "depositBlock",
          "type": "uint256"
        },
        {
          "indexed": false,
          "name": "v",
          "type": "uint8"
        },
        {
          "indexed": false,
          "name": "r",
          "type": "bytes32"
        },
        {
          "indexed": false,
          "name": "s",
          "type": "bytes32"
        },
        {
          "indexed": false,
          "name": "sealHash",
          "type": "bytes32"
        }
      ],
      "name": "EscrowLocked",
      "type": "event"
    },
    {
      "anonymous": false,
      "inputs": [
        {
          "indexed": true,
          "name": "account",
          "type": "address"
        },
        {
          "indexed": true,
          "name": "_network",
          "type": "uint256"
        },
        {
          "indexed": true,
          "name": "depositBlock",
          "type": "uint256"
        },
        {
          "indexed": false,
          "name": "v",
          "type": "uint8"
        },
        {
          "indexed": false,
          "name": "r",
          "type": "bytes32"
        },
        {
          "indexed": false,
          "name": "s",
          "type": "bytes32"
        }
      ],
      "name": "BridgeAuth",
      "type": "event"
    },
    {
      "anonymous": false,
      "inputs": [
        {
          "indexed": true,
          "name": "account",
          "type": "address"
        },
        {
          "indexed": true,
          "name": "_network",
          "type": "uint256"
        },
        {
          "indexed": true,
          "name": "depositBlock",
          "type": "uint256"
        }
      ],
      "name": "EscrowUnlocked",
      "type": "event"
    },
    {
      "constant": false,
      "inputs": [
        {
          "name": "_account",
          "type": "address"
        }
      ],
      "name": "newOwner",
      "outputs": [],
      "payable": false,
      "stateMutability": "nonpayable",
      "type": "function"
    },
    {
      "constant": false,
      "inputs": [
        {
          "name": "_network",
          "type": "uint256"
        },
        {
          "name": "_flag",
          "type": "bool"
        },
        {
          "name": "_homeValidator",
          "type": "address"
        },
        {
          "name": "_foreignValidator",
          "type": "address"
        }
      ],
      "name": "adminBridge",
      "outputs": [],
      "payable": false,
      "stateMutability": "nonpayable",
      "type": "function"
    },
    {
      "constant": false,
      "inputs": [
        {
          "name": "_value",
          "type": "uint256"
        },
        {
          "name": "_network",
          "type": "uint256"
        }
      ],
      "name": "deposit",
      "outputs": [],
      "payable": false,
      "stateMutability": "nonpayable",
      "type": "function"
    },
    {
      "constant": false,
      "inputs": [
        {
          "name": "_network",
          "type": "uint256"
        },
        {
          "name": "_depositBlock",
          "type": "uint256"
        }
      ],
      "name": "withdraw",
      "outputs": [],
      "payable": false,
      "stateMutability": "nonpayable",
      "type": "function"
    },
    {
      "constant": false,
      "inputs": [
        {
          "name": "_hash",
          "type": "bytes32"
        },
        {
          "name": "_account",
          "type": "address"
        },
        {
          "name": "_network",
          "type": "uint256"
        },
        {
          "name": "_depositBlock",
          "type": "uint256"
        },
        {
          "name": "v",
          "type": "uint8"
        },
        {
          "name": "r",
          "type": "bytes32"
        },
        {
          "name": "s",
          "type": "bytes32"
        }
      ],
      "name": "lockEscrow",
      "outputs": [],
      "payable": false,
      "stateMutability": "nonpayable",
      "type": "function"
    },
    {
      "constant": false,
      "inputs": [
        {
          "name": "_account",
          "type": "address"
        },
        {
          "name": "_network",
          "type": "uint256"
        },
        {
          "name": "_depositBlock",
          "type": "uint256"
        },
        {
          "name": "v",
          "type": "uint8"
        },
        {
          "name": "r",
          "type": "bytes32"
        },
        {
          "name": "s",
          "type": "bytes32"
        }
      ],
      "name": "createAuth",
      "outputs": [],
      "payable": false,
      "stateMutability": "nonpayable",
      "type": "function"
    },
    {
      "constant": false,
      "inputs": [
        {
          "name": "_hash",
          "type": "bytes32"
        },
        {
          "name": "_account",
          "type": "address"
        },
        {
          "name": "_network",
          "type": "uint256"
        },
        {
          "name": "_depositBlock",
          "type": "uint256"
        },
        {
          "name": "v",
          "type": "uint8"
        },
        {
          "name": "r",
          "type": "bytes32"
        },
        {
          "name": "s",
          "type": "bytes32"
        }
      ],
      "name": "unlockEscrow",
      "outputs": [],
      "payable": false,
      "stateMutability": "nonpayable",
      "type": "function"
    }
  ],
  "bytecode": "0x60806040526040805190810160405280600481526020017f76302e340000000000000000000000000000000000000000000000000000000081525060009080519060200190620000519291906200010c565b503480156200005f57600080fd5b50604051602080620023038339810180604052810190808051906020019092919050505033600160006101000a81548173ffffffffffffffffffffffffffffffffffffffff021916908373ffffffffffffffffffffffffffffffffffffffff16021790555080600260006101000a81548173ffffffffffffffffffffffffffffffffffffffff021916908373ffffffffffffffffffffffffffffffffffffffff16021790555050620001bb565b828054600181600116156101000203166002900490600052602060002090601f016020900481019282601f106200014f57805160ff191683800117855562000180565b8280016001018555821562000180579182015b828111156200017f57825182559160200191906001019062000162565b5b5090506200018f919062000193565b5090565b620001b891905b80821115620001b45760008160009055506001016200019a565b5090565b90565b61213880620001cb6000396000f3006080604052600436106100db576000357c0100000000000000000000000000000000000000000000000000000000900463ffffffff1680631c8214bd146100e057806322122cc41461014d578063441a3e70146101db578063497ce71f146102125780634d6861a61461026957806354fd4d50146102ae5780635df4dcfd1461033e578063662c42ab146103ab5780636b8d676b1461043957806385952454146104b25780638da5cb5b146104f5578063afa022c11461054c578063e2bbb158146105b7578063e382b3c9146105ee578063e8c8457d14610661575b600080fd5b3480156100ec57600080fd5b5061010b600480360381019080803590602001909291905050506106e1565b604051808273ffffffffffffffffffffffffffffffffffffffff1673ffffffffffffffffffffffffffffffffffffffff16815260200191505060405180910390f35b34801561015957600080fd5b506101d96004803603810190808035600019169060200190929190803573ffffffffffffffffffffffffffffffffffffffff1690602001909291908035906020019092919080359060200190929190803560ff16906020019092919080356000191690602001909291908035600019169060200190929190505050610714565b005b3480156101e757600080fd5b506102106004803603810190808035906020019092919080359060200190929190505050610c56565b005b34801561021e57600080fd5b50610227610f0c565b604051808273ffffffffffffffffffffffffffffffffffffffff1673ffffffffffffffffffffffffffffffffffffffff16815260200191505060405180910390f35b34801561027557600080fd5b5061029460048036038101908080359060200190929190505050610f32565b604051808215151515815260200191505060405180910390f35b3480156102ba57600080fd5b506102c3610f52565b6040518080602001828103825283818151815260200191508051906020019080838360005b838110156103035780820151818401526020810190506102e8565b50505050905090810190601f1680156103305780820380516001836020036101000a031916815260200191505b509250505060405180910390f35b34801561034a57600080fd5b5061036960048036038101908080359060200190929190505050610ff0565b604051808273ffffffffffffffffffffffffffffffffffffffff1673ffffffffffffffffffffffffffffffffffffffff16815260200191505060405180910390f35b3480156103b757600080fd5b506104376004803603810190808035600019169060200190929190803573ffffffffffffffffffffffffffffffffffffffff1690602001909291908035906020019092919080359060200190929190803560ff16906020019092919080356000191690602001909291908035600019169060200190929190505050611023565b005b34801561044557600080fd5b506104b060048036038101908080359060200190929190803515159060200190929190803573ffffffffffffffffffffffffffffffffffffffff169060200190929190803573ffffffffffffffffffffffffffffffffffffffff169060200190929190505050611444565b005b3480156104be57600080fd5b506104f3600480360381019080803573ffffffffffffffffffffffffffffffffffffffff169060200190929190505050611577565b005b34801561050157600080fd5b5061050a611619565b604051808273ffffffffffffffffffffffffffffffffffffffff1673ffffffffffffffffffffffffffffffffffffffff16815260200191505060405180910390f35b34801561055857600080fd5b506105a1600480360381019080803573ffffffffffffffffffffffffffffffffffffffff169060200190929190803590602001909291908035906020019092919050505061163f565b6040518082815260200191505060405180910390f35b3480156105c357600080fd5b506105ec6004803603810190808035906020019092919080359060200190929190505050611671565b005b3480156105fa57600080fd5b50610643600480360381019080803573ffffffffffffffffffffffffffffffffffffffff1690602001909291908035906020019092919080359060200190929190505050611a69565b60405180826000191660001916815260200191505060405180910390f35b34801561066d57600080fd5b506106df600480360381019080803573ffffffffffffffffffffffffffffffffffffffff1690602001909291908035906020019092919080359060200190929190803560ff16906020019092919080356000191690602001909291908035600019169060200190929190505050611a9b565b005b60046020528060005260406000206000915054906101000a900473ffffffffffffffffffffffffffffffffffffffff1681565b60006004600087815260200190815260200160002060009054906101000a900473ffffffffffffffffffffffffffffffffffffffff168073ffffffffffffffffffffffffffffffffffffffff163373ffffffffffffffffffffffffffffffffffffffff1614151561078457600080fd5b6000600660008a73ffffffffffffffffffffffffffffffffffffffff1673ffffffffffffffffffffffffffffffffffffffff16815260200190815260200160002060008981526020019081526020016000206000888152602001908152602001600020541115156107f457600080fd5b87600660008a73ffffffffffffffffffffffffffffffffffffffff1673ffffffffffffffffffffffffffffffffffffffff1681526020019081526020016000206000898152602001908152602001600020600088815260200190815260200160002054883089604051602001808673ffffffffffffffffffffffffffffffffffffffff1673ffffffffffffffffffffffffffffffffffffffff166c010000000000000000000000000281526014018581526020018481526020018373ffffffffffffffffffffffffffffffffffffffff1673ffffffffffffffffffffffffffffffffffffffff166c01000000000000000000000000028152601401828152602001955050505050506040516020818303038152906040526040518082805190602001908083835b602083101515610940578051825260208201915060208101905060208303925061091b565b6001836020036101000a038019825116818451168082178552505050505050905001915050604051809103902060001916896000191614151561098257600080fd5b6005600088815260200190815260200160002060009054906101000a900473ffffffffffffffffffffffffffffffffffffffff1673ffffffffffffffffffffffffffffffffffffffff1660016109d78b611cde565b878787604051600081526020016040526040518085600019166000191681526020018460ff1660ff1681526020018360001916600019168152602001826000191660001916815260200194505050505060206040516020810390808403906000865af1158015610a4b573d6000803e3d6000fd5b5050506020604051035173ffffffffffffffffffffffffffffffffffffffff16141515610a7757600080fd5b88858585436040516020018086600019166000191681526020018560ff1660ff167f010000000000000000000000000000000000000000000000000000000000000002815260010184600019166000191681526020018360001916600019168152602001828152602001955050505050506040516020818303038152906040526040518082805190602001908083835b602083101515610b2c5780518252602082019150602081019050602083039250610b07565b6001836020036101000a0380198251168184511680821785525050505050509050019150506040518091039020915081600760008a73ffffffffffffffffffffffffffffffffffffffff1673ffffffffffffffffffffffffffffffffffffffff16815260200190815260200160002060008981526020019081526020016000206000888152602001908152602001600020816000191690555085878973ffffffffffffffffffffffffffffffffffffffff167f80bb5717c57679d58812cf5253ff79f5c5ca49036784b07c11ab96ca68cf4e5488888888604051808560ff1660ff16815260200184600019166000191681526020018360001916600019168152602001826000191660001916815260200194505050505060405180910390a4505050505050505050565b60008060010260001916600760003373ffffffffffffffffffffffffffffffffffffffff1673ffffffffffffffffffffffffffffffffffffffff168152602001908152602001600020600085815260200190815260200160002060008481526020019081526020016000205460001916141515610cd257600080fd5b600660003373ffffffffffffffffffffffffffffffffffffffff1673ffffffffffffffffffffffffffffffffffffffff16815260200190815260200160002060008481526020019081526020016000206000838152602001908152602001600020549050600081111515610d4557600080fd5b6000600660003373ffffffffffffffffffffffffffffffffffffffff1673ffffffffffffffffffffffffffffffffffffffff1681526020019081526020016000206000858152602001908152602001600020600084815260200190815260200160002081905550600260009054906101000a900473ffffffffffffffffffffffffffffffffffffffff1673ffffffffffffffffffffffffffffffffffffffff1663a9059cbb33836040518363ffffffff167c0100000000000000000000000000000000000000000000000000000000028152600401808373ffffffffffffffffffffffffffffffffffffffff1673ffffffffffffffffffffffffffffffffffffffff16815260200182815260200192505050602060405180830381600087803b158015610e7157600080fd5b505af1158015610e85573d6000803e3d6000fd5b505050506040513d6020811015610e9b57600080fd5b81019080805190602001909291905050501515610eb757600080fd5b81833373ffffffffffffffffffffffffffffffffffffffff167f5c3fcedfccc3ba4f95963dda2e42606c4bd47b429f94e736d55a0df9344b0901846040518082815260200191505060405180910390a4505050565b600260009054906101000a900473ffffffffffffffffffffffffffffffffffffffff1681565b60036020528060005260406000206000915054906101000a900460ff1681565b60008054600181600116156101000203166002900480601f016020809104026020016040519081016040528092919081815260200182805460018160011615610100020316600290048015610fe85780601f10610fbd57610100808354040283529160200191610fe8565b820191906000526020600020905b815481529060010190602001808311610fcb57829003601f168201915b505050505081565b60056020528060005260406000206000915054906101000a900473ffffffffffffffffffffffffffffffffffffffff1681565b6004600086815260200190815260200160002060009054906101000a900473ffffffffffffffffffffffffffffffffffffffff168073ffffffffffffffffffffffffffffffffffffffff163373ffffffffffffffffffffffffffffffffffffffff1614151561109157600080fd5b6000600660008973ffffffffffffffffffffffffffffffffffffffff1673ffffffffffffffffffffffffffffffffffffffff168152602001908152602001600020600088815260200190815260200160002060008781526020019081526020016000205411151561110157600080fd5b600060010260001916600760008973ffffffffffffffffffffffffffffffffffffffff1673ffffffffffffffffffffffffffffffffffffffff16815260200190815260200160002060008881526020019081526020016000206000878152602001908152602001600020505086863087604051602001808573ffffffffffffffffffffffffffffffffffffffff1673ffffffffffffffffffffffffffffffffffffffff166c010000000000000000000000000281526014018481526020018373ffffffffffffffffffffffffffffffffffffffff1673ffffffffffffffffffffffffffffffffffffffff166c010000000000000000000000000281526014018281526020019450505050506040516020818303038152906040526040518082805190602001908083835b602083101515611250578051825260208201915060208101905060208303925061122b565b6001836020036101000a038019825116818451168082178552505050505050905001915050604051809103902060001916886000191614151561129257600080fd5b6005600087815260200190815260200160002060009054906101000a900473ffffffffffffffffffffffffffffffffffffffff1673ffffffffffffffffffffffffffffffffffffffff1660016112e78a611cde565b868686604051600081526020016040526040518085600019166000191681526020018460ff1660ff1681526020018360001916600019168152602001826000191660001916815260200194505050505060206040516020810390808403906000865af115801561135b573d6000803e3d6000fd5b5050506020604051035173ffffffffffffffffffffffffffffffffffffffff1614151561138757600080fd5b6000600102600760008973ffffffffffffffffffffffffffffffffffffffff1673ffffffffffffffffffffffffffffffffffffffff16815260200190815260200160002060008881526020019081526020016000206000878152602001908152602001600020816000191690555084868873ffffffffffffffffffffffffffffffffffffffff167f225b90b6d5006918141e767082c78d93fd29b75ded443f230cc4ff042ff388a360405160405180910390a45050505050505050565b600160009054906101000a900473ffffffffffffffffffffffffffffffffffffffff168073ffffffffffffffffffffffffffffffffffffffff163373ffffffffffffffffffffffffffffffffffffffff161415156114a157600080fd5b836003600087815260200190815260200160002060006101000a81548160ff021916908315150217905550826004600087815260200190815260200160002060006101000a81548173ffffffffffffffffffffffffffffffffffffffff021916908373ffffffffffffffffffffffffffffffffffffffff160217905550816005600087815260200190815260200160002060006101000a81548173ffffffffffffffffffffffffffffffffffffffff021916908373ffffffffffffffffffffffffffffffffffffffff1602179055505050505050565b600160009054906101000a900473ffffffffffffffffffffffffffffffffffffffff168073ffffffffffffffffffffffffffffffffffffffff163373ffffffffffffffffffffffffffffffffffffffff161415156115d457600080fd5b81600160006101000a81548173ffffffffffffffffffffffffffffffffffffffff021916908373ffffffffffffffffffffffffffffffffffffffff1602179055505050565b600160009054906101000a900473ffffffffffffffffffffffffffffffffffffffff1681565b600660205282600052604060002060205281600052604060002060205280600052604060002060009250925050505481565b6003600082815260200190815260200160002060009054906101000a900460ff16151561169d57600080fd5b6004600082815260200190815260200160002060009054906101000a900473ffffffffffffffffffffffffffffffffffffffff1673ffffffffffffffffffffffffffffffffffffffff163373ffffffffffffffffffffffffffffffffffffffff161415151561170b57600080fd5b6005600082815260200190815260200160002060009054906101000a900473ffffffffffffffffffffffffffffffffffffffff1673ffffffffffffffffffffffffffffffffffffffff163373ffffffffffffffffffffffffffffffffffffffff161415151561177957600080fd5b60008211151561178857600080fd5b6000600660003373ffffffffffffffffffffffffffffffffffffffff1673ffffffffffffffffffffffffffffffffffffffff16815260200190815260200160002060008381526020019081526020016000206000438152602001908152602001600020541415156117f857600080fd5b600060010260001916600760003373ffffffffffffffffffffffffffffffffffffffff1673ffffffffffffffffffffffffffffffffffffffff16815260200190815260200160002060008381526020019081526020016000206000438152602001908152602001600020546000191614151561187057fe5b600260009054906101000a900473ffffffffffffffffffffffffffffffffffffffff1673ffffffffffffffffffffffffffffffffffffffff166323b872dd3330856040518463ffffffff167c0100000000000000000000000000000000000000000000000000000000028152600401808473ffffffffffffffffffffffffffffffffffffffff1673ffffffffffffffffffffffffffffffffffffffff1681526020018373ffffffffffffffffffffffffffffffffffffffff1673ffffffffffffffffffffffffffffffffffffffff1681526020018281526020019350505050602060405180830381600087803b15801561196957600080fd5b505af115801561197d573d6000803e3d6000fd5b505050506040513d602081101561199357600080fd5b810190808051906020019092919050505015156119af57600080fd5b43813373ffffffffffffffffffffffffffffffffffffffff167fb2816efd983a16c1956e5cb09cb339623045207cc64feed456429081a39f8169856040518082815260200191505060405180910390a481600660003373ffffffffffffffffffffffffffffffffffffffff1673ffffffffffffffffffffffffffffffffffffffff16815260200190815260200160002060008381526020019081526020016000206000438152602001908152602001600020819055505050565b600760205282600052604060002060205281600052604060002060205280600052604060002060009250925050505481565b6004600086815260200190815260200160002060009054906101000a900473ffffffffffffffffffffffffffffffffffffffff168073ffffffffffffffffffffffffffffffffffffffff163373ffffffffffffffffffffffffffffffffffffffff16141515611b0957600080fd5b6004600087815260200190815260200160002060009054906101000a900473ffffffffffffffffffffffffffffffffffffffff1673ffffffffffffffffffffffffffffffffffffffff166001611bbf600760008b73ffffffffffffffffffffffffffffffffffffffff1673ffffffffffffffffffffffffffffffffffffffff16815260200190815260200160002060008a8152602001908152602001600020600089815260200190815260200160002054611cde565b868686604051600081526020016040526040518085600019166000191681526020018460ff1660ff1681526020018360001916600019168152602001826000191660001916815260200194505050505060206040516020810390808403906000865af1158015611c33573d6000803e3d6000fd5b5050506020604051035173ffffffffffffffffffffffffffffffffffffffff16141515611c5f57600080fd5b84868873ffffffffffffffffffffffffffffffffffffffff167f5fedfea7a28bfbde47a4b05c1839a1ad02be830c20465401e87de0531a104545878787604051808460ff1660ff16815260200183600019166000191681526020018260001916600019168152602001935050505060405180910390a450505050505050565b6000611ce982611e0c565b60405160200180807f19457468657265756d205369676e6564204d6573736167653a0a37364272696481526020017f6765206663743a2000000000000000000000000000000000000000000000000081525060280182805190602001908083835b602083101515611d6f5780518252602082019150602081019050602083039250611d4a565b6001836020036101000a0380198251168184511680821785525050505050509050019150506040516020818303038152906040526040518082805190602001908083835b602083101515611dd85780518252602082019150602081019050602083039250611db3565b6001836020036101000a03801982511681845116808217855250505050505090500191505060405180910390209050919050565b6060806060806000604080519080825280601f01601f191660200182016040528015611e475781602001602082028038833980820191505090505b5093506040805190810160405280601081526020017f30313233343536373839616263646566000000000000000000000000000000008152509250829150600090505b60208160ff1610156121005781600460f07f010000000000000000000000000000000000000000000000000000000000000002888460ff16602081101515611ece57fe5b1a7f010000000000000000000000000000000000000000000000000000000000000002167effffffffffffffffffffffffffffffffffffffffffffffffffffffffffffff19169060020a90047f01000000000000000000000000000000000000000000000000000000000000009004815181101515611f4957fe5b9060200101517f010000000000000000000000000000000000000000000000000000000000000090047f010000000000000000000000000000000000000000000000000000000000000002846002830260ff16815181101515611fa857fe5b9060200101907effffffffffffffffffffffffffffffffffffffffffffffffffffffffffffff1916908160001a90535081600f7f010000000000000000000000000000000000000000000000000000000000000002878360ff1660208110151561200e57fe5b1a7f010000000000000000000000000000000000000000000000000000000000000002167f0100000000000000000000000000000000000000000000000000000000000000900481518110151561206157fe5b9060200101517f010000000000000000000000000000000000000000000000000000000000000090047f010000000000000000000000000000000000000000000000000000000000000002846001600284020160ff168151811015156120c357fe5b9060200101907effffffffffffffffffffffffffffffffffffffffffffffffffffffffffffff1916908160001a9053508080600101915050611e8a565b839450505050509190505600a165627a7a72305820851501cc82aaa6e018f6936bc59c2a4f7600fdfc29b83728af87e95d25f6843e0029",
  "source": "/*\n\n  Bridge to send RGE in other chains (eg POA, ...)\n\n*/\n\npragma solidity ^0.4.24;\n\nimport \"./RGETokenInterface.sol\";\n\ncontract RougeBridge {\n    \n    string public version = 'v0.4';\n    \n    address public owner; \n\n    modifier onlyBy(address _account) {\n        require(msg.sender == _account);\n        _;\n    }\n\n    RGETokenInterface public rge;\n\n    constructor(address _rge) public {\n        owner = msg.sender;\n        rge = RGETokenInterface(_rge); \n    }\n\n    function newOwner(address _account) onlyBy(owner) public {\n        owner = _account;\n    }\n\n    mapping (uint => bool) public isOpen;                  /* is the bridge open for this network */\n    mapping (uint => address) public homeValidator;        /* address to sign on home network */\n    mapping (uint => address) public foreignValidator;     /* address to sign on foreign network */\n\n    function adminBridge(uint _network, bool _flag, address _homeValidator, address _foreignValidator) onlyBy(owner) public {\n        isOpen[_network] = _flag;\n        homeValidator[_network] = _homeValidator;\n        foreignValidator[_network] = _foreignValidator;\n    }\n\n    mapping (address => mapping (uint => mapping (uint => uint256))) public escrow;\n    mapping (address => mapping (uint => mapping (uint => bytes32))) public escrowSeal;\n\n    event BridgeDeposit(address indexed account, uint indexed _network, uint indexed depositBlock, uint256 value);\n\n    /* caller need to approve RGE transfer beforehand */\n    function deposit(uint256 _value, uint _network) public {\n        require(isOpen[_network]);\n        require(msg.sender != homeValidator[_network]);\n        require(msg.sender != foreignValidator[_network]);\n        require(_value > 0);                                         \n        require(escrow[msg.sender][_network][block.number] == 0);         // only 1 deposit per user/network/block maximum\n        assert(escrowSeal[msg.sender][_network][block.number] == bytes32(0));        // there can't be seal already, but let's double check\n        require(rge.transferFrom(msg.sender, this, _value));              // transfer tokens to this home bridge contract\n        emit BridgeDeposit(msg.sender, _network, block.number, _value);\n        escrow[msg.sender][_network][block.number] = _value;\n    }\n\n    event BridgeWithdraw(address indexed account, uint indexed _network, uint indexed depositBlock, uint256 value);\n\n    function withdraw(uint _network, uint _depositBlock) public {\n        require(escrowSeal[msg.sender][_network][_depositBlock] == bytes32(0));  // can't withdraw tokens locked with seal\n        uint256 _value = escrow[msg.sender][_network][_depositBlock];\n        require(_value > 0);                                              // tokens should still be in escrow\n        escrow[msg.sender][_network][_depositBlock] = 0;\n        require(rge.transfer(msg.sender, _value));                        // transfer back tokens to sender\n        emit BridgeWithdraw(msg.sender, _network, _depositBlock, _value);\n    }\n\n    function getHexString(bytes32 value) internal pure returns (string) {\n        bytes memory result = new bytes(64);\n        string memory characterString = \"0123456789abcdef\";\n        bytes memory characters = bytes(characterString);\n        for (uint8 i = 0; i < 32; i++) {\n            result[i * 2] = characters[uint256((value[i] & 0xF0) >> 4)];\n            result[i * 2 + 1] = characters[uint256(value[i] & 0xF)];\n        }\n        return string(result);\n    }\n\n    function prefixed(bytes32 _hash) internal pure returns (bytes32) {\n        return keccak256(abi.encodePacked(\"\\x19Ethereum Signed Message:\\n76Bridge fct: \", getHexString(_hash)));\n    }\n    \n\n    // Calculating the seal and locking the deposit (foreign authority needs to undersign this)\n\n    event EscrowLocked(address indexed account, uint indexed _network, uint indexed depositBlock, uint8 v, bytes32 r, bytes32 s, bytes32 sealHash);\n\n    function lockEscrow(bytes32 _hash, address _account, uint _network, uint _depositBlock, uint8 v, bytes32 r, bytes32 s)\n        onlyBy(homeValidator[_network]) public {\n        require(escrow[_account][_network][_depositBlock] > 0);                              // do not work for nothing\n        require(_hash == keccak256(abi.encodePacked(\n                         _account, escrow[_account][_network][_depositBlock], _network, this, _depositBlock)));\n        require(ecrecover(prefixed(_hash), v, r, s) == foreignValidator[_network]);          // confirms that foreign authority has undersigned the tokens Locking\n        bytes32 sealHash = keccak256(abi.encodePacked(_hash, v, r, s, block.number));\n        escrowSeal[_account][_network][_depositBlock] = sealHash;\n        emit EscrowLocked(_account, _network, _depositBlock, v, r, s, sealHash);\n    }   \n\n    // The seal needs to be signed again by RGE bridge validator to be used as authorization to claim token in foreign chain\n    // The user can claim the bridged tokens as soon as the authorization is visible on the main blockchain (via LOGS)\n    // (it's ok if the claiming tx comes before the authorization tx)\n\n    event BridgeAuth(address indexed account, uint indexed _network, uint indexed depositBlock, uint8 v, bytes32 r, bytes32 s);\n\n    function createAuth(address _account, uint _network, uint _depositBlock, uint8 v, bytes32 r, bytes32 s)\n        onlyBy(homeValidator[_network]) public {\n        require(ecrecover(prefixed(escrowSeal[_account][_network][_depositBlock]), v, r, s) == homeValidator[_network]);\n        emit BridgeAuth(_account, _network, _depositBlock, v, r, s);\n    }   \n\n    event EscrowUnlocked(address indexed account, uint indexed _network, uint indexed depositBlock);\n\n    function unlockEscrow(bytes32 _hash, address _account, uint _network, uint _depositBlock, uint8 v, bytes32 r, bytes32 s)\n        onlyBy(homeValidator[_network]) public {\n        require(escrow[_account][_network][_depositBlock] > 0);\n        escrowSeal[_account][_network][_depositBlock] != bytes32(0);              // seal should exist\n        require(_hash == keccak256(abi.encodePacked(_account, _network, this, _depositBlock)));\n        require(ecrecover(prefixed(_hash), v, r, s) == foreignValidator[_network]);\n        escrowSeal[_account][_network][_depositBlock] = bytes32(0);               // remove the seal\n        emit EscrowUnlocked(_account, _network, _depositBlock);\n    }\n\n}\n",
  "sourcePath": "/home/clb/notes/rouge/repositories/rge/protocol/contracts/RougeBridge.sol",
  "compiler": {
    "name": "solc",
    "version": "0.4.24+commit.e67f0147.Emscripten.clang"
  },
  "schemaVersion": "2.0.1",
  "updatedAt": "2018-08-28T02:06:16.539Z"
}