{
  "contractName": "RougeFactory",
  "abi": [
    {
      "constant": true,
      "inputs": [
        {
          "name": "index",
          "type": "uint256"
        }
      ],
      "name": "get_mycampaign",
      "outputs": [
        {
          "name": "",
          "type": "address"
        }
      ],
      "payable": false,
      "stateMutability": "view",
      "type": "function"
    },
    {
      "constant": true,
      "inputs": [
        {
          "name": "issuer",
          "type": "address"
        }
      ],
      "name": "get_last_campaign",
      "outputs": [
        {
          "name": "",
          "type": "address"
        }
      ],
      "payable": false,
      "stateMutability": "view",
      "type": "function"
    },
    {
      "constant": true,
      "inputs": [
        {
          "name": "index",
          "type": "uint256"
        }
      ],
      "name": "get_all_campaign",
      "outputs": [
        {
          "name": "",
          "type": "address"
        }
      ],
      "payable": false,
      "stateMutability": "view",
      "type": "function"
    },
    {
      "constant": true,
      "inputs": [
        {
          "name": "issuer",
          "type": "address"
        }
      ],
      "name": "get_count",
      "outputs": [
        {
          "name": "count",
          "type": "uint256"
        }
      ],
      "payable": false,
      "stateMutability": "view",
      "type": "function"
    },
    {
      "constant": true,
      "inputs": [],
      "name": "rge",
      "outputs": [
        {
          "name": "",
          "type": "address"
        }
      ],
      "payable": false,
      "stateMutability": "view",
      "type": "function"
    },
    {
      "constant": true,
      "inputs": [],
      "name": "version",
      "outputs": [
        {
          "name": "",
          "type": "string"
        }
      ],
      "payable": false,
      "stateMutability": "view",
      "type": "function"
    },
    {
      "constant": true,
      "inputs": [
        {
          "name": "",
          "type": "address"
        }
      ],
      "name": "is_campaign",
      "outputs": [
        {
          "name": "",
          "type": "bool"
        }
      ],
      "payable": false,
      "stateMutability": "view",
      "type": "function"
    },
    {
      "constant": true,
      "inputs": [
        {
          "name": "",
          "type": "address"
        }
      ],
      "name": "is_issuer",
      "outputs": [
        {
          "name": "",
          "type": "bool"
        }
      ],
      "payable": false,
      "stateMutability": "view",
      "type": "function"
    },
    {
      "constant": true,
      "inputs": [],
      "name": "get_mycount",
      "outputs": [
        {
          "name": "count",
          "type": "uint256"
        }
      ],
      "payable": false,
      "stateMutability": "view",
      "type": "function"
    },
    {
      "constant": true,
      "inputs": [
        {
          "name": "",
          "type": "address"
        }
      ],
      "name": "campaign_index",
      "outputs": [
        {
          "name": "",
          "type": "uint256"
        }
      ],
      "payable": false,
      "stateMutability": "view",
      "type": "function"
    },
    {
      "constant": true,
      "inputs": [],
      "name": "get_all_count",
      "outputs": [
        {
          "name": "count",
          "type": "uint256"
        }
      ],
      "payable": false,
      "stateMutability": "view",
      "type": "function"
    },
    {
      "constant": true,
      "inputs": [],
      "name": "tare",
      "outputs": [
        {
          "name": "",
          "type": "uint256"
        }
      ],
      "payable": false,
      "stateMutability": "view",
      "type": "function"
    },
    {
      "constant": true,
      "inputs": [
        {
          "name": "issuer",
          "type": "address"
        },
        {
          "name": "index",
          "type": "uint256"
        }
      ],
      "name": "get_campaign",
      "outputs": [
        {
          "name": "",
          "type": "address"
        }
      ],
      "payable": false,
      "stateMutability": "view",
      "type": "function"
    },
    {
      "inputs": [],
      "payable": false,
      "stateMutability": "nonpayable",
      "type": "constructor"
    },
    {
      "anonymous": false,
      "inputs": [
        {
          "indexed": true,
          "name": "_rge",
          "type": "address"
        },
        {
          "indexed": false,
          "name": "_tare",
          "type": "uint256"
        }
      ],
      "name": "SetFactory",
      "type": "event"
    },
    {
      "anonymous": false,
      "inputs": [
        {
          "indexed": true,
          "name": "issuer",
          "type": "address"
        },
        {
          "indexed": true,
          "name": "campaign",
          "type": "address"
        },
        {
          "indexed": false,
          "name": "issuance",
          "type": "uint32"
        }
      ],
      "name": "NewCampaign",
      "type": "event"
    },
    {
      "constant": false,
      "inputs": [
        {
          "name": "_rge",
          "type": "address"
        },
        {
          "name": "_tare",
          "type": "uint256"
        }
      ],
      "name": "setParams",
      "outputs": [],
      "payable": false,
      "stateMutability": "nonpayable",
      "type": "function"
    },
    {
      "constant": false,
      "inputs": [
        {
          "name": "_issuer",
          "type": "address"
        },
        {
          "name": "_issuance",
          "type": "uint32"
        },
        {
          "name": "_tokens",
          "type": "uint256"
        }
      ],
      "name": "createCampaign",
      "outputs": [],
      "payable": false,
      "stateMutability": "nonpayable",
      "type": "function"
    }
  ],
  "bytecode": "0x60806040526040805190810160405280600681526020017f302e31362e3000000000000000000000000000000000000000000000000000008152506006908051906020019062000051929190620000a7565b503480156200005f57600080fd5b5033600960006101000a81548173ffffffffffffffffffffffffffffffffffffffff021916908373ffffffffffffffffffffffffffffffffffffffff16021790555062000156565b828054600181600116156101000203166002900490600052602060002090601f016020900481019282601f10620000ea57805160ff19168380011785556200011b565b828001600101855582156200011b579182015b828111156200011a578251825591602001919060010190620000fd565b5b5090506200012a91906200012e565b5090565b6200015391905b808211156200014f57600081600090555060010162000135565b5090565b90565b61603080620001666000396000f300608060405260043610620000eb576000357c0100000000000000000000000000000000000000000000000000000000900463ffffffff16806301f8eefc14620000f057806303b275ae146200016057806336f350eb14620001c0578063397e6a9b14620002465780633f09d07814620002b6578063497ce71f146200031057806354fd4d50146200036a5780637a446d541462000400578063ac2ab212146200045e578063b1097a2c14620004bc578063c3c4b909146200050c578063c8a0df9f146200053a578063e018132c1462000594578063e3b69af014620005c2578063e75de7c614620005f0575b600080fd5b348015620000fd57600080fd5b506200011e6004803603810190808035906020019092919050505062000680565b604051808273ffffffffffffffffffffffffffffffffffffffff1673ffffffffffffffffffffffffffffffffffffffff16815260200191505060405180910390f35b3480156200016d57600080fd5b50620001be600480360381019080803573ffffffffffffffffffffffffffffffffffffffff169060200190929190803563ffffffff1690602001909291908035906020019092919050505062000701565b005b348015620001cd57600080fd5b5062000204600480360381019080803573ffffffffffffffffffffffffffffffffffffffff169060200190929190505050620009fb565b604051808273ffffffffffffffffffffffffffffffffffffffff1673ffffffffffffffffffffffffffffffffffffffff16815260200191505060405180910390f35b3480156200025357600080fd5b50620002746004803603810190808035906020019092919050505062000ac1565b604051808273ffffffffffffffffffffffffffffffffffffffff1673ffffffffffffffffffffffffffffffffffffffff16815260200191505060405180910390f35b348015620002c357600080fd5b50620002fa600480360381019080803573ffffffffffffffffffffffffffffffffffffffff16906020019092919050505062000b05565b6040518082815260200191505060405180910390f35b3480156200031d57600080fd5b506200032862000b51565b604051808273ffffffffffffffffffffffffffffffffffffffff1673ffffffffffffffffffffffffffffffffffffffff16815260200191505060405180910390f35b3480156200037757600080fd5b506200038262000b77565b6040518080602001828103825283818151815260200191508051906020019080838360005b83811015620003c4578082015181840152602081019050620003a7565b50505050905090810190601f168015620003f25780820380516001836020036101000a031916815260200191505b509250505060405180910390f35b3480156200040d57600080fd5b5062000444600480360381019080803573ffffffffffffffffffffffffffffffffffffffff16906020019092919050505062000c19565b604051808215151515815260200191505060405180910390f35b3480156200046b57600080fd5b50620004a2600480360381019080803573ffffffffffffffffffffffffffffffffffffffff16906020019092919050505062000c39565b604051808215151515815260200191505060405180910390f35b348015620004c957600080fd5b506200050a600480360381019080803573ffffffffffffffffffffffffffffffffffffffff1690602001909291908035906020019092919050505062000c59565b005b3480156200051957600080fd5b506200052462000d54565b6040518082815260200191505060405180910390f35b3480156200054757600080fd5b506200057e600480360381019080803573ffffffffffffffffffffffffffffffffffffffff16906020019092919050505062000d9e565b6040518082815260200191505060405180910390f35b348015620005a157600080fd5b50620005ac62000db6565b6040518082815260200191505060405180910390f35b348015620005cf57600080fd5b50620005da62000dc3565b6040518082815260200191505060405180910390f35b348015620005fd57600080fd5b506200063e600480360381019080803573ffffffffffffffffffffffffffffffffffffffff1690602001909291908035906020019092919050505062000dc9565b604051808273ffffffffffffffffffffffffffffffffffffffff1673ffffffffffffffffffffffffffffffffffffffff16815260200191505060405180910390f35b6000600560003373ffffffffffffffffffffffffffffffffffffffff1673ffffffffffffffffffffffffffffffffffffffff16815260200190815260200160002082815481101515620006cf57fe5b9060005260206000200160009054906101000a900473ffffffffffffffffffffffffffffffffffffffff169050919050565b6000600760009054906101000a900473ffffffffffffffffffffffffffffffffffffffff1673ffffffffffffffffffffffffffffffffffffffff163373ffffffffffffffffffffffffffffffffffffffff161415156200076057600080fd5b8383600760009054906101000a900473ffffffffffffffffffffffffffffffffffffffff1660085430620007936200110e565b808673ffffffffffffffffffffffffffffffffffffffff1673ffffffffffffffffffffffffffffffffffffffff1681526020018563ffffffff1663ffffffff1681526020018473ffffffffffffffffffffffffffffffffffffffff1673ffffffffffffffffffffffffffffffffffffffff1681526020018381526020018273ffffffffffffffffffffffffffffffffffffffff1673ffffffffffffffffffffffffffffffffffffffff16815260200195505050505050604051809103906000f08015801562000866573d6000803e3d6000fd5b509050600760009054906101000a900473ffffffffffffffffffffffffffffffffffffffff1673ffffffffffffffffffffffffffffffffffffffff1663a9059cbb82846040518363ffffffff167c0100000000000000000000000000000000000000000000000000000000028152600401808373ffffffffffffffffffffffffffffffffffffffff1673ffffffffffffffffffffffffffffffffffffffff16815260200182815260200192505050602060405180830381600087803b1580156200092f57600080fd5b505af115801562000944573d6000803e3d6000fd5b505050506040513d60208110156200095b57600080fd5b810190808051906020019092919050505015156200097857600080fd5b8073ffffffffffffffffffffffffffffffffffffffff168473ffffffffffffffffffffffffffffffffffffffff167f798fca4db5588d669d44c689c1949dc5566b003ef1d73792336bb11e4614308585604051808263ffffffff1663ffffffff16815260200191505060405180910390a3620009f5848262000e4b565b50505050565b6000600560008373ffffffffffffffffffffffffffffffffffffffff1673ffffffffffffffffffffffffffffffffffffffff1681526020019081526020016000206001600560008573ffffffffffffffffffffffffffffffffffffffff1673ffffffffffffffffffffffffffffffffffffffff168152602001908152602001600020805490500381548110151562000a8f57fe5b9060005260206000200160009054906101000a900473ffffffffffffffffffffffffffffffffffffffff169050919050565b600060018281548110151562000ad357fe5b9060005260206000200160009054906101000a900473ffffffffffffffffffffffffffffffffffffffff169050919050565b6000600560008373ffffffffffffffffffffffffffffffffffffffff1673ffffffffffffffffffffffffffffffffffffffff168152602001908152602001600020805490509050919050565b600760009054906101000a900473ffffffffffffffffffffffffffffffffffffffff1681565b60068054600181600116156101000203166002900480601f01602080910402602001604051908101604052809291908181526020018280546001816001161561010002031660029004801562000c115780601f1062000be55761010080835404028352916020019162000c11565b820191906000526020600020905b81548152906001019060200180831162000bf357829003601f168201915b505050505081565b60036020528060005260406000206000915054906101000a900460ff1681565b60026020528060005260406000206000915054906101000a900460ff1681565b600960009054906101000a900473ffffffffffffffffffffffffffffffffffffffff168073ffffffffffffffffffffffffffffffffffffffff163373ffffffffffffffffffffffffffffffffffffffff1614151562000cb757600080fd5b82600760006101000a81548173ffffffffffffffffffffffffffffffffffffffff021916908373ffffffffffffffffffffffffffffffffffffffff160217905550816008819055508273ffffffffffffffffffffffffffffffffffffffff167f8d95e6b7f3e91dac5f4c8e6bd2ec031e14cb5c8699d0740a9bca228c989124ff6008546040518082815260200191505060405180910390a2505050565b6000600560003373ffffffffffffffffffffffffffffffffffffffff1673ffffffffffffffffffffffffffffffffffffffff16815260200190815260200160002080549050905090565b60046020528060005260406000206000915090505481565b6000600180549050905090565b60085481565b6000600560008473ffffffffffffffffffffffffffffffffffffffff1673ffffffffffffffffffffffffffffffffffffffff1681526020019081526020016000208281548110151562000e1857fe5b9060005260206000200160009054906101000a900473ffffffffffffffffffffffffffffffffffffffff16905092915050565b600260008373ffffffffffffffffffffffffffffffffffffffff1673ffffffffffffffffffffffffffffffffffffffff16815260200190815260200160002060009054906101000a900460ff16151562000f5e576001600260008473ffffffffffffffffffffffffffffffffffffffff1673ffffffffffffffffffffffffffffffffffffffff16815260200190815260200160002060006101000a81548160ff02191690831515021790555060008290806001815401808255809150509060018203906000526020600020016000909192909190916101000a81548173ffffffffffffffffffffffffffffffffffffffff021916908373ffffffffffffffffffffffffffffffffffffffff160217905550505b60018190806001815401808255809150509060018203906000526020600020016000909192909190916101000a81548173ffffffffffffffffffffffffffffffffffffffff021916908373ffffffffffffffffffffffffffffffffffffffff16021790555050600560008373ffffffffffffffffffffffffffffffffffffffff1673ffffffffffffffffffffffffffffffffffffffff1681526020019081526020016000208190806001815401808255809150509060018203906000526020600020016000909192909190916101000a81548173ffffffffffffffffffffffffffffffffffffffff021916908373ffffffffffffffffffffffffffffffffffffffff160217905550506001600360008373ffffffffffffffffffffffffffffffffffffffff1673ffffffffffffffffffffffffffffffffffffffff16815260200190815260200160002060006101000a81548160ff0219169083151502179055506001808054905003600460008373ffffffffffffffffffffffffffffffffffffffff1673ffffffffffffffffffffffffffffffffffffffff168152602001908152602001600020819055505050565b604051614ee5806200112083390190560060806040526040805190810160405280600681526020017f302e31362e300000000000000000000000000000000000000000000000000000815250600090805190602001906200005192919062000334565b506000600660046101000a81548163ffffffff021916908363ffffffff1602179055506000600660086101000a81548163ffffffff021916908363ffffffff16021790555060006006600c6101000a81548163ffffffff021916908363ffffffff160217905550348015620000c557600080fd5b5060405160a08062004ee5833981018060405281019080805190602001909291908051906020019092919080519060200190929190805190602001909291908051906020019092919050505060008463ffffffff161115156200012757600080fd5b84600460006101000a81548173ffffffffffffffffffffffffffffffffffffffff021916908373ffffffffffffffffffffffffffffffffffffffff16021790555083600660006101000a81548163ffffffff021916908363ffffffff16021790555082600160006101000a81548173ffffffffffffffffffffffffffffffffffffffff021916908373ffffffffffffffffffffffffffffffffffffffff1602179055508160038190555080600260006101000a81548173ffffffffffffffffffffffffffffffffffffffff021916908373ffffffffffffffffffffffffffffffffffffffff160217905550600160056000600460009054906101000a900473ffffffffffffffffffffffffffffffffffffffff1673ffffffffffffffffffffffffffffffffffffffff1673ffffffffffffffffffffffffffffffffffffffff16815260200190815260200160002060008060068111156200028457fe5b815260200190815260200160002060006101000a81548160ff021916908315150217905550600460009054906101000a900473ffffffffffffffffffffffffffffffffffffffff1673ffffffffffffffffffffffffffffffffffffffff167f8332902e030e7d71ad771a7a7297c7a55b8ffc171f4cb28ba8ad821ec3d34c446000604051808260068111156200031657fe5b60ff16815260200191505060405180910390a25050505050620003e3565b828054600181600116156101000203166002900490600052602060002090601f016020900481019282601f106200037757805160ff1916838001178555620003a8565b82800160010185558215620003a8579182015b82811115620003a75782518255916020019190600101906200038a565b5b509050620003b79190620003bb565b5090565b620003e091905b80821115620003dc576000816000905550600101620003c2565b5090565b90565b614af280620003f36000396000f3006080604052600436106101cd576000357c0100000000000000000000000000000000000000000000000000000000900463ffffffff16806306fdde03146101d25780630f0128ba14610262578063150b7a02146102af57806318607313146103b45780631865c57d1461040f5780631d1438481461049f57806325a14232146104f657806325bfb0aa1461050057806326d92de9146105925780632972b0f0146105ed5780633194e1cd1461065257806333c364a21461067d5780633494f5c1146106cd57806334f2ebc2146107285780633e5054781461077857806341c0e1b51461083457806348a0d7541461084b578063497ce71f146108825780634b9fc6d5146108d95780634d37d2841461091057806354fd4d50146109ac5780635a9b0b8914610a3c5780637d0876db14610acc5780638518b0ad14610af7578063863623bb14610b605780639a89ca5d14610b97578063bdd4438f14610be4578063bf982da514610c3f578063c45a015514610cd1578063c8534eb014610d28578063db78b67c14610d83578063df355bd414610dde578063e231bff014610de8578063e2db2f5e14610e1f578063e3b69af014610f1e578063ed2d7c1414610f49578063fcf6bdff14610f78575b600080fd5b3480156101de57600080fd5b506101e761100a565b6040518080602001828103825283818151815260200191508051906020019080838360005b8381101561022757808201518184015260208101905061020c565b50505050905090810190601f1680156102545780820380516001836020036101000a031916815260200191505b509250505060405180910390f35b34801561026e57600080fd5b506102ad600480360381019080803573ffffffffffffffffffffffffffffffffffffffff169060200190929190803590602001909291905050506110a8565b005b3480156102bb57600080fd5b50610360600480360381019080803573ffffffffffffffffffffffffffffffffffffffff169060200190929190803573ffffffffffffffffffffffffffffffffffffffff16906020019092919080359060200190929190803590602001908201803590602001908080601f016020809104026020016040519081016040528093929190818152602001838380828437820191505050505050919291929050505061147f565b60405180827bffffffffffffffffffffffffffffffffffffffffffffffffffffffff19167bffffffffffffffffffffffffffffffffffffffffffffffffffffffff1916815260200191505060405180910390f35b3480156103c057600080fd5b506103f5600480360381019080803573ffffffffffffffffffffffffffffffffffffffff169060200190929190505050611603565b604051808215151515815260200191505060405180910390f35b34801561041b57600080fd5b50610424611623565b6040518080602001828103825283818151815260200191508051906020019080838360005b83811015610464578082015181840152602081019050610449565b50505050905090810190601f1680156104915780820380516001836020036101000a031916815260200191505b509250505060405180910390f35b3480156104ab57600080fd5b506104b4611793565b604051808273ffffffffffffffffffffffffffffffffffffffff1673ffffffffffffffffffffffffffffffffffffffff16815260200191505060405180910390f35b6104fe6117b9565b005b34801561050c57600080fd5b506105786004803603810190808035600019169060200190929190803560ff16906020019092919080356000191690602001909291908035600019169060200190929190803573ffffffffffffffffffffffffffffffffffffffff169060200190929190505050611a8d565b604051808215151515815260200191505060405180910390f35b34801561059e57600080fd5b506105d3600480360381019080803573ffffffffffffffffffffffffffffffffffffffff169060200190929190505050611e0f565b604051808215151515815260200191505060405180910390f35b3480156105f957600080fd5b50610638600480360381019080803573ffffffffffffffffffffffffffffffffffffffff16906020019092919080359060200190929190505050611e2f565b604051808215151515815260200191505060405180910390f35b34801561065e57600080fd5b50610667611e5e565b6040518082815260200191505060405180910390f35b34801561068957600080fd5b506106cb600480360381019080803573ffffffffffffffffffffffffffffffffffffffff169060200190929190803560ff169060200190929190505050611e64565b005b3480156106d957600080fd5b5061070e600480360381019080803573ffffffffffffffffffffffffffffffffffffffff16906020019092919050505061201f565b604051808215151515815260200191505060405180910390f35b34801561073457600080fd5b50610776600480360381019080803573ffffffffffffffffffffffffffffffffffffffff169060200190929190803560ff16906020019092919050505061203f565b005b34801561078457600080fd5b506107b9600480360381019080803573ffffffffffffffffffffffffffffffffffffffff1690602001909291905050506121fa565b6040518080602001828103825283818151815260200191508051906020019080838360005b838110156107f95780820151818401526020810190506107de565b50505050905090810190601f1680156108265780820380516001836020036101000a031916815260200191505b509250505060405180910390f35b34801561084057600080fd5b50610849612287565b005b34801561085757600080fd5b506108606127dd565b604051808263ffffffff1663ffffffff16815260200191505060405180910390f35b34801561088e57600080fd5b506108976127f3565b604051808273ffffffffffffffffffffffffffffffffffffffff1673ffffffffffffffffffffffffffffffffffffffff16815260200191505060405180910390f35b3480156108e557600080fd5b506108ee612819565b604051808263ffffffff1663ffffffff16815260200191505060405180910390f35b34801561091c57600080fd5b506109aa60048036038101908080357bffffffffffffffffffffffffffffffffffffffffffffffffffffffff19169060200190929190803590602001908201803590602001908080601f01602080910402602001604051908101604052809392919081815260200183838082843782019150505050505091929192908035906020019092919050505061282f565b005b3480156109b857600080fd5b506109c1612c18565b6040518080602001828103825283818151815260200191508051906020019080838360005b83811015610a015780820151818401526020810190506109e6565b50505050905090810190601f168015610a2e5780820380516001836020036101000a031916815260200191505b509250505060405180910390f35b348015610a4857600080fd5b50610a51612cb6565b6040518080602001828103825283818151815260200191508051906020019080838360005b83811015610a91578082015181840152602081019050610a76565b50505050905090810190601f168015610abe5780820380516001836020036101000a031916815260200191505b509250505060405180910390f35b348015610ad857600080fd5b50610ae1612e11565b6040518082815260200191505060405180910390f35b348015610b0357600080fd5b50610b0c612e17565b60405180827bffffffffffffffffffffffffffffffffffffffffffffffffffffffff19167bffffffffffffffffffffffffffffffffffffffffffffffffffffffff1916815260200191505060405180910390f35b348015610b6c57600080fd5b50610b75612e46565b604051808263ffffffff1663ffffffff16815260200191505060405180910390f35b348015610ba357600080fd5b50610be2600480360381019080803573ffffffffffffffffffffffffffffffffffffffff16906020019092919080359060200190929190505050612e5c565b005b348015610bf057600080fd5b50610c25600480360381019080803573ffffffffffffffffffffffffffffffffffffffff169060200190929190505050613287565b604051808215151515815260200191505060405180910390f35b348015610c4b57600080fd5b50610cb76004803603810190808035600019169060200190929190803560ff16906020019092919080356000191690602001909291908035600019169060200190929190803573ffffffffffffffffffffffffffffffffffffffff1690602001909291905050506133ab565b604051808215151515815260200191505060405180910390f35b348015610cdd57600080fd5b50610ce661372d565b604051808273ffffffffffffffffffffffffffffffffffffffff1673ffffffffffffffffffffffffffffffffffffffff16815260200191505060405180910390f35b348015610d3457600080fd5b50610d69600480360381019080803573ffffffffffffffffffffffffffffffffffffffff169060200190929190505050613753565b604051808215151515815260200191505060405180910390f35b348015610d8f57600080fd5b50610dc4600480360381019080803573ffffffffffffffffffffffffffffffffffffffff169060200190929190505050613806565b604051808215151515815260200191505060405180910390f35b610de661385c565b005b348015610df457600080fd5b50610dfd613a0b565b604051808263ffffffff1663ffffffff16815260200191505060405180910390f35b348015610e2b57600080fd5b50610f1c60048036038101908080357bffffffffffffffffffffffffffffffffffffffffffffffffffffffff19169060200190929190803590602001908201803590602001908080601f016020809104026020016040519081016040528093929190818152602001838380828437820191505050505050919291929080359060200190929190803573ffffffffffffffffffffffffffffffffffffffff16906020019092919080359060200190820180359060200190808060200260200160405190810160405280939291908181526020018383602002808284378201915050505050509192919290505050613a21565b005b348015610f2a57600080fd5b50610f33613a72565b6040518082815260200191505060405180910390f35b348015610f5557600080fd5b50610f5e613a78565b604051808215151515815260200191505060405180910390f35b348015610f8457600080fd5b50610ff0600480360381019080803573ffffffffffffffffffffffffffffffffffffffff1690602001909291908035600019169060200190929190803560ff16906020019092919080356000191690602001909291908035600019169060200190929190505050613a8b565b604051808215151515815260200191505060405180910390f35b600b8054600181600116156101000203166002900480601f0160208091040260200160405190810160405280929190818152602001828054600181600116156101000203166002900480156110a05780601f10611075576101008083540402835291602001916110a0565b820191906000526020600020905b81548152906001019060200180831161108357829003601f168201915b505050505081565b6002600560003373ffffffffffffffffffffffffffffffffffffffff1673ffffffffffffffffffffffffffffffffffffffff16815260200190815260200160002060008060068111156110f757fe5b815260200190815260200160002060009054906101000a900460ff16806111835750600560003373ffffffffffffffffffffffffffffffffffffffff1673ffffffffffffffffffffffffffffffffffffffff168152602001908152602001600020600082600681111561116657fe5b815260200190815260200160002060009054906101000a900460ff165b151561118e57600080fd5b600c60009054906101000a900460ff161515156111aa57600080fd5b600660009054906101000a900463ffffffff1663ffffffff1682101515156111d157600080fd5b600660009054906101000a900463ffffffff1663ffffffff168373ffffffffffffffffffffffffffffffffffffffff166370a08231306040518263ffffffff167c0100000000000000000000000000000000000000000000000000000000028152600401808273ffffffffffffffffffffffffffffffffffffffff1673ffffffffffffffffffffffffffffffffffffffff168152602001915050602060405180830381600087803b15801561128557600080fd5b505af1158015611299573d6000803e3d6000fd5b505050506040513d60208110156112af57600080fd5b8101908080519060200190929190505050101515156112cd57600080fd5b600660009054906101000a900463ffffffff1663ffffffff16600980549050101515156112f957600080fd5b600860606040519081016040528060028081111561131357fe5b81526020018573ffffffffffffffffffffffffffffffffffffffff168152602001600660009054906101000a900463ffffffff1663ffffffff168581151561135757fe5b048152509080600181540180825580915050906001820390600052602060002090600202016000909192909190915060008201518160000160006101000a81548160ff021916908360028111156113aa57fe5b021790555060208201518160000160016101000a81548173ffffffffffffffffffffffffffffffffffffffff021916908373ffffffffffffffffffffffffffffffffffffffff1602179055506040820151816001015550505060028081111561140f57fe5b7f3b01ab54359b1929b0bb45be2427dc4706c7aa1bc568e7fcc4495dd2199033e98484604051808373ffffffffffffffffffffffffffffffffffffffff1673ffffffffffffffffffffffffffffffffffffffff1681526020018281526020019250505060405180910390a2505050565b6000600c60009054906101000a900460ff1615151561149d57600080fd5b7f704acbd78ec3b91be2b9ad500cb94982b7a04f55964ea1a85935fff752ed1e5b85858585604051808573ffffffffffffffffffffffffffffffffffffffff1673ffffffffffffffffffffffffffffffffffffffff1681526020018473ffffffffffffffffffffffffffffffffffffffff1673ffffffffffffffffffffffffffffffffffffffff16815260200183815260200180602001828103825283818151815260200191508051906020019080838360005b8381101561156c578082015181840152602081019050611551565b50505050905090810190601f1680156115995780820380516001836020036101000a031916815260200191505b509550505050505060405180910390a1600983908060018154018082558091505090600182039060005260206000200160009091929091909150555063150b7a027c0100000000000000000000000000000000000000000000000000000000029050949350505050565b600e6020528060005260406000206000915054906101000a900460ff1681565b6060600660009054906101000a900463ffffffff16600c60009054906101000a900460ff16600660049054906101000a900463ffffffff16600660089054906101000a900463ffffffff166006600c9054906101000a900463ffffffff16604051602001808663ffffffff1663ffffffff167c010000000000000000000000000000000000000000000000000000000002815260040185151515157f01000000000000000000000000000000000000000000000000000000000000000281526001018463ffffffff1663ffffffff167c01000000000000000000000000000000000000000000000000000000000281526004018363ffffffff1663ffffffff167c01000000000000000000000000000000000000000000000000000000000281526004018263ffffffff1663ffffffff167c010000000000000000000000000000000000000000000000000000000002815260040195505050505050604051602081830303815290604052905090565b600460009054906101000a900473ffffffffffffffffffffffffffffffffffffffff1681565b6002600560003373ffffffffffffffffffffffffffffffffffffffff1673ffffffffffffffffffffffffffffffffffffffff168152602001908152602001600020600080600681111561180857fe5b815260200190815260200160002060009054906101000a900460ff16806118945750600560003373ffffffffffffffffffffffffffffffffffffffff1673ffffffffffffffffffffffffffffffffffffffff168152602001908152602001600020600082600681111561187757fe5b815260200190815260200160002060009054906101000a900460ff165b151561189f57600080fd5b600c60009054906101000a900460ff161515156118bb57600080fd5b600660009054906101000a900463ffffffff1663ffffffff1634101515156118e257600080fd5b6008606060405190810160405280600060028111156118fd57fe5b8152602001600073ffffffffffffffffffffffffffffffffffffffff168152602001600660009054906101000a900463ffffffff1663ffffffff163481151561194257fe5b048152509080600181540180825580915050906001820390600052602060002090600202016000909192909190915060008201518160000160006101000a81548160ff0219169083600281111561199557fe5b021790555060208201518160000160016101000a81548173ffffffffffffffffffffffffffffffffffffffff021916908373ffffffffffffffffffffffffffffffffffffffff16021790555060408201518160010155505050600060028111156119fb57fe5b7f3b01ab54359b1929b0bb45be2427dc4706c7aa1bc568e7fcc4495dd2199033e96000600660009054906101000a900463ffffffff1663ffffffff1634811515611a4157fe5b04604051808373ffffffffffffffffffffffffffffffffffffffff1673ffffffffffffffffffffffffffffffffffffffff1681526020018281526020019250505060405180910390a250565b6000600c60009054906101000a900460ff161515611aaa57600080fd5b600d5442101515611aba57600080fd5b600460009054906101000a900473ffffffffffffffffffffffffffffffffffffffff1673ffffffffffffffffffffffffffffffffffffffff163373ffffffffffffffffffffffffffffffffffffffff1614151515611b1757600080fd5b303360405160200180807f6163636570744163717569736974696f6e0000000000000000000000000000008152506011018373ffffffffffffffffffffffffffffffffffffffff1673ffffffffffffffffffffffffffffffffffffffff166c010000000000000000000000000281526014018273ffffffffffffffffffffffffffffffffffffffff1673ffffffffffffffffffffffffffffffffffffffff166c01000000000000000000000000028152601401925050506040516020818303038152906040526040518082805190602001908083835b602083101515611c125780518252602082019150602081019050602083039250611bed565b6001836020036101000a0380198251168184511680821785525050505050509050019150506040518091039020600019168660001916141515611c5457600080fd5b600560008373ffffffffffffffffffffffffffffffffffffffff1673ffffffffffffffffffffffffffffffffffffffff1681526020019081526020016000206000806006811115611ca157fe5b815260200190815260200160002060009054906101000a900460ff1680611d2e5750600560008373ffffffffffffffffffffffffffffffffffffffff1673ffffffffffffffffffffffffffffffffffffffff168152602001908152602001600020600060046006811115611d1157fe5b815260200190815260200160002060009054906101000a900460ff165b1515611d3957600080fd5b8173ffffffffffffffffffffffffffffffffffffffff166001611d5b88613db1565b878787604051600081526020016040526040518085600019166000191681526020018460ff1660ff1681526020018360001916600019168152602001826000191660001916815260200194505050505060206040516020810390808403906000865af1158015611dcf573d6000803e3d6000fd5b5050506020604051035173ffffffffffffffffffffffffffffffffffffffff16141515611dfb57600080fd5b611e0433613edf565b905095945050505050565b60106020528060005260406000206000915054906101000a900460ff1681565b60056020528160005260406000206020528060005260406000206000915091509054906101000a900460ff1681565b60075481565b6001600560003373ffffffffffffffffffffffffffffffffffffffff1673ffffffffffffffffffffffffffffffffffffffff1681526020019081526020016000206000806006811115611eb357fe5b815260200190815260200160002060009054906101000a900460ff1680611f3f5750600560003373ffffffffffffffffffffffffffffffffffffffff1673ffffffffffffffffffffffffffffffffffffffff1681526020019081526020016000206000826006811115611f2257fe5b815260200190815260200160002060009054906101000a900460ff165b1515611f4a57600080fd5b6001600560008573ffffffffffffffffffffffffffffffffffffffff1673ffffffffffffffffffffffffffffffffffffffff1681526020019081526020016000206000846006811115611f9957fe5b815260200190815260200160002060006101000a81548160ff0219169083151502179055508273ffffffffffffffffffffffffffffffffffffffff167f8332902e030e7d71ad771a7a7297c7a55b8ffc171f4cb28ba8ad821ec3d34c44836040518082600681111561200757fe5b60ff16815260200191505060405180910390a2505050565b600f6020528060005260406000206000915054906101000a900460ff1681565b6001600560003373ffffffffffffffffffffffffffffffffffffffff1673ffffffffffffffffffffffffffffffffffffffff168152602001908152602001600020600080600681111561208e57fe5b815260200190815260200160002060009054906101000a900460ff168061211a5750600560003373ffffffffffffffffffffffffffffffffffffffff1673ffffffffffffffffffffffffffffffffffffffff16815260200190815260200160002060008260068111156120fd57fe5b815260200190815260200160002060009054906101000a900460ff165b151561212557600080fd5b6000600560008573ffffffffffffffffffffffffffffffffffffffff1673ffffffffffffffffffffffffffffffffffffffff168152602001908152602001600020600084600681111561217457fe5b815260200190815260200160002060006101000a81548160ff0219169083151502179055508273ffffffffffffffffffffffffffffffffffffffff167fa46bc5c9ecb2df79e22286f1040924248bf2b9104bee5651c88543fab9ca2de483604051808260068111156121e257fe5b60ff16815260200191505060405180910390a2505050565b606061220582613753565b61220e83613806565b6040516020018083151515157f010000000000000000000000000000000000000000000000000000000000000002815260010182151515157f0100000000000000000000000000000000000000000000000000000000000000028152600101925050506040516020818303038152906040529050919050565b60008060006006600560003373ffffffffffffffffffffffffffffffffffffffff1673ffffffffffffffffffffffffffffffffffffffff16815260200190815260200160002060008060068111156122db57fe5b815260200190815260200160002060009054906101000a900460ff16806123675750600560003373ffffffffffffffffffffffffffffffffffffffff1673ffffffffffffffffffffffffffffffffffffffff168152602001908152602001600020600082600681111561234a57fe5b815260200190815260200160002060009054906101000a900460ff165b151561237257600080fd5b600c60009054906101000a900460ff161561248557600160009054906101000a900473ffffffffffffffffffffffffffffffffffffffff1673ffffffffffffffffffffffffffffffffffffffff166342966c686006600c9054906101000a900463ffffffff16600660009054906101000a900463ffffffff160363ffffffff16600354026040518263ffffffff167c010000000000000000000000000000000000000000000000000000000002815260040180828152602001915050602060405180830381600087803b15801561244857600080fd5b505af115801561245c573d6000803e3d6000fd5b505050506040513d602081101561247257600080fd5b8101908080519060200190929190505050505b600093505b60088054905084101561257b57600160028111156124a457fe5b6008858154811015156124b357fe5b906000526020600020906002020160000160009054906101000a900460ff1660028111156124dd57fe5b1415612527576008848154811015156124f257fe5b906000526020600020906002020160000160019054906101000a900473ffffffffffffffffffffffffffffffffffffffff1692505b60028081111561253357fe5b60088581548110151561254257fe5b906000526020600020906002020160000160009054906101000a900460ff16600281111561256c57fe5b5050838060010194505061248a565b600160009054906101000a900473ffffffffffffffffffffffffffffffffffffffff1673ffffffffffffffffffffffffffffffffffffffff166370a08231306040518263ffffffff167c0100000000000000000000000000000000000000000000000000000000028152600401808273ffffffffffffffffffffffffffffffffffffffff1673ffffffffffffffffffffffffffffffffffffffff168152602001915050602060405180830381600087803b15801561263857600080fd5b505af115801561264c573d6000803e3d6000fd5b505050506040513d602081101561266257600080fd5b81019080805190602001909291905050509150600160009054906101000a900473ffffffffffffffffffffffffffffffffffffffff1673ffffffffffffffffffffffffffffffffffffffff1663a9059cbb600460009054906101000a900473ffffffffffffffffffffffffffffffffffffffff16846040518363ffffffff167c0100000000000000000000000000000000000000000000000000000000028152600401808373ffffffffffffffffffffffffffffffffffffffff1673ffffffffffffffffffffffffffffffffffffffff16815260200182815260200192505050602060405180830381600087803b15801561275c57600080fd5b505af1158015612770573d6000803e3d6000fd5b505050506040513d602081101561278657600080fd5b8101908080519060200190929190505050156127d757600460009054906101000a900473ffffffffffffffffffffffffffffffffffffffff1673ffffffffffffffffffffffffffffffffffffffff16ff5b50505050565b600660049054906101000a900463ffffffff1681565b600160009054906101000a900473ffffffffffffffffffffffffffffffffffffffff1681565b600660089054906101000a900463ffffffff1681565b60006003600560003373ffffffffffffffffffffffffffffffffffffffff1673ffffffffffffffffffffffffffffffffffffffff168152602001908152602001600020600080600681111561288057fe5b815260200190815260200160002060009054906101000a900460ff168061290c5750600560003373ffffffffffffffffffffffffffffffffffffffff1673ffffffffffffffffffffffffffffffffffffffff16815260200190815260200160002060008260068111156128ef57fe5b815260200190815260200160002060009054906101000a900460ff165b151561291757600080fd5b600c60009054906101000a900460ff1615151561293357600080fd5b600160009054906101000a900473ffffffffffffffffffffffffffffffffffffffff1673ffffffffffffffffffffffffffffffffffffffff166370a08231306040518263ffffffff167c0100000000000000000000000000000000000000000000000000000000028152600401808273ffffffffffffffffffffffffffffffffffffffff1673ffffffffffffffffffffffffffffffffffffffff168152602001915050602060405180830381600087803b1580156129f057600080fd5b505af1158015612a04573d6000803e3d6000fd5b505050506040513d6020811015612a1a57600080fd5b81019080805190602001909291905050509150600354600660009054906101000a900463ffffffff1663ffffffff16028210151515612a5857600080fd5b6201518042018310151515612a6c57600080fd5b629e340042018311151515612a8057600080fd5b83600b9080519060200190612a969291906149f5565b506001600c60006101000a81548160ff02191690831515021790555082600d81905550600660009054906101000a900463ffffffff16600660046101000a81548163ffffffff021916908363ffffffff16021790555084600a60006101000a81548163ffffffff02191690837c0100000000000000000000000000000000000000000000000000000000900402179055507f61d7bd1b44357bca3ed4bd238fec71f1710af7c589ab829be7f3be96caa6c5eb85858560405180847bffffffffffffffffffffffffffffffffffffffffffffffffffffffff19167bffffffffffffffffffffffffffffffffffffffffffffffffffffffff1916815260200180602001838152602001828103825284818151815260200191508051906020019080838360005b83811015612bd5578082015181840152602081019050612bba565b50505050905090810190601f168015612c025780820380516001836020036101000a031916815260200191505b5094505050505060405180910390a15050505050565b60008054600181600116156101000203166002900480601f016020809104026020016040519081016040528092919081815260200182805460018160011615610100020316600290048015612cae5780601f10612c8357610100808354040283529160200191612cae565b820191906000526020600020905b815481529060010190602001808311612c9157829003601f168201915b505050505081565b6060600460009054906101000a900473ffffffffffffffffffffffffffffffffffffffff16600a60009054906101000a90047c010000000000000000000000000000000000000000000000000000000002600d54600b604051602001808573ffffffffffffffffffffffffffffffffffffffff1673ffffffffffffffffffffffffffffffffffffffff166c01000000000000000000000000028152601401847bffffffffffffffffffffffffffffffffffffffffffffffffffffffff19167bffffffffffffffffffffffffffffffffffffffffffffffffffffffff1916815260040183815260200182805460018160011615610100020316600290048015612df55780601f10612dd3576101008083540402835291820191612df5565b820191906000526020600020905b815481529060010190602001808311612de1575b5050945050505050604051602081830303815290604052905090565b600d5481565b600a60009054906101000a90047c01000000000000000000000000000000000000000000000000000000000281565b600660009054906101000a900463ffffffff1681565b6002600560003373ffffffffffffffffffffffffffffffffffffffff1673ffffffffffffffffffffffffffffffffffffffff1681526020019081526020016000206000806006811115612eab57fe5b815260200190815260200160002060009054906101000a900460ff1680612f375750600560003373ffffffffffffffffffffffffffffffffffffffff1673ffffffffffffffffffffffffffffffffffffffff1681526020019081526020016000206000826006811115612f1a57fe5b815260200190815260200160002060009054906101000a900460ff165b1515612f4257600080fd5b600c60009054906101000a900460ff16151515612f5e57600080fd5b600660009054906101000a900463ffffffff1663ffffffff168210151515612f8557600080fd5b8273ffffffffffffffffffffffffffffffffffffffff166323b872dd3330856040518463ffffffff167c0100000000000000000000000000000000000000000000000000000000028152600401808473ffffffffffffffffffffffffffffffffffffffff1673ffffffffffffffffffffffffffffffffffffffff1681526020018373ffffffffffffffffffffffffffffffffffffffff1673ffffffffffffffffffffffffffffffffffffffff1681526020018281526020019350505050602060405180830381600087803b15801561305c57600080fd5b505af1158015613070573d6000803e3d6000fd5b505050506040513d602081101561308657600080fd5b810190808051906020019092919050505015156130a257600080fd5b8273ffffffffffffffffffffffffffffffffffffffff16600160009054906101000a900473ffffffffffffffffffffffffffffffffffffffff1673ffffffffffffffffffffffffffffffffffffffff16141515156130ff57600080fd5b60086060604051908101604052806001600281111561311a57fe5b81526020018573ffffffffffffffffffffffffffffffffffffffff168152602001600660009054906101000a900463ffffffff1663ffffffff168581151561315e57fe5b048152509080600181540180825580915050906001820390600052602060002090600202016000909192909190915060008201518160000160006101000a81548160ff021916908360028111156131b157fe5b021790555060208201518160000160016101000a81548173ffffffffffffffffffffffffffffffffffffffff021916908373ffffffffffffffffffffffffffffffffffffffff160217905550604082015181600101555050506001600281111561321757fe5b7f3b01ab54359b1929b0bb45be2427dc4706c7aa1bc568e7fcc4495dd2199033e98484604051808373ffffffffffffffffffffffffffffffffffffffff1673ffffffffffffffffffffffffffffffffffffffff1681526020018281526020019250505060405180910390a2505050565b6000600c60009054906101000a900460ff1615156132a457600080fd5b600d54421015156132b457600080fd5b6004600560003373ffffffffffffffffffffffffffffffffffffffff1673ffffffffffffffffffffffffffffffffffffffff168152602001908152602001600020600080600681111561330357fe5b815260200190815260200160002060009054906101000a900460ff168061338f5750600560003373ffffffffffffffffffffffffffffffffffffffff1673ffffffffffffffffffffffffffffffffffffffff168152602001908152602001600020600082600681111561337257fe5b815260200190815260200160002060009054906101000a900460ff165b151561339a57600080fd5b6133a383613edf565b915050919050565b6000600c60009054906101000a900460ff1615156133c857600080fd5b600d54421015156133d857600080fd5b600460009054906101000a900473ffffffffffffffffffffffffffffffffffffffff1673ffffffffffffffffffffffffffffffffffffffff163373ffffffffffffffffffffffffffffffffffffffff161415151561343557600080fd5b303360405160200180807f616363657074526564656d7074696f6e000000000000000000000000000000008152506010018373ffffffffffffffffffffffffffffffffffffffff1673ffffffffffffffffffffffffffffffffffffffff166c010000000000000000000000000281526014018273ffffffffffffffffffffffffffffffffffffffff1673ffffffffffffffffffffffffffffffffffffffff166c01000000000000000000000000028152601401925050506040516020818303038152906040526040518082805190602001908083835b602083101515613530578051825260208201915060208101905060208303925061350b565b6001836020036101000a038019825116818451168082178552505050505050905001915050604051809103902060001916866000191614151561357257600080fd5b600560008373ffffffffffffffffffffffffffffffffffffffff1673ffffffffffffffffffffffffffffffffffffffff16815260200190815260200160002060008060068111156135bf57fe5b815260200190815260200160002060009054906101000a900460ff168061364c5750600560008373ffffffffffffffffffffffffffffffffffffffff1673ffffffffffffffffffffffffffffffffffffffff16815260200190815260200160002060006005600681111561362f57fe5b815260200190815260200160002060009054906101000a900460ff165b151561365757600080fd5b8173ffffffffffffffffffffffffffffffffffffffff16600161367988613db1565b878787604051600081526020016040526040518085600019166000191681526020018460ff1660ff1681526020018360001916600019168152602001826000191660001916815260200194505050505060206040516020810390808403906000865af11580156136ed573d6000803e3d6000fd5b5050506020604051035173ffffffffffffffffffffffffffffffffffffffff1614151561371957600080fd5b61372233614169565b905095945050505050565b600260009054906101000a900473ffffffffffffffffffffffffffffffffffffffff1681565b6000600460009054906101000a900473ffffffffffffffffffffffffffffffffffffffff1673ffffffffffffffffffffffffffffffffffffffff168273ffffffffffffffffffffffffffffffffffffffff16141515156137b257600080fd5b600e60008373ffffffffffffffffffffffffffffffffffffffff1673ffffffffffffffffffffffffffffffffffffffff16815260200190815260200160002060009054906101000a900460ff169050919050565b6000601060008373ffffffffffffffffffffffffffffffffffffffff1673ffffffffffffffffffffffffffffffffffffffff16815260200190815260200160002060009054906101000a900460ff169050919050565b6003600560003373ffffffffffffffffffffffffffffffffffffffff1673ffffffffffffffffffffffffffffffffffffffff16815260200190815260200160002060008060068111156138ab57fe5b815260200190815260200160002060009054906101000a900460ff16806139375750600560003373ffffffffffffffffffffffffffffffffffffffff1673ffffffffffffffffffffffffffffffffffffffff168152602001908152602001600020600082600681111561391a57fe5b815260200190815260200160002060009054906101000a900460ff165b151561394257600080fd5b600c60009054906101000a900460ff1615151561395e57600080fd5b600660009054906101000a900463ffffffff1663ffffffff163411151561398457600080fd5b600660009054906101000a900463ffffffff1663ffffffff16348115156139a757fe5b046007819055507f2d22c62159184c40f93eff076e15180d674b1ffe0f7b2bf1002d6a7e33cbe621600660009054906101000a900463ffffffff1663ffffffff16348115156139f257fe5b046040518082815260200191505060405180910390a150565b6006600c9054906101000a900463ffffffff1681565b6000613a2e86868661282f565b600090505b8151811015613a6a57613a5d838383815181101515613a4e57fe5b90602001906020020151611e64565b8080600101915050613a33565b505050505050565b60035481565b600c60009054906101000a900460ff1681565b6000600c60009054906101000a900460ff161515613aa857600080fd5b600d5442101515613ab857600080fd5b60058060003373ffffffffffffffffffffffffffffffffffffffff1673ffffffffffffffffffffffffffffffffffffffff1681526020019081526020016000206000806006811115613b0657fe5b815260200190815260200160002060009054906101000a900460ff1680613b925750600560003373ffffffffffffffffffffffffffffffffffffffff1673ffffffffffffffffffffffffffffffffffffffff1681526020019081526020016000206000826006811115613b7557fe5b815260200190815260200160002060009054906101000a900460ff165b1515613b9d57600080fd5b308760405160200180807f616363657074526564656d7074696f6e000000000000000000000000000000008152506010018373ffffffffffffffffffffffffffffffffffffffff1673ffffffffffffffffffffffffffffffffffffffff166c010000000000000000000000000281526014018273ffffffffffffffffffffffffffffffffffffffff1673ffffffffffffffffffffffffffffffffffffffff166c01000000000000000000000000028152601401925050506040516020818303038152906040526040518082805190602001908083835b602083101515613c985780518252602082019150602081019050602083039250613c73565b6001836020036101000a0380198251168184511680821785525050505050509050019150506040518091039020600019168660001916141515613cda57600080fd5b8673ffffffffffffffffffffffffffffffffffffffff166001613cfc88613db1565b878787604051600081526020016040526040518085600019166000191681526020018460ff1660ff1681526020018360001916600019168152602001826000191660001916815260200194505050505060206040516020810390808403906000865af1158015613d70573d6000803e3d6000fd5b5050506020604051035173ffffffffffffffffffffffffffffffffffffffff16141515613d9c57600080fd5b613da587614169565b91505095945050505050565b6000613dbc826146f5565b60405160200180807f19457468657265756d205369676e6564204d6573736167653a0a3734526f756781526020017f652049443a20000000000000000000000000000000000000000000000000000081525060260182805190602001908083835b602083101515613e425780518252602082019150602081019050602083039250613e1d565b6001836020036101000a0380198251168184511680821785525050505050509050019150506040516020818303038152906040526040518082805190602001908083835b602083101515613eab5780518252602082019150602081019050602083039250613e86565b6001836020036101000a03801982511681845116808217855250505050505090500191505060405180910390209050919050565b6000600c60009054906101000a900460ff161515613efc57600080fd5b600d5442101515613f0c57600080fd5b600460009054906101000a900473ffffffffffffffffffffffffffffffffffffffff1673ffffffffffffffffffffffffffffffffffffffff168273ffffffffffffffffffffffffffffffffffffffff1614151515613f6957600080fd5b613f7282613753565b151515613f7e57600080fd5b600f60008373ffffffffffffffffffffffffffffffffffffffff1673ffffffffffffffffffffffffffffffffffffffff16815260200190815260200160002060009054906101000a900460ff16151515613fd757600080fd5b6000600660049054906101000a900463ffffffff1663ffffffff16111561415f576001600660048282829054906101000a900463ffffffff160392506101000a81548163ffffffff021916908363ffffffff1602179055506001600660088282829054906101000a900463ffffffff160192506101000a81548163ffffffff021916908363ffffffff1602179055506001600e60008473ffffffffffffffffffffffffffffffffffffffff1673ffffffffffffffffffffffffffffffffffffffff16815260200190815260200160002060006101000a81548160ff02191690831515021790555060006007541115614113578173ffffffffffffffffffffffffffffffffffffffff166108fc6007549081150290604051600060405180830381858888f19350505050158015614111573d6000803e3d6000fd5b505b8173ffffffffffffffffffffffffffffffffffffffff167f85fe2fd3c542195c3939050abf878214a46a36576a104333738ca3238e1269fd60405160405180910390a260019050614164565b600090505b919050565b6000806000806000600c60009054906101000a900460ff16151561418c57600080fd5b600d544210151561419c57600080fd5b6141a586613753565b15156141b057600080fd5b6141b986613806565b1515156141c557600080fd5b60016006600c8282829054906101000a900463ffffffff160192506101000a81548163ffffffff021916908363ffffffff1602179055506001601060008873ffffffffffffffffffffffffffffffffffffffff1673ffffffffffffffffffffffffffffffffffffffff16815260200190815260200160002060006101000a81548160ff021916908315150217905550600093505b6008805490508410156146a5576000600281111561427357fe5b60088581548110151561428257fe5b906000526020600020906002020160000160009054906101000a900460ff1660028111156142ac57fe5b141561431a578573ffffffffffffffffffffffffffffffffffffffff166108fc6008868154811015156142db57fe5b9060005260206000209060020201600101549081150290604051600060405180830381858888f19350505050158015614318573d6000803e3d6000fd5b505b6001600281111561432757fe5b60088581548110151561433657fe5b906000526020600020906002020160000160009054906101000a900460ff16600281111561436057fe5b14156144a95760088481548110151561437557fe5b906000526020600020906002020160000160019054906101000a900473ffffffffffffffffffffffffffffffffffffffff1692508273ffffffffffffffffffffffffffffffffffffffff1663a9059cbb876008878154811015156143d557fe5b9060005260206000209060020201600101546040518363ffffffff167c0100000000000000000000000000000000000000000000000000000000028152600401808373ffffffffffffffffffffffffffffffffffffffff1673ffffffffffffffffffffffffffffffffffffffff16815260200182815260200192505050602060405180830381600087803b15801561446c57600080fd5b505af1158015614480573d6000803e3d6000fd5b505050506040513d602081101561449657600080fd5b8101908080519060200190929190505050505b6002808111156144b557fe5b6008858154811015156144c457fe5b906000526020600020906002020160000160009054906101000a900460ff1660028111156144ee57fe5b14156146985760088481548110151561450357fe5b906000526020600020906002020160000160019054906101000a900473ffffffffffffffffffffffffffffffffffffffff169150600090505b60088481548110151561454b57fe5b906000526020600020906002020160010154811015614697578173ffffffffffffffffffffffffffffffffffffffff166342842e0e3088600960016009805490500381548110151561459957fe5b90600052602060002001546040518463ffffffff167c0100000000000000000000000000000000000000000000000000000000028152600401808473ffffffffffffffffffffffffffffffffffffffff1673ffffffffffffffffffffffffffffffffffffffff1681526020018373ffffffffffffffffffffffffffffffffffffffff1673ffffffffffffffffffffffffffffffffffffffff1681526020018281526020019350505050600060405180830381600087803b15801561465c57600080fd5b505af1158015614670573d6000803e3d6000fd5b5050505060098054809190600190036146899190614a75565b50808060010191505061453c565b5b8380600101945050614259565b8573ffffffffffffffffffffffffffffffffffffffff167fc81d7db1291ca1df0648fae3910546c3480b01d51b078b540c8b32f63b27b46a60405160405180910390a26001945050505050919050565b6060806060806000604080519080825280601f01601f1916602001820160405280156147305781602001602082028038833980820191505090505b5093506040805190810160405280601081526020017f30313233343536373839616263646566000000000000000000000000000000008152509250829150600090505b60208160ff1610156149e95781600460f07f010000000000000000000000000000000000000000000000000000000000000002888460ff166020811015156147b757fe5b1a7f010000000000000000000000000000000000000000000000000000000000000002167effffffffffffffffffffffffffffffffffffffffffffffffffffffffffffff19169060020a90047f0100000000000000000000000000000000000000000000000000000000000000900481518110151561483257fe5b9060200101517f010000000000000000000000000000000000000000000000000000000000000090047f010000000000000000000000000000000000000000000000000000000000000002846002830260ff1681518110151561489157fe5b9060200101907effffffffffffffffffffffffffffffffffffffffffffffffffffffffffffff1916908160001a90535081600f7f010000000000000000000000000000000000000000000000000000000000000002878360ff166020811015156148f757fe5b1a7f010000000000000000000000000000000000000000000000000000000000000002167f0100000000000000000000000000000000000000000000000000000000000000900481518110151561494a57fe5b9060200101517f010000000000000000000000000000000000000000000000000000000000000090047f010000000000000000000000000000000000000000000000000000000000000002846001600284020160ff168151811015156149ac57fe5b9060200101907effffffffffffffffffffffffffffffffffffffffffffffffffffffffffffff1916908160001a9053508080600101915050614773565b83945050505050919050565b828054600181600116156101000203166002900490600052602060002090601f016020900481019282601f10614a3657805160ff1916838001178555614a64565b82800160010185558215614a64579182015b82811115614a63578251825591602001919060010190614a48565b5b509050614a719190614aa1565b5090565b815481835581811115614a9c57818360005260206000209182019101614a9b9190614aa1565b5b505050565b614ac391905b80821115614abf576000816000905550600101614aa7565b5090565b905600a165627a7a72305820d794d3c78135f4b9b1abb718801867766010311ed8004435270871dce6be85c00029a165627a7a7230582086532e8d32b873c5c77488e9e52e3d77fe963471926d61f02d391b069f6e5e860029",
  "source": "/*\n\n  Simple Rouge factory and campaign contracts\n\n*/\n\npragma solidity ^0.4.24;\n\nimport \"./SimpleRougeCampaign.sol\";\n\n// XXX RougeRegistry is temporary helper\n\nimport \"./RougeRegistry.sol\";\n\ncontract RougeFactory is RougeRegistry {\n    \n    string public version = '0.16.0';\n\n    // The Rouge Token contract address\n    RGETokenInterface public rge;\n    uint256 public tare;\n    \n    address owner;\n\n    constructor() public {\n        owner = msg.sender;\n    }\n\n    modifier onlyBy(address _address) {\n        require(msg.sender == _address);\n        _;\n    }\n\n    event SetFactory(address indexed _rge, uint256 _tare);\n\n    function setParams (address _rge, uint256 _tare) onlyBy(owner) public {\n        rge = RGETokenInterface(_rge); \n        tare = _tare;\n        emit SetFactory(_rge, tare);\n    }\n\n    event NewCampaign(address indexed issuer, address indexed campaign, uint32 issuance);\n\n    function createCampaign(address _issuer, uint32 _issuance, uint256 _tokens) public {\n\n        // only rge contract can call createCampaign\n        require(msg.sender == address(rge));\n\n        // TODO create MetaRougeCampaign that also instanciate at issue() call\n        // alternative use _issuance = zero as trigger for CompleRougeCampaign type\n\n        // Campaign = several Notes Set => Campaign issuance = sum of all notes set issuance.\n\n        SimpleRougeCampaign c = new SimpleRougeCampaign(_issuer, _issuance, rge, tare, this);\n\n        // TODO XXX check front running\n        require(rge.transfer(c, _tokens));     // transfer tokens to the campaign contract ...\n\n        emit NewCampaign(_issuer, c, _issuance);\n\n        // XXX beta sugar getters / not stricly necessary with good explorer/indexes...\n        \n        add_campaign(_issuer, c);\n        \n    }\n\n}\n",
  "sourcePath": "/home/clb/notes/rouge/repositories/rge/protocol/contracts/RougeFactory.sol",
  "compiler": {
    "name": "solc",
    "version": "0.4.24+commit.e67f0147.Emscripten.clang"
  },
  "schemaVersion": "2.0.1",
  "updatedAt": "2018-08-28T02:06:16.535Z"
}