{
  "contractName": "SimpleRougeCampaign",
  "abi": [
    {
      "constant": true,
      "inputs": [],
      "name": "name",
      "outputs": [
        {
          "name": "",
          "type": "string"
        }
      ],
      "payable": false,
      "stateMutability": "view",
      "type": "function"
    },
    {
      "constant": true,
      "inputs": [
        {
          "name": "",
          "type": "address"
        }
      ],
      "name": "acquisitionRegister",
      "outputs": [
        {
          "name": "",
          "type": "bool"
        }
      ],
      "payable": false,
      "stateMutability": "view",
      "type": "function"
    },
    {
      "constant": true,
      "inputs": [],
      "name": "issuer",
      "outputs": [
        {
          "name": "",
          "type": "address"
        }
      ],
      "payable": false,
      "stateMutability": "view",
      "type": "function"
    },
    {
      "constant": true,
      "inputs": [
        {
          "name": "",
          "type": "address"
        }
      ],
      "name": "redemptionRegister",
      "outputs": [
        {
          "name": "",
          "type": "bool"
        }
      ],
      "payable": false,
      "stateMutability": "view",
      "type": "function"
    },
    {
      "constant": true,
      "inputs": [
        {
          "name": "",
          "type": "address"
        },
        {
          "name": "",
          "type": "uint256"
        }
      ],
      "name": "isAuthorized",
      "outputs": [
        {
          "name": "",
          "type": "bool"
        }
      ],
      "payable": false,
      "stateMutability": "view",
      "type": "function"
    },
    {
      "constant": true,
      "inputs": [],
      "name": "acquisitionFuelProvision",
      "outputs": [
        {
          "name": "",
          "type": "uint256"
        }
      ],
      "payable": false,
      "stateMutability": "view",
      "type": "function"
    },
    {
      "constant": true,
      "inputs": [
        {
          "name": "",
          "type": "address"
        }
      ],
      "name": "transferRegister",
      "outputs": [
        {
          "name": "",
          "type": "bool"
        }
      ],
      "payable": false,
      "stateMutability": "view",
      "type": "function"
    },
    {
      "constant": true,
      "inputs": [],
      "name": "available",
      "outputs": [
        {
          "name": "",
          "type": "uint32"
        }
      ],
      "payable": false,
      "stateMutability": "view",
      "type": "function"
    },
    {
      "constant": true,
      "inputs": [],
      "name": "rge",
      "outputs": [
        {
          "name": "",
          "type": "address"
        }
      ],
      "payable": false,
      "stateMutability": "view",
      "type": "function"
    },
    {
      "constant": true,
      "inputs": [],
      "name": "acquired",
      "outputs": [
        {
          "name": "",
          "type": "uint32"
        }
      ],
      "payable": false,
      "stateMutability": "view",
      "type": "function"
    },
    {
      "constant": true,
      "inputs": [],
      "name": "version",
      "outputs": [
        {
          "name": "",
          "type": "string"
        }
      ],
      "payable": false,
      "stateMutability": "view",
      "type": "function"
    },
    {
      "constant": true,
      "inputs": [],
      "name": "campaignExpiration",
      "outputs": [
        {
          "name": "",
          "type": "uint256"
        }
      ],
      "payable": false,
      "stateMutability": "view",
      "type": "function"
    },
    {
      "constant": true,
      "inputs": [],
      "name": "scheme",
      "outputs": [
        {
          "name": "",
          "type": "bytes4"
        }
      ],
      "payable": false,
      "stateMutability": "view",
      "type": "function"
    },
    {
      "constant": true,
      "inputs": [],
      "name": "issuance",
      "outputs": [
        {
          "name": "",
          "type": "uint32"
        }
      ],
      "payable": false,
      "stateMutability": "view",
      "type": "function"
    },
    {
      "constant": true,
      "inputs": [],
      "name": "factory",
      "outputs": [
        {
          "name": "",
          "type": "address"
        }
      ],
      "payable": false,
      "stateMutability": "view",
      "type": "function"
    },
    {
      "constant": true,
      "inputs": [],
      "name": "redeemed",
      "outputs": [
        {
          "name": "",
          "type": "uint32"
        }
      ],
      "payable": false,
      "stateMutability": "view",
      "type": "function"
    },
    {
      "constant": true,
      "inputs": [],
      "name": "tare",
      "outputs": [
        {
          "name": "",
          "type": "uint256"
        }
      ],
      "payable": false,
      "stateMutability": "view",
      "type": "function"
    },
    {
      "constant": true,
      "inputs": [],
      "name": "campaignIssued",
      "outputs": [
        {
          "name": "",
          "type": "bool"
        }
      ],
      "payable": false,
      "stateMutability": "view",
      "type": "function"
    },
    {
      "inputs": [
        {
          "name": "_issuer",
          "type": "address"
        },
        {
          "name": "_issuance",
          "type": "uint32"
        },
        {
          "name": "_rge",
          "type": "address"
        },
        {
          "name": "_tare",
          "type": "uint256"
        },
        {
          "name": "_factory",
          "type": "address"
        }
      ],
      "payable": false,
      "stateMutability": "nonpayable",
      "type": "constructor"
    },
    {
      "anonymous": false,
      "inputs": [
        {
          "indexed": true,
          "name": "attestor",
          "type": "address"
        },
        {
          "indexed": false,
          "name": "auth",
          "type": "uint8"
        }
      ],
      "name": "AttestorAddition",
      "type": "event"
    },
    {
      "anonymous": false,
      "inputs": [
        {
          "indexed": true,
          "name": "attestor",
          "type": "address"
        },
        {
          "indexed": false,
          "name": "auth",
          "type": "uint8"
        }
      ],
      "name": "AttestorRemoval",
      "type": "event"
    },
    {
      "anonymous": false,
      "inputs": [
        {
          "indexed": false,
          "name": "_value",
          "type": "uint256"
        }
      ],
      "name": "AcquisitionFuel",
      "type": "event"
    },
    {
      "anonymous": false,
      "inputs": [
        {
          "indexed": true,
          "name": "class",
          "type": "uint8"
        },
        {
          "indexed": false,
          "name": "_contract",
          "type": "address"
        },
        {
          "indexed": false,
          "name": "_value",
          "type": "uint256"
        }
      ],
      "name": "NewAttachment",
      "type": "event"
    },
    {
      "anonymous": false,
      "inputs": [
        {
          "indexed": false,
          "name": "_operator",
          "type": "address"
        },
        {
          "indexed": false,
          "name": "_from",
          "type": "address"
        },
        {
          "indexed": false,
          "name": "_tokenId",
          "type": "uint256"
        },
        {
          "indexed": false,
          "name": "_data",
          "type": "bytes"
        }
      ],
      "name": "ReceivedERC721",
      "type": "event"
    },
    {
      "anonymous": false,
      "inputs": [
        {
          "indexed": false,
          "name": "scheme",
          "type": "bytes4"
        },
        {
          "indexed": false,
          "name": "name",
          "type": "string"
        },
        {
          "indexed": false,
          "name": "campaignExpiration",
          "type": "uint256"
        }
      ],
      "name": "Issuance",
      "type": "event"
    },
    {
      "anonymous": false,
      "inputs": [
        {
          "indexed": true,
          "name": "bearer",
          "type": "address"
        }
      ],
      "name": "Acquisition",
      "type": "event"
    },
    {
      "anonymous": false,
      "inputs": [
        {
          "indexed": true,
          "name": "bearer",
          "type": "address"
        }
      ],
      "name": "Redemption",
      "type": "event"
    },
    {
      "constant": false,
      "inputs": [
        {
          "name": "_attestor",
          "type": "address"
        },
        {
          "name": "_auth",
          "type": "uint8"
        }
      ],
      "name": "addAttestor",
      "outputs": [],
      "payable": false,
      "stateMutability": "nonpayable",
      "type": "function"
    },
    {
      "constant": false,
      "inputs": [
        {
          "name": "_attestor",
          "type": "address"
        },
        {
          "name": "_auth",
          "type": "uint8"
        }
      ],
      "name": "removeAttestor",
      "outputs": [],
      "payable": false,
      "stateMutability": "nonpayable",
      "type": "function"
    },
    {
      "constant": false,
      "inputs": [],
      "name": "setAcquisitionFuelProvision",
      "outputs": [],
      "payable": true,
      "stateMutability": "payable",
      "type": "function"
    },
    {
      "constant": false,
      "inputs": [],
      "name": "attachFuel",
      "outputs": [],
      "payable": true,
      "stateMutability": "payable",
      "type": "function"
    },
    {
      "constant": false,
      "inputs": [
        {
          "name": "_erc20",
          "type": "address"
        },
        {
          "name": "_value",
          "type": "uint256"
        }
      ],
      "name": "attachERC20",
      "outputs": [],
      "payable": false,
      "stateMutability": "nonpayable",
      "type": "function"
    },
    {
      "constant": false,
      "inputs": [
        {
          "name": "_operator",
          "type": "address"
        },
        {
          "name": "_from",
          "type": "address"
        },
        {
          "name": "_tokenId",
          "type": "uint256"
        },
        {
          "name": "_data",
          "type": "bytes"
        }
      ],
      "name": "onERC721Received",
      "outputs": [
        {
          "name": "",
          "type": "bytes4"
        }
      ],
      "payable": false,
      "stateMutability": "nonpayable",
      "type": "function"
    },
    {
      "constant": false,
      "inputs": [
        {
          "name": "_erc721",
          "type": "address"
        },
        {
          "name": "_value",
          "type": "uint256"
        }
      ],
      "name": "attachERC721",
      "outputs": [],
      "payable": false,
      "stateMutability": "nonpayable",
      "type": "function"
    },
    {
      "constant": false,
      "inputs": [
        {
          "name": "_scheme",
          "type": "bytes4"
        },
        {
          "name": "_name",
          "type": "string"
        },
        {
          "name": "_campaignExpiration",
          "type": "uint256"
        }
      ],
      "name": "issue",
      "outputs": [],
      "payable": false,
      "stateMutability": "nonpayable",
      "type": "function"
    },
    {
      "constant": false,
      "inputs": [
        {
          "name": "_scheme",
          "type": "bytes4"
        },
        {
          "name": "_name",
          "type": "string"
        },
        {
          "name": "_campaignExpiration",
          "type": "uint256"
        },
        {
          "name": "_attestor",
          "type": "address"
        },
        {
          "name": "_auths",
          "type": "uint8[]"
        }
      ],
      "name": "issueWithAttestor",
      "outputs": [],
      "payable": false,
      "stateMutability": "nonpayable",
      "type": "function"
    },
    {
      "constant": true,
      "inputs": [],
      "name": "getInfo",
      "outputs": [
        {
          "name": "",
          "type": "bytes"
        }
      ],
      "payable": false,
      "stateMutability": "view",
      "type": "function"
    },
    {
      "constant": true,
      "inputs": [],
      "name": "getState",
      "outputs": [
        {
          "name": "",
          "type": "bytes"
        }
      ],
      "payable": false,
      "stateMutability": "view",
      "type": "function"
    },
    {
      "constant": true,
      "inputs": [
        {
          "name": "_bearer",
          "type": "address"
        }
      ],
      "name": "hasNote",
      "outputs": [
        {
          "name": "yes",
          "type": "bool"
        }
      ],
      "payable": false,
      "stateMutability": "view",
      "type": "function"
    },
    {
      "constant": false,
      "inputs": [
        {
          "name": "_hash",
          "type": "bytes32"
        },
        {
          "name": "v",
          "type": "uint8"
        },
        {
          "name": "r",
          "type": "bytes32"
        },
        {
          "name": "s",
          "type": "bytes32"
        },
        {
          "name": "_attestor",
          "type": "address"
        }
      ],
      "name": "acquire",
      "outputs": [
        {
          "name": "success",
          "type": "bool"
        }
      ],
      "payable": false,
      "stateMutability": "nonpayable",
      "type": "function"
    },
    {
      "constant": false,
      "inputs": [
        {
          "name": "_bearer",
          "type": "address"
        }
      ],
      "name": "distributeNote",
      "outputs": [
        {
          "name": "success",
          "type": "bool"
        }
      ],
      "payable": false,
      "stateMutability": "nonpayable",
      "type": "function"
    },
    {
      "constant": true,
      "inputs": [
        {
          "name": "_bearer",
          "type": "address"
        }
      ],
      "name": "hasRedeemed",
      "outputs": [
        {
          "name": "yes",
          "type": "bool"
        }
      ],
      "payable": false,
      "stateMutability": "view",
      "type": "function"
    },
    {
      "constant": false,
      "inputs": [
        {
          "name": "_hash",
          "type": "bytes32"
        },
        {
          "name": "v",
          "type": "uint8"
        },
        {
          "name": "r",
          "type": "bytes32"
        },
        {
          "name": "s",
          "type": "bytes32"
        },
        {
          "name": "_attestor",
          "type": "address"
        }
      ],
      "name": "redeem",
      "outputs": [
        {
          "name": "success",
          "type": "bool"
        }
      ],
      "payable": false,
      "stateMutability": "nonpayable",
      "type": "function"
    },
    {
      "constant": false,
      "inputs": [
        {
          "name": "_bearer",
          "type": "address"
        },
        {
          "name": "_hash",
          "type": "bytes32"
        },
        {
          "name": "v",
          "type": "uint8"
        },
        {
          "name": "r",
          "type": "bytes32"
        },
        {
          "name": "s",
          "type": "bytes32"
        }
      ],
      "name": "acceptRedemption",
      "outputs": [
        {
          "name": "success",
          "type": "bool"
        }
      ],
      "payable": false,
      "stateMutability": "nonpayable",
      "type": "function"
    },
    {
      "constant": true,
      "inputs": [
        {
          "name": "_bearer",
          "type": "address"
        }
      ],
      "name": "getWorkflow",
      "outputs": [
        {
          "name": "",
          "type": "bytes"
        }
      ],
      "payable": false,
      "stateMutability": "view",
      "type": "function"
    },
    {
      "constant": false,
      "inputs": [],
      "name": "kill",
      "outputs": [],
      "payable": false,
      "stateMutability": "nonpayable",
      "type": "function"
    }
  ],
  "bytecode": "0x60806040526040805190810160405280600681526020017f302e31362e300000000000000000000000000000000000000000000000000000815250600090805190602001906200005192919062000334565b506000600660046101000a81548163ffffffff021916908363ffffffff1602179055506000600660086101000a81548163ffffffff021916908363ffffffff16021790555060006006600c6101000a81548163ffffffff021916908363ffffffff160217905550348015620000c557600080fd5b5060405160a08062004ee5833981018060405281019080805190602001909291908051906020019092919080519060200190929190805190602001909291908051906020019092919050505060008463ffffffff161115156200012757600080fd5b84600460006101000a81548173ffffffffffffffffffffffffffffffffffffffff021916908373ffffffffffffffffffffffffffffffffffffffff16021790555083600660006101000a81548163ffffffff021916908363ffffffff16021790555082600160006101000a81548173ffffffffffffffffffffffffffffffffffffffff021916908373ffffffffffffffffffffffffffffffffffffffff1602179055508160038190555080600260006101000a81548173ffffffffffffffffffffffffffffffffffffffff021916908373ffffffffffffffffffffffffffffffffffffffff160217905550600160056000600460009054906101000a900473ffffffffffffffffffffffffffffffffffffffff1673ffffffffffffffffffffffffffffffffffffffff1673ffffffffffffffffffffffffffffffffffffffff16815260200190815260200160002060008060068111156200028457fe5b815260200190815260200160002060006101000a81548160ff021916908315150217905550600460009054906101000a900473ffffffffffffffffffffffffffffffffffffffff1673ffffffffffffffffffffffffffffffffffffffff167f8332902e030e7d71ad771a7a7297c7a55b8ffc171f4cb28ba8ad821ec3d34c446000604051808260068111156200031657fe5b60ff16815260200191505060405180910390a25050505050620003e3565b828054600181600116156101000203166002900490600052602060002090601f016020900481019282601f106200037757805160ff1916838001178555620003a8565b82800160010185558215620003a8579182015b82811115620003a75782518255916020019190600101906200038a565b5b509050620003b79190620003bb565b5090565b620003e091905b80821115620003dc576000816000905550600101620003c2565b5090565b90565b614af280620003f36000396000f3006080604052600436106101cd576000357c0100000000000000000000000000000000000000000000000000000000900463ffffffff16806306fdde03146101d25780630f0128ba14610262578063150b7a02146102af57806318607313146103b45780631865c57d1461040f5780631d1438481461049f57806325a14232146104f657806325bfb0aa1461050057806326d92de9146105925780632972b0f0146105ed5780633194e1cd1461065257806333c364a21461067d5780633494f5c1146106cd57806334f2ebc2146107285780633e5054781461077857806341c0e1b51461083457806348a0d7541461084b578063497ce71f146108825780634b9fc6d5146108d95780634d37d2841461091057806354fd4d50146109ac5780635a9b0b8914610a3c5780637d0876db14610acc5780638518b0ad14610af7578063863623bb14610b605780639a89ca5d14610b97578063bdd4438f14610be4578063bf982da514610c3f578063c45a015514610cd1578063c8534eb014610d28578063db78b67c14610d83578063df355bd414610dde578063e231bff014610de8578063e2db2f5e14610e1f578063e3b69af014610f1e578063ed2d7c1414610f49578063fcf6bdff14610f78575b600080fd5b3480156101de57600080fd5b506101e761100a565b6040518080602001828103825283818151815260200191508051906020019080838360005b8381101561022757808201518184015260208101905061020c565b50505050905090810190601f1680156102545780820380516001836020036101000a031916815260200191505b509250505060405180910390f35b34801561026e57600080fd5b506102ad600480360381019080803573ffffffffffffffffffffffffffffffffffffffff169060200190929190803590602001909291905050506110a8565b005b3480156102bb57600080fd5b50610360600480360381019080803573ffffffffffffffffffffffffffffffffffffffff169060200190929190803573ffffffffffffffffffffffffffffffffffffffff16906020019092919080359060200190929190803590602001908201803590602001908080601f016020809104026020016040519081016040528093929190818152602001838380828437820191505050505050919291929050505061147f565b60405180827bffffffffffffffffffffffffffffffffffffffffffffffffffffffff19167bffffffffffffffffffffffffffffffffffffffffffffffffffffffff1916815260200191505060405180910390f35b3480156103c057600080fd5b506103f5600480360381019080803573ffffffffffffffffffffffffffffffffffffffff169060200190929190505050611603565b604051808215151515815260200191505060405180910390f35b34801561041b57600080fd5b50610424611623565b6040518080602001828103825283818151815260200191508051906020019080838360005b83811015610464578082015181840152602081019050610449565b50505050905090810190601f1680156104915780820380516001836020036101000a031916815260200191505b509250505060405180910390f35b3480156104ab57600080fd5b506104b4611793565b604051808273ffffffffffffffffffffffffffffffffffffffff1673ffffffffffffffffffffffffffffffffffffffff16815260200191505060405180910390f35b6104fe6117b9565b005b34801561050c57600080fd5b506105786004803603810190808035600019169060200190929190803560ff16906020019092919080356000191690602001909291908035600019169060200190929190803573ffffffffffffffffffffffffffffffffffffffff169060200190929190505050611a8d565b604051808215151515815260200191505060405180910390f35b34801561059e57600080fd5b506105d3600480360381019080803573ffffffffffffffffffffffffffffffffffffffff169060200190929190505050611e0f565b604051808215151515815260200191505060405180910390f35b3480156105f957600080fd5b50610638600480360381019080803573ffffffffffffffffffffffffffffffffffffffff16906020019092919080359060200190929190505050611e2f565b604051808215151515815260200191505060405180910390f35b34801561065e57600080fd5b50610667611e5e565b6040518082815260200191505060405180910390f35b34801561068957600080fd5b506106cb600480360381019080803573ffffffffffffffffffffffffffffffffffffffff169060200190929190803560ff169060200190929190505050611e64565b005b3480156106d957600080fd5b5061070e600480360381019080803573ffffffffffffffffffffffffffffffffffffffff16906020019092919050505061201f565b604051808215151515815260200191505060405180910390f35b34801561073457600080fd5b50610776600480360381019080803573ffffffffffffffffffffffffffffffffffffffff169060200190929190803560ff16906020019092919050505061203f565b005b34801561078457600080fd5b506107b9600480360381019080803573ffffffffffffffffffffffffffffffffffffffff1690602001909291905050506121fa565b6040518080602001828103825283818151815260200191508051906020019080838360005b838110156107f95780820151818401526020810190506107de565b50505050905090810190601f1680156108265780820380516001836020036101000a031916815260200191505b509250505060405180910390f35b34801561084057600080fd5b50610849612287565b005b34801561085757600080fd5b506108606127dd565b604051808263ffffffff1663ffffffff16815260200191505060405180910390f35b34801561088e57600080fd5b506108976127f3565b604051808273ffffffffffffffffffffffffffffffffffffffff1673ffffffffffffffffffffffffffffffffffffffff16815260200191505060405180910390f35b3480156108e557600080fd5b506108ee612819565b604051808263ffffffff1663ffffffff16815260200191505060405180910390f35b34801561091c57600080fd5b506109aa60048036038101908080357bffffffffffffffffffffffffffffffffffffffffffffffffffffffff19169060200190929190803590602001908201803590602001908080601f01602080910402602001604051908101604052809392919081815260200183838082843782019150505050505091929192908035906020019092919050505061282f565b005b3480156109b857600080fd5b506109c1612c18565b6040518080602001828103825283818151815260200191508051906020019080838360005b83811015610a015780820151818401526020810190506109e6565b50505050905090810190601f168015610a2e5780820380516001836020036101000a031916815260200191505b509250505060405180910390f35b348015610a4857600080fd5b50610a51612cb6565b6040518080602001828103825283818151815260200191508051906020019080838360005b83811015610a91578082015181840152602081019050610a76565b50505050905090810190601f168015610abe5780820380516001836020036101000a031916815260200191505b509250505060405180910390f35b348015610ad857600080fd5b50610ae1612e11565b6040518082815260200191505060405180910390f35b348015610b0357600080fd5b50610b0c612e17565b60405180827bffffffffffffffffffffffffffffffffffffffffffffffffffffffff19167bffffffffffffffffffffffffffffffffffffffffffffffffffffffff1916815260200191505060405180910390f35b348015610b6c57600080fd5b50610b75612e46565b604051808263ffffffff1663ffffffff16815260200191505060405180910390f35b348015610ba357600080fd5b50610be2600480360381019080803573ffffffffffffffffffffffffffffffffffffffff16906020019092919080359060200190929190505050612e5c565b005b348015610bf057600080fd5b50610c25600480360381019080803573ffffffffffffffffffffffffffffffffffffffff169060200190929190505050613287565b604051808215151515815260200191505060405180910390f35b348015610c4b57600080fd5b50610cb76004803603810190808035600019169060200190929190803560ff16906020019092919080356000191690602001909291908035600019169060200190929190803573ffffffffffffffffffffffffffffffffffffffff1690602001909291905050506133ab565b604051808215151515815260200191505060405180910390f35b348015610cdd57600080fd5b50610ce661372d565b604051808273ffffffffffffffffffffffffffffffffffffffff1673ffffffffffffffffffffffffffffffffffffffff16815260200191505060405180910390f35b348015610d3457600080fd5b50610d69600480360381019080803573ffffffffffffffffffffffffffffffffffffffff169060200190929190505050613753565b604051808215151515815260200191505060405180910390f35b348015610d8f57600080fd5b50610dc4600480360381019080803573ffffffffffffffffffffffffffffffffffffffff169060200190929190505050613806565b604051808215151515815260200191505060405180910390f35b610de661385c565b005b348015610df457600080fd5b50610dfd613a0b565b604051808263ffffffff1663ffffffff16815260200191505060405180910390f35b348015610e2b57600080fd5b50610f1c60048036038101908080357bffffffffffffffffffffffffffffffffffffffffffffffffffffffff19169060200190929190803590602001908201803590602001908080601f016020809104026020016040519081016040528093929190818152602001838380828437820191505050505050919291929080359060200190929190803573ffffffffffffffffffffffffffffffffffffffff16906020019092919080359060200190820180359060200190808060200260200160405190810160405280939291908181526020018383602002808284378201915050505050509192919290505050613a21565b005b348015610f2a57600080fd5b50610f33613a72565b6040518082815260200191505060405180910390f35b348015610f5557600080fd5b50610f5e613a78565b604051808215151515815260200191505060405180910390f35b348015610f8457600080fd5b50610ff0600480360381019080803573ffffffffffffffffffffffffffffffffffffffff1690602001909291908035600019169060200190929190803560ff16906020019092919080356000191690602001909291908035600019169060200190929190505050613a8b565b604051808215151515815260200191505060405180910390f35b600b8054600181600116156101000203166002900480601f0160208091040260200160405190810160405280929190818152602001828054600181600116156101000203166002900480156110a05780601f10611075576101008083540402835291602001916110a0565b820191906000526020600020905b81548152906001019060200180831161108357829003601f168201915b505050505081565b6002600560003373ffffffffffffffffffffffffffffffffffffffff1673ffffffffffffffffffffffffffffffffffffffff16815260200190815260200160002060008060068111156110f757fe5b815260200190815260200160002060009054906101000a900460ff16806111835750600560003373ffffffffffffffffffffffffffffffffffffffff1673ffffffffffffffffffffffffffffffffffffffff168152602001908152602001600020600082600681111561116657fe5b815260200190815260200160002060009054906101000a900460ff165b151561118e57600080fd5b600c60009054906101000a900460ff161515156111aa57600080fd5b600660009054906101000a900463ffffffff1663ffffffff1682101515156111d157600080fd5b600660009054906101000a900463ffffffff1663ffffffff168373ffffffffffffffffffffffffffffffffffffffff166370a08231306040518263ffffffff167c0100000000000000000000000000000000000000000000000000000000028152600401808273ffffffffffffffffffffffffffffffffffffffff1673ffffffffffffffffffffffffffffffffffffffff168152602001915050602060405180830381600087803b15801561128557600080fd5b505af1158015611299573d6000803e3d6000fd5b505050506040513d60208110156112af57600080fd5b8101908080519060200190929190505050101515156112cd57600080fd5b600660009054906101000a900463ffffffff1663ffffffff16600980549050101515156112f957600080fd5b600860606040519081016040528060028081111561131357fe5b81526020018573ffffffffffffffffffffffffffffffffffffffff168152602001600660009054906101000a900463ffffffff1663ffffffff168581151561135757fe5b048152509080600181540180825580915050906001820390600052602060002090600202016000909192909190915060008201518160000160006101000a81548160ff021916908360028111156113aa57fe5b021790555060208201518160000160016101000a81548173ffffffffffffffffffffffffffffffffffffffff021916908373ffffffffffffffffffffffffffffffffffffffff1602179055506040820151816001015550505060028081111561140f57fe5b7f3b01ab54359b1929b0bb45be2427dc4706c7aa1bc568e7fcc4495dd2199033e98484604051808373ffffffffffffffffffffffffffffffffffffffff1673ffffffffffffffffffffffffffffffffffffffff1681526020018281526020019250505060405180910390a2505050565b6000600c60009054906101000a900460ff1615151561149d57600080fd5b7f704acbd78ec3b91be2b9ad500cb94982b7a04f55964ea1a85935fff752ed1e5b85858585604051808573ffffffffffffffffffffffffffffffffffffffff1673ffffffffffffffffffffffffffffffffffffffff1681526020018473ffffffffffffffffffffffffffffffffffffffff1673ffffffffffffffffffffffffffffffffffffffff16815260200183815260200180602001828103825283818151815260200191508051906020019080838360005b8381101561156c578082015181840152602081019050611551565b50505050905090810190601f1680156115995780820380516001836020036101000a031916815260200191505b509550505050505060405180910390a1600983908060018154018082558091505090600182039060005260206000200160009091929091909150555063150b7a027c0100000000000000000000000000000000000000000000000000000000029050949350505050565b600e6020528060005260406000206000915054906101000a900460ff1681565b6060600660009054906101000a900463ffffffff16600c60009054906101000a900460ff16600660049054906101000a900463ffffffff16600660089054906101000a900463ffffffff166006600c9054906101000a900463ffffffff16604051602001808663ffffffff1663ffffffff167c010000000000000000000000000000000000000000000000000000000002815260040185151515157f01000000000000000000000000000000000000000000000000000000000000000281526001018463ffffffff1663ffffffff167c01000000000000000000000000000000000000000000000000000000000281526004018363ffffffff1663ffffffff167c01000000000000000000000000000000000000000000000000000000000281526004018263ffffffff1663ffffffff167c010000000000000000000000000000000000000000000000000000000002815260040195505050505050604051602081830303815290604052905090565b600460009054906101000a900473ffffffffffffffffffffffffffffffffffffffff1681565b6002600560003373ffffffffffffffffffffffffffffffffffffffff1673ffffffffffffffffffffffffffffffffffffffff168152602001908152602001600020600080600681111561180857fe5b815260200190815260200160002060009054906101000a900460ff16806118945750600560003373ffffffffffffffffffffffffffffffffffffffff1673ffffffffffffffffffffffffffffffffffffffff168152602001908152602001600020600082600681111561187757fe5b815260200190815260200160002060009054906101000a900460ff165b151561189f57600080fd5b600c60009054906101000a900460ff161515156118bb57600080fd5b600660009054906101000a900463ffffffff1663ffffffff1634101515156118e257600080fd5b6008606060405190810160405280600060028111156118fd57fe5b8152602001600073ffffffffffffffffffffffffffffffffffffffff168152602001600660009054906101000a900463ffffffff1663ffffffff163481151561194257fe5b048152509080600181540180825580915050906001820390600052602060002090600202016000909192909190915060008201518160000160006101000a81548160ff0219169083600281111561199557fe5b021790555060208201518160000160016101000a81548173ffffffffffffffffffffffffffffffffffffffff021916908373ffffffffffffffffffffffffffffffffffffffff16021790555060408201518160010155505050600060028111156119fb57fe5b7f3b01ab54359b1929b0bb45be2427dc4706c7aa1bc568e7fcc4495dd2199033e96000600660009054906101000a900463ffffffff1663ffffffff1634811515611a4157fe5b04604051808373ffffffffffffffffffffffffffffffffffffffff1673ffffffffffffffffffffffffffffffffffffffff1681526020018281526020019250505060405180910390a250565b6000600c60009054906101000a900460ff161515611aaa57600080fd5b600d5442101515611aba57600080fd5b600460009054906101000a900473ffffffffffffffffffffffffffffffffffffffff1673ffffffffffffffffffffffffffffffffffffffff163373ffffffffffffffffffffffffffffffffffffffff1614151515611b1757600080fd5b303360405160200180807f6163636570744163717569736974696f6e0000000000000000000000000000008152506011018373ffffffffffffffffffffffffffffffffffffffff1673ffffffffffffffffffffffffffffffffffffffff166c010000000000000000000000000281526014018273ffffffffffffffffffffffffffffffffffffffff1673ffffffffffffffffffffffffffffffffffffffff166c01000000000000000000000000028152601401925050506040516020818303038152906040526040518082805190602001908083835b602083101515611c125780518252602082019150602081019050602083039250611bed565b6001836020036101000a0380198251168184511680821785525050505050509050019150506040518091039020600019168660001916141515611c5457600080fd5b600560008373ffffffffffffffffffffffffffffffffffffffff1673ffffffffffffffffffffffffffffffffffffffff1681526020019081526020016000206000806006811115611ca157fe5b815260200190815260200160002060009054906101000a900460ff1680611d2e5750600560008373ffffffffffffffffffffffffffffffffffffffff1673ffffffffffffffffffffffffffffffffffffffff168152602001908152602001600020600060046006811115611d1157fe5b815260200190815260200160002060009054906101000a900460ff165b1515611d3957600080fd5b8173ffffffffffffffffffffffffffffffffffffffff166001611d5b88613db1565b878787604051600081526020016040526040518085600019166000191681526020018460ff1660ff1681526020018360001916600019168152602001826000191660001916815260200194505050505060206040516020810390808403906000865af1158015611dcf573d6000803e3d6000fd5b5050506020604051035173ffffffffffffffffffffffffffffffffffffffff16141515611dfb57600080fd5b611e0433613edf565b905095945050505050565b60106020528060005260406000206000915054906101000a900460ff1681565b60056020528160005260406000206020528060005260406000206000915091509054906101000a900460ff1681565b60075481565b6001600560003373ffffffffffffffffffffffffffffffffffffffff1673ffffffffffffffffffffffffffffffffffffffff1681526020019081526020016000206000806006811115611eb357fe5b815260200190815260200160002060009054906101000a900460ff1680611f3f5750600560003373ffffffffffffffffffffffffffffffffffffffff1673ffffffffffffffffffffffffffffffffffffffff1681526020019081526020016000206000826006811115611f2257fe5b815260200190815260200160002060009054906101000a900460ff165b1515611f4a57600080fd5b6001600560008573ffffffffffffffffffffffffffffffffffffffff1673ffffffffffffffffffffffffffffffffffffffff1681526020019081526020016000206000846006811115611f9957fe5b815260200190815260200160002060006101000a81548160ff0219169083151502179055508273ffffffffffffffffffffffffffffffffffffffff167f8332902e030e7d71ad771a7a7297c7a55b8ffc171f4cb28ba8ad821ec3d34c44836040518082600681111561200757fe5b60ff16815260200191505060405180910390a2505050565b600f6020528060005260406000206000915054906101000a900460ff1681565b6001600560003373ffffffffffffffffffffffffffffffffffffffff1673ffffffffffffffffffffffffffffffffffffffff168152602001908152602001600020600080600681111561208e57fe5b815260200190815260200160002060009054906101000a900460ff168061211a5750600560003373ffffffffffffffffffffffffffffffffffffffff1673ffffffffffffffffffffffffffffffffffffffff16815260200190815260200160002060008260068111156120fd57fe5b815260200190815260200160002060009054906101000a900460ff165b151561212557600080fd5b6000600560008573ffffffffffffffffffffffffffffffffffffffff1673ffffffffffffffffffffffffffffffffffffffff168152602001908152602001600020600084600681111561217457fe5b815260200190815260200160002060006101000a81548160ff0219169083151502179055508273ffffffffffffffffffffffffffffffffffffffff167fa46bc5c9ecb2df79e22286f1040924248bf2b9104bee5651c88543fab9ca2de483604051808260068111156121e257fe5b60ff16815260200191505060405180910390a2505050565b606061220582613753565b61220e83613806565b6040516020018083151515157f010000000000000000000000000000000000000000000000000000000000000002815260010182151515157f0100000000000000000000000000000000000000000000000000000000000000028152600101925050506040516020818303038152906040529050919050565b60008060006006600560003373ffffffffffffffffffffffffffffffffffffffff1673ffffffffffffffffffffffffffffffffffffffff16815260200190815260200160002060008060068111156122db57fe5b815260200190815260200160002060009054906101000a900460ff16806123675750600560003373ffffffffffffffffffffffffffffffffffffffff1673ffffffffffffffffffffffffffffffffffffffff168152602001908152602001600020600082600681111561234a57fe5b815260200190815260200160002060009054906101000a900460ff165b151561237257600080fd5b600c60009054906101000a900460ff161561248557600160009054906101000a900473ffffffffffffffffffffffffffffffffffffffff1673ffffffffffffffffffffffffffffffffffffffff166342966c686006600c9054906101000a900463ffffffff16600660009054906101000a900463ffffffff160363ffffffff16600354026040518263ffffffff167c010000000000000000000000000000000000000000000000000000000002815260040180828152602001915050602060405180830381600087803b15801561244857600080fd5b505af115801561245c573d6000803e3d6000fd5b505050506040513d602081101561247257600080fd5b8101908080519060200190929190505050505b600093505b60088054905084101561257b57600160028111156124a457fe5b6008858154811015156124b357fe5b906000526020600020906002020160000160009054906101000a900460ff1660028111156124dd57fe5b1415612527576008848154811015156124f257fe5b906000526020600020906002020160000160019054906101000a900473ffffffffffffffffffffffffffffffffffffffff1692505b60028081111561253357fe5b60088581548110151561254257fe5b906000526020600020906002020160000160009054906101000a900460ff16600281111561256c57fe5b5050838060010194505061248a565b600160009054906101000a900473ffffffffffffffffffffffffffffffffffffffff1673ffffffffffffffffffffffffffffffffffffffff166370a08231306040518263ffffffff167c0100000000000000000000000000000000000000000000000000000000028152600401808273ffffffffffffffffffffffffffffffffffffffff1673ffffffffffffffffffffffffffffffffffffffff168152602001915050602060405180830381600087803b15801561263857600080fd5b505af115801561264c573d6000803e3d6000fd5b505050506040513d602081101561266257600080fd5b81019080805190602001909291905050509150600160009054906101000a900473ffffffffffffffffffffffffffffffffffffffff1673ffffffffffffffffffffffffffffffffffffffff1663a9059cbb600460009054906101000a900473ffffffffffffffffffffffffffffffffffffffff16846040518363ffffffff167c0100000000000000000000000000000000000000000000000000000000028152600401808373ffffffffffffffffffffffffffffffffffffffff1673ffffffffffffffffffffffffffffffffffffffff16815260200182815260200192505050602060405180830381600087803b15801561275c57600080fd5b505af1158015612770573d6000803e3d6000fd5b505050506040513d602081101561278657600080fd5b8101908080519060200190929190505050156127d757600460009054906101000a900473ffffffffffffffffffffffffffffffffffffffff1673ffffffffffffffffffffffffffffffffffffffff16ff5b50505050565b600660049054906101000a900463ffffffff1681565b600160009054906101000a900473ffffffffffffffffffffffffffffffffffffffff1681565b600660089054906101000a900463ffffffff1681565b60006003600560003373ffffffffffffffffffffffffffffffffffffffff1673ffffffffffffffffffffffffffffffffffffffff168152602001908152602001600020600080600681111561288057fe5b815260200190815260200160002060009054906101000a900460ff168061290c5750600560003373ffffffffffffffffffffffffffffffffffffffff1673ffffffffffffffffffffffffffffffffffffffff16815260200190815260200160002060008260068111156128ef57fe5b815260200190815260200160002060009054906101000a900460ff165b151561291757600080fd5b600c60009054906101000a900460ff1615151561293357600080fd5b600160009054906101000a900473ffffffffffffffffffffffffffffffffffffffff1673ffffffffffffffffffffffffffffffffffffffff166370a08231306040518263ffffffff167c0100000000000000000000000000000000000000000000000000000000028152600401808273ffffffffffffffffffffffffffffffffffffffff1673ffffffffffffffffffffffffffffffffffffffff168152602001915050602060405180830381600087803b1580156129f057600080fd5b505af1158015612a04573d6000803e3d6000fd5b505050506040513d6020811015612a1a57600080fd5b81019080805190602001909291905050509150600354600660009054906101000a900463ffffffff1663ffffffff16028210151515612a5857600080fd5b6201518042018310151515612a6c57600080fd5b629e340042018311151515612a8057600080fd5b83600b9080519060200190612a969291906149f5565b506001600c60006101000a81548160ff02191690831515021790555082600d81905550600660009054906101000a900463ffffffff16600660046101000a81548163ffffffff021916908363ffffffff16021790555084600a60006101000a81548163ffffffff02191690837c0100000000000000000000000000000000000000000000000000000000900402179055507f61d7bd1b44357bca3ed4bd238fec71f1710af7c589ab829be7f3be96caa6c5eb85858560405180847bffffffffffffffffffffffffffffffffffffffffffffffffffffffff19167bffffffffffffffffffffffffffffffffffffffffffffffffffffffff1916815260200180602001838152602001828103825284818151815260200191508051906020019080838360005b83811015612bd5578082015181840152602081019050612bba565b50505050905090810190601f168015612c025780820380516001836020036101000a031916815260200191505b5094505050505060405180910390a15050505050565b60008054600181600116156101000203166002900480601f016020809104026020016040519081016040528092919081815260200182805460018160011615610100020316600290048015612cae5780601f10612c8357610100808354040283529160200191612cae565b820191906000526020600020905b815481529060010190602001808311612c9157829003601f168201915b505050505081565b6060600460009054906101000a900473ffffffffffffffffffffffffffffffffffffffff16600a60009054906101000a90047c010000000000000000000000000000000000000000000000000000000002600d54600b604051602001808573ffffffffffffffffffffffffffffffffffffffff1673ffffffffffffffffffffffffffffffffffffffff166c01000000000000000000000000028152601401847bffffffffffffffffffffffffffffffffffffffffffffffffffffffff19167bffffffffffffffffffffffffffffffffffffffffffffffffffffffff1916815260040183815260200182805460018160011615610100020316600290048015612df55780601f10612dd3576101008083540402835291820191612df5565b820191906000526020600020905b815481529060010190602001808311612de1575b5050945050505050604051602081830303815290604052905090565b600d5481565b600a60009054906101000a90047c01000000000000000000000000000000000000000000000000000000000281565b600660009054906101000a900463ffffffff1681565b6002600560003373ffffffffffffffffffffffffffffffffffffffff1673ffffffffffffffffffffffffffffffffffffffff1681526020019081526020016000206000806006811115612eab57fe5b815260200190815260200160002060009054906101000a900460ff1680612f375750600560003373ffffffffffffffffffffffffffffffffffffffff1673ffffffffffffffffffffffffffffffffffffffff1681526020019081526020016000206000826006811115612f1a57fe5b815260200190815260200160002060009054906101000a900460ff165b1515612f4257600080fd5b600c60009054906101000a900460ff16151515612f5e57600080fd5b600660009054906101000a900463ffffffff1663ffffffff168210151515612f8557600080fd5b8273ffffffffffffffffffffffffffffffffffffffff166323b872dd3330856040518463ffffffff167c0100000000000000000000000000000000000000000000000000000000028152600401808473ffffffffffffffffffffffffffffffffffffffff1673ffffffffffffffffffffffffffffffffffffffff1681526020018373ffffffffffffffffffffffffffffffffffffffff1673ffffffffffffffffffffffffffffffffffffffff1681526020018281526020019350505050602060405180830381600087803b15801561305c57600080fd5b505af1158015613070573d6000803e3d6000fd5b505050506040513d602081101561308657600080fd5b810190808051906020019092919050505015156130a257600080fd5b8273ffffffffffffffffffffffffffffffffffffffff16600160009054906101000a900473ffffffffffffffffffffffffffffffffffffffff1673ffffffffffffffffffffffffffffffffffffffff16141515156130ff57600080fd5b60086060604051908101604052806001600281111561311a57fe5b81526020018573ffffffffffffffffffffffffffffffffffffffff168152602001600660009054906101000a900463ffffffff1663ffffffff168581151561315e57fe5b048152509080600181540180825580915050906001820390600052602060002090600202016000909192909190915060008201518160000160006101000a81548160ff021916908360028111156131b157fe5b021790555060208201518160000160016101000a81548173ffffffffffffffffffffffffffffffffffffffff021916908373ffffffffffffffffffffffffffffffffffffffff160217905550604082015181600101555050506001600281111561321757fe5b7f3b01ab54359b1929b0bb45be2427dc4706c7aa1bc568e7fcc4495dd2199033e98484604051808373ffffffffffffffffffffffffffffffffffffffff1673ffffffffffffffffffffffffffffffffffffffff1681526020018281526020019250505060405180910390a2505050565b6000600c60009054906101000a900460ff1615156132a457600080fd5b600d54421015156132b457600080fd5b6004600560003373ffffffffffffffffffffffffffffffffffffffff1673ffffffffffffffffffffffffffffffffffffffff168152602001908152602001600020600080600681111561330357fe5b815260200190815260200160002060009054906101000a900460ff168061338f5750600560003373ffffffffffffffffffffffffffffffffffffffff1673ffffffffffffffffffffffffffffffffffffffff168152602001908152602001600020600082600681111561337257fe5b815260200190815260200160002060009054906101000a900460ff165b151561339a57600080fd5b6133a383613edf565b915050919050565b6000600c60009054906101000a900460ff1615156133c857600080fd5b600d54421015156133d857600080fd5b600460009054906101000a900473ffffffffffffffffffffffffffffffffffffffff1673ffffffffffffffffffffffffffffffffffffffff163373ffffffffffffffffffffffffffffffffffffffff161415151561343557600080fd5b303360405160200180807f616363657074526564656d7074696f6e000000000000000000000000000000008152506010018373ffffffffffffffffffffffffffffffffffffffff1673ffffffffffffffffffffffffffffffffffffffff166c010000000000000000000000000281526014018273ffffffffffffffffffffffffffffffffffffffff1673ffffffffffffffffffffffffffffffffffffffff166c01000000000000000000000000028152601401925050506040516020818303038152906040526040518082805190602001908083835b602083101515613530578051825260208201915060208101905060208303925061350b565b6001836020036101000a038019825116818451168082178552505050505050905001915050604051809103902060001916866000191614151561357257600080fd5b600560008373ffffffffffffffffffffffffffffffffffffffff1673ffffffffffffffffffffffffffffffffffffffff16815260200190815260200160002060008060068111156135bf57fe5b815260200190815260200160002060009054906101000a900460ff168061364c5750600560008373ffffffffffffffffffffffffffffffffffffffff1673ffffffffffffffffffffffffffffffffffffffff16815260200190815260200160002060006005600681111561362f57fe5b815260200190815260200160002060009054906101000a900460ff165b151561365757600080fd5b8173ffffffffffffffffffffffffffffffffffffffff16600161367988613db1565b878787604051600081526020016040526040518085600019166000191681526020018460ff1660ff1681526020018360001916600019168152602001826000191660001916815260200194505050505060206040516020810390808403906000865af11580156136ed573d6000803e3d6000fd5b5050506020604051035173ffffffffffffffffffffffffffffffffffffffff1614151561371957600080fd5b61372233614169565b905095945050505050565b600260009054906101000a900473ffffffffffffffffffffffffffffffffffffffff1681565b6000600460009054906101000a900473ffffffffffffffffffffffffffffffffffffffff1673ffffffffffffffffffffffffffffffffffffffff168273ffffffffffffffffffffffffffffffffffffffff16141515156137b257600080fd5b600e60008373ffffffffffffffffffffffffffffffffffffffff1673ffffffffffffffffffffffffffffffffffffffff16815260200190815260200160002060009054906101000a900460ff169050919050565b6000601060008373ffffffffffffffffffffffffffffffffffffffff1673ffffffffffffffffffffffffffffffffffffffff16815260200190815260200160002060009054906101000a900460ff169050919050565b6003600560003373ffffffffffffffffffffffffffffffffffffffff1673ffffffffffffffffffffffffffffffffffffffff16815260200190815260200160002060008060068111156138ab57fe5b815260200190815260200160002060009054906101000a900460ff16806139375750600560003373ffffffffffffffffffffffffffffffffffffffff1673ffffffffffffffffffffffffffffffffffffffff168152602001908152602001600020600082600681111561391a57fe5b815260200190815260200160002060009054906101000a900460ff165b151561394257600080fd5b600c60009054906101000a900460ff1615151561395e57600080fd5b600660009054906101000a900463ffffffff1663ffffffff163411151561398457600080fd5b600660009054906101000a900463ffffffff1663ffffffff16348115156139a757fe5b046007819055507f2d22c62159184c40f93eff076e15180d674b1ffe0f7b2bf1002d6a7e33cbe621600660009054906101000a900463ffffffff1663ffffffff16348115156139f257fe5b046040518082815260200191505060405180910390a150565b6006600c9054906101000a900463ffffffff1681565b6000613a2e86868661282f565b600090505b8151811015613a6a57613a5d838383815181101515613a4e57fe5b90602001906020020151611e64565b8080600101915050613a33565b505050505050565b60035481565b600c60009054906101000a900460ff1681565b6000600c60009054906101000a900460ff161515613aa857600080fd5b600d5442101515613ab857600080fd5b60058060003373ffffffffffffffffffffffffffffffffffffffff1673ffffffffffffffffffffffffffffffffffffffff1681526020019081526020016000206000806006811115613b0657fe5b815260200190815260200160002060009054906101000a900460ff1680613b925750600560003373ffffffffffffffffffffffffffffffffffffffff1673ffffffffffffffffffffffffffffffffffffffff1681526020019081526020016000206000826006811115613b7557fe5b815260200190815260200160002060009054906101000a900460ff165b1515613b9d57600080fd5b308760405160200180807f616363657074526564656d7074696f6e000000000000000000000000000000008152506010018373ffffffffffffffffffffffffffffffffffffffff1673ffffffffffffffffffffffffffffffffffffffff166c010000000000000000000000000281526014018273ffffffffffffffffffffffffffffffffffffffff1673ffffffffffffffffffffffffffffffffffffffff166c01000000000000000000000000028152601401925050506040516020818303038152906040526040518082805190602001908083835b602083101515613c985780518252602082019150602081019050602083039250613c73565b6001836020036101000a0380198251168184511680821785525050505050509050019150506040518091039020600019168660001916141515613cda57600080fd5b8673ffffffffffffffffffffffffffffffffffffffff166001613cfc88613db1565b878787604051600081526020016040526040518085600019166000191681526020018460ff1660ff1681526020018360001916600019168152602001826000191660001916815260200194505050505060206040516020810390808403906000865af1158015613d70573d6000803e3d6000fd5b5050506020604051035173ffffffffffffffffffffffffffffffffffffffff16141515613d9c57600080fd5b613da587614169565b91505095945050505050565b6000613dbc826146f5565b60405160200180807f19457468657265756d205369676e6564204d6573736167653a0a3734526f756781526020017f652049443a20000000000000000000000000000000000000000000000000000081525060260182805190602001908083835b602083101515613e425780518252602082019150602081019050602083039250613e1d565b6001836020036101000a0380198251168184511680821785525050505050509050019150506040516020818303038152906040526040518082805190602001908083835b602083101515613eab5780518252602082019150602081019050602083039250613e86565b6001836020036101000a03801982511681845116808217855250505050505090500191505060405180910390209050919050565b6000600c60009054906101000a900460ff161515613efc57600080fd5b600d5442101515613f0c57600080fd5b600460009054906101000a900473ffffffffffffffffffffffffffffffffffffffff1673ffffffffffffffffffffffffffffffffffffffff168273ffffffffffffffffffffffffffffffffffffffff1614151515613f6957600080fd5b613f7282613753565b151515613f7e57600080fd5b600f60008373ffffffffffffffffffffffffffffffffffffffff1673ffffffffffffffffffffffffffffffffffffffff16815260200190815260200160002060009054906101000a900460ff16151515613fd757600080fd5b6000600660049054906101000a900463ffffffff1663ffffffff16111561415f576001600660048282829054906101000a900463ffffffff160392506101000a81548163ffffffff021916908363ffffffff1602179055506001600660088282829054906101000a900463ffffffff160192506101000a81548163ffffffff021916908363ffffffff1602179055506001600e60008473ffffffffffffffffffffffffffffffffffffffff1673ffffffffffffffffffffffffffffffffffffffff16815260200190815260200160002060006101000a81548160ff02191690831515021790555060006007541115614113578173ffffffffffffffffffffffffffffffffffffffff166108fc6007549081150290604051600060405180830381858888f19350505050158015614111573d6000803e3d6000fd5b505b8173ffffffffffffffffffffffffffffffffffffffff167f85fe2fd3c542195c3939050abf878214a46a36576a104333738ca3238e1269fd60405160405180910390a260019050614164565b600090505b919050565b6000806000806000600c60009054906101000a900460ff16151561418c57600080fd5b600d544210151561419c57600080fd5b6141a586613753565b15156141b057600080fd5b6141b986613806565b1515156141c557600080fd5b60016006600c8282829054906101000a900463ffffffff160192506101000a81548163ffffffff021916908363ffffffff1602179055506001601060008873ffffffffffffffffffffffffffffffffffffffff1673ffffffffffffffffffffffffffffffffffffffff16815260200190815260200160002060006101000a81548160ff021916908315150217905550600093505b6008805490508410156146a5576000600281111561427357fe5b60088581548110151561428257fe5b906000526020600020906002020160000160009054906101000a900460ff1660028111156142ac57fe5b141561431a578573ffffffffffffffffffffffffffffffffffffffff166108fc6008868154811015156142db57fe5b9060005260206000209060020201600101549081150290604051600060405180830381858888f19350505050158015614318573d6000803e3d6000fd5b505b6001600281111561432757fe5b60088581548110151561433657fe5b906000526020600020906002020160000160009054906101000a900460ff16600281111561436057fe5b14156144a95760088481548110151561437557fe5b906000526020600020906002020160000160019054906101000a900473ffffffffffffffffffffffffffffffffffffffff1692508273ffffffffffffffffffffffffffffffffffffffff1663a9059cbb876008878154811015156143d557fe5b9060005260206000209060020201600101546040518363ffffffff167c0100000000000000000000000000000000000000000000000000000000028152600401808373ffffffffffffffffffffffffffffffffffffffff1673ffffffffffffffffffffffffffffffffffffffff16815260200182815260200192505050602060405180830381600087803b15801561446c57600080fd5b505af1158015614480573d6000803e3d6000fd5b505050506040513d602081101561449657600080fd5b8101908080519060200190929190505050505b6002808111156144b557fe5b6008858154811015156144c457fe5b906000526020600020906002020160000160009054906101000a900460ff1660028111156144ee57fe5b14156146985760088481548110151561450357fe5b906000526020600020906002020160000160019054906101000a900473ffffffffffffffffffffffffffffffffffffffff169150600090505b60088481548110151561454b57fe5b906000526020600020906002020160010154811015614697578173ffffffffffffffffffffffffffffffffffffffff166342842e0e3088600960016009805490500381548110151561459957fe5b90600052602060002001546040518463ffffffff167c0100000000000000000000000000000000000000000000000000000000028152600401808473ffffffffffffffffffffffffffffffffffffffff1673ffffffffffffffffffffffffffffffffffffffff1681526020018373ffffffffffffffffffffffffffffffffffffffff1673ffffffffffffffffffffffffffffffffffffffff1681526020018281526020019350505050600060405180830381600087803b15801561465c57600080fd5b505af1158015614670573d6000803e3d6000fd5b5050505060098054809190600190036146899190614a75565b50808060010191505061453c565b5b8380600101945050614259565b8573ffffffffffffffffffffffffffffffffffffffff167fc81d7db1291ca1df0648fae3910546c3480b01d51b078b540c8b32f63b27b46a60405160405180910390a26001945050505050919050565b6060806060806000604080519080825280601f01601f1916602001820160405280156147305781602001602082028038833980820191505090505b5093506040805190810160405280601081526020017f30313233343536373839616263646566000000000000000000000000000000008152509250829150600090505b60208160ff1610156149e95781600460f07f010000000000000000000000000000000000000000000000000000000000000002888460ff166020811015156147b757fe5b1a7f010000000000000000000000000000000000000000000000000000000000000002167effffffffffffffffffffffffffffffffffffffffffffffffffffffffffffff19169060020a90047f0100000000000000000000000000000000000000000000000000000000000000900481518110151561483257fe5b9060200101517f010000000000000000000000000000000000000000000000000000000000000090047f010000000000000000000000000000000000000000000000000000000000000002846002830260ff1681518110151561489157fe5b9060200101907effffffffffffffffffffffffffffffffffffffffffffffffffffffffffffff1916908160001a90535081600f7f010000000000000000000000000000000000000000000000000000000000000002878360ff166020811015156148f757fe5b1a7f010000000000000000000000000000000000000000000000000000000000000002167f0100000000000000000000000000000000000000000000000000000000000000900481518110151561494a57fe5b9060200101517f010000000000000000000000000000000000000000000000000000000000000090047f010000000000000000000000000000000000000000000000000000000000000002846001600284020160ff168151811015156149ac57fe5b9060200101907effffffffffffffffffffffffffffffffffffffffffffffffffffffffffffff1916908160001a9053508080600101915050614773565b83945050505050919050565b828054600181600116156101000203166002900490600052602060002090601f016020900481019282601f10614a3657805160ff1916838001178555614a64565b82800160010185558215614a64579182015b82811115614a63578251825591602001919060010190614a48565b5b509050614a719190614aa1565b5090565b815481835581811115614a9c57818360005260206000209182019101614a9b9190614aa1565b5b505050565b614ac391905b80821115614abf576000816000905550600101614aa7565b5090565b905600a165627a7a72305820d794d3c78135f4b9b1abb718801867766010311ed8004435270871dce6be85c00029",
  "source": "/*\n\n  Simple campaign contract\n\n*/\n\npragma solidity ^0.4.24;\n\nimport \"./RGETokenInterface.sol\";\n\nimport \"./RougeFactoryInterface.sol\";\n\nimport \"./EIP721Interface.sol\";\n\ncontract SimpleRougeCampaign {\n\n    string public version = '0.16.0';\n\n    // The Rouge Token contract address\n    RGETokenInterface public rge;\n\n    // Factory address & tare settings\n    RougeFactoryInterface public factory;\n    uint256 public tare;\n\n    address public issuer; // XXX todo ? owner != initial issuer\n\n    enum Authorization { All, Role, Attachment, Issuance, Acquisition, Redemption, Kill }\n\n    mapping (address => mapping (uint => bool)) public isAuthorized;\n\n    modifier isAttestor(Authorization _auth) {\n        require(isAuthorized[msg.sender][uint(Authorization.All)] || isAuthorized[msg.sender][uint(_auth)]);\n        _;\n    }\n\n    event AttestorAddition(address indexed attestor, Authorization auth);\n    \n    function addAttestor(address _attestor, Authorization _auth) isAttestor(Authorization.Role) public {\n        isAuthorized[_attestor][uint(_auth)] = true;\n        emit AttestorAddition(_attestor, _auth);\n    }\n    \n    event AttestorRemoval(address indexed attestor, Authorization auth);\n\n    function removeAttestor(address _attestor, Authorization _auth) isAttestor(Authorization.Role) public {\n        isAuthorized[_attestor][uint(_auth)] = false;\n        emit AttestorRemoval(_attestor, _auth);\n    }\n\n    uint32 public issuance;\n    uint32 public available = 0;\n    uint32 public acquired = 0;\n    uint32 public redeemed = 0;\n\n    constructor(address _issuer, uint32 _issuance, address _rge, uint256 _tare, address _factory) public {\n        require(_issuance > 0);\n\n        issuer = _issuer;\n        issuance = _issuance;\n        rge = RGETokenInterface(_rge); \n        tare = _tare;\n        factory = RougeFactoryInterface(_factory);\n\n        // bootstrap role system\n        isAuthorized[issuer][uint(Authorization.All)] = true;\n        emit AttestorAddition(issuer, Authorization.All);\n    }\n\n    uint256 public acquisitionFuelProvision;\n    \n    event AcquisitionFuel(uint256 _value);\n    \n    function setAcquisitionFuelProvision() payable isAttestor(Authorization.Issuance) public {\n        require(!campaignIssued);\n        require(msg.value > issuance);\n        acquisitionFuelProvision = msg.value / issuance;\n        emit AcquisitionFuel(msg.value / issuance);\n    }\n\n    struct Attachment {\n        AttachmentClass class;\n        address caller;\n        uint qty;\n    }\n\n    enum AttachmentClass { Fuel, ERC20, ERC721 }\n    Attachment[] attachments;\n\n    event NewAttachment(AttachmentClass indexed class, address _contract, uint256 _value);\n    \n    function attachFuel() payable isAttestor(Authorization.Attachment) public {\n        require(!campaignIssued);\n        require(msg.value >= issuance);\n        attachments.push(Attachment({\n            class: AttachmentClass.Fuel,\n            caller: address(0),  \n            qty: msg.value / issuance\n        }));\n        emit NewAttachment(AttachmentClass.Fuel, address(0), msg.value / issuance);\n    }\n\n    function attachERC20(EIP20Interface _erc20, uint256 _value) isAttestor(Authorization.Attachment) public {\n        require(!campaignIssued);\n        require(_value >= issuance);\n        require(_erc20.transferFrom(msg.sender, this, _value));\n        require(address(rge) != address(_erc20));\n        attachments.push(Attachment({\n            class: AttachmentClass.ERC20,\n            caller: address(_erc20),  \n            qty: _value / issuance\n        }));\n        emit NewAttachment(AttachmentClass.ERC20, address(_erc20), _value);\n    }\n\n    uint256[] erc721TokenIds;\n    event ReceivedERC721(address _operator, address _from, uint256 _tokenId, bytes _data);\n\n    bytes4 private constant ERC721_RECEIVED = 0x150b7a02;\n    function onERC721Received(address _operator, address _from, uint256 _tokenId, bytes _data ) public returns(bytes4) {\n        require(!campaignIssued);\n        emit ReceivedERC721( _operator, _from, _tokenId, _data);\n        erc721TokenIds.push(_tokenId);\n        return ERC721_RECEIVED;\n    }\n        \n    function attachERC721(EIP721Interface _erc721, uint256 _value) isAttestor(Authorization.Attachment) public {\n        require(!campaignIssued);\n        require(_value >= issuance);\n        require(_erc721.balanceOf(this) >= issuance);\n        require(erc721TokenIds.length >= issuance);\n        attachments.push(Attachment({\n            class: AttachmentClass.ERC721,\n            caller: address(_erc721),  \n            qty: _value / issuance\n        }));\n        emit NewAttachment(AttachmentClass.ERC721, address(_erc721), _value);\n    }\n\n    // web3.eth.sign compat prefix XXX mv to lib\n    function getHexString(bytes32 value) internal pure returns (string) {\n        bytes memory result = new bytes(64);\n        string memory characterString = \"0123456789abcdef\";\n        bytes memory characters = bytes(characterString);\n        for (uint8 i = 0; i < 32; i++) {\n            result[i * 2] = characters[uint256((value[i] & 0xF0) >> 4)];\n            result[i * 2 + 1] = characters[uint256(value[i] & 0xF)];\n        }\n        return string(result);\n    }\n    function prefixed(bytes32 _hash) internal pure returns (bytes32) {\n        return keccak256(abi.encodePacked(\"\\x19Ethereum Signed Message:\\n74Rouge ID: \", getHexString(_hash)));\n    }\n\n    bytes4 public scheme;\n    string public name;\n    bool public campaignIssued;\n    uint public campaignExpiration;\n\n    event Issuance(bytes4 scheme, string name, uint campaignExpiration);\n\n    function issue(bytes4 _scheme, string _name, uint _campaignExpiration) isAttestor(Authorization.Issuance) public {\n        require(!campaignIssued);\n\n        // still possible to send RGE post creation, before issuing the campaign\n        uint256 rgeBalance = rge.balanceOf(this);\n        require(rgeBalance >= issuance * tare);\n\n        // XXX minimum campaign duration 1 day, maximum 120 days (could be a param for tare ?)\n        require(_campaignExpiration >= now + 60*60*24);\n        require(_campaignExpiration <= now + 60*60*24*120);\n        \n        name = _name;\n        campaignIssued = true;\n        campaignExpiration = _campaignExpiration;\n        available = issuance;\n        scheme = _scheme;\n\n        emit Issuance(_scheme, _name, _campaignExpiration);\n    }    \n\n    // Authorization is handled bu issue()\n    function issueWithAttestor(bytes4 _scheme, string _name, uint _campaignExpiration, address _attestor, Authorization[] _auths) public {\n        issue(_scheme, _name, _campaignExpiration);\n        for (uint i = 0; i < _auths.length; i++) {\n            addAttestor(_attestor, _auths[i]);\n        }\n    }\n    \n    function getInfo() public view returns (bytes) {\n        return abi.encodePacked(issuer, scheme, campaignExpiration, name);\n    }\n\n    function getState() public view returns (bytes) {\n        return abi.encodePacked(issuance, campaignIssued, available, acquired, redeemed);\n    }\n\n    modifier CampaignOpen() {\n        require(campaignIssued);\n        require(now < campaignExpiration);\n        _;\n    }\n    \n    mapping (address => bool) public acquisitionRegister;\n    \n    function hasNote(address _bearer) public view returns (bool yes) {\n        require(_bearer != issuer);             /* RULE issuer and bearer need to be diffrent */\n        return acquisitionRegister[_bearer];\n    }\n    \n    event Acquisition(address indexed bearer);\n\n    function acquisition(address _bearer) CampaignOpen private returns (bool success) {\n        require(_bearer != issuer);                 /* RULE: issuer and bearer need to be diffrent */\n        require(!hasNote(_bearer));                 /* RULE: only one note per address */\n        require(!transferRegister[_bearer]);        /* RULE transfer is not reversible */\n        if (available > 0) {\n            available -= 1;\n            acquired += 1;\n            acquisitionRegister[_bearer] = true;\n            if (acquisitionFuelProvision > 0) {\n                _bearer.transfer( acquisitionFuelProvision );\n            }\n            emit Acquisition(_bearer);\n            return true;\n        } else {\n            return false;\n        }\n    }\n\n    // _hash is any hashed msg that confirm attestor(often issuer) authorization for the note acquisition\n    function acquire(bytes32 _hash, uint8 v, bytes32 r, bytes32 s, address _attestor) CampaignOpen public returns (bool success) {\n        require(msg.sender != issuer); \n        require(_hash == keccak256(abi.encodePacked('acceptAcquisition', this, msg.sender)));\n        require(isAuthorized[_attestor][uint(Authorization.All)] || isAuthorized[_attestor][uint(Authorization.Acquisition)]);\n        require(ecrecover(prefixed(_hash), v, r, s) == _attestor);\n        return acquisition(msg.sender);\n    }\n    \n    function distributeNote(address _bearer) CampaignOpen isAttestor(Authorization.Acquisition) public returns (bool success) {\n        return acquisition(_bearer);\n    }\n    \n    mapping (address => bool) public transferRegister;\n    \n    /* low level transfer of a note between bearers  */\n    function transfer(address _from, address _to) CampaignOpen private {\n        require(_to != issuer);                /* RULE issuer and bearer need to be diffrent */\n        require(hasNote(_from));\n        acquisitionRegister[_from] = false; \n        transferRegister[_from] = true;        /* RULE transfer is not reversible */\n        acquisitionRegister[_to] = true;\n    }\n\n    mapping (address => bool) public redemptionRegister;\n\n    function hasRedeemed(address _bearer) public view returns (bool yes) {\n        /* require(_bearer != issuer); already tested with hasNote */\n        return redemptionRegister[_bearer];\n    }\n\n    event Redemption(address indexed bearer);\n\n    function redemption(address _bearer) CampaignOpen private returns (bool success) {\n        require(hasNote(_bearer));\n        require(!hasRedeemed(_bearer));\n        redeemed += 1;\n        redemptionRegister[_bearer] = true;\n\n        for (uint i = 0; i < attachments.length; i++) {\n            if (attachments[i].class == AttachmentClass.Fuel) {\n                _bearer.transfer( attachments[i].qty );\n            }\n            if (attachments[i].class == AttachmentClass.ERC20) {\n                EIP20Interface _erc20 = EIP20Interface(attachments[i].caller);\n                _erc20.transfer(_bearer, attachments[i].qty );\n            }\n            if (attachments[i].class == AttachmentClass.ERC721) {\n                EIP721Interface _erc721 = EIP721Interface(attachments[i].caller);\n                for (uint j = 0; j < attachments[i].qty; j++) {\n                    _erc721.safeTransferFrom(this, _bearer, erc721TokenIds[erc721TokenIds.length - 1]);\n                    erc721TokenIds.length--;\n                }\n            }\n        }\n\n        emit Redemption(_bearer);\n        return true;\n    }\n\n    // _hash is any hashed msg that confirm attestor(often issuer) authorization for the note redemption\n    function redeem(bytes32 _hash, uint8 v, bytes32 r, bytes32 s, address _attestor) CampaignOpen public returns (bool success) {\n        require(msg.sender != issuer); \n        require(_hash == keccak256(abi.encodePacked('acceptRedemption', this, msg.sender)));\n        require(isAuthorized[_attestor][uint(Authorization.All)] || isAuthorized[_attestor][uint(Authorization.Redemption)]);\n        require(ecrecover(prefixed(_hash), v, r, s) == _attestor);\n        return redemption(msg.sender);\n    }\n        \n    function acceptRedemption(address _bearer, bytes32 _hash, uint8 v, bytes32 r, bytes32 s)\n        CampaignOpen isAttestor(Authorization.Redemption) public returns (bool success) {\n        require(_hash == keccak256(abi.encodePacked('acceptRedemption', this, _bearer)));\n        require(ecrecover(prefixed(_hash), v, r, s) == _bearer);\n        return redemption(_bearer);\n    }\n        \n    function getWorkflow(address _bearer) public view returns (bytes) {\n        return abi.encodePacked(hasNote(_bearer), hasRedeemed(_bearer));\n    }\n\n    function kill() isAttestor(Authorization.Kill) public {\n\n        // burn the tare for unredeemed notes if campaign has started\n\n        if (campaignIssued) {\n            rge.burn(tare * (issuance - redeemed));\n        }\n\n        // approve issuer to get back all remaining erc20 or erc721\n\n        for (uint i = 0; i < attachments.length; i++) {\n            if (attachments[i].class == AttachmentClass.ERC20) {\n                EIP20Interface _erc20 = EIP20Interface(attachments[i].caller);\n                // _erc20.approve(issuer, attachments[i].qty * issuance);\n            }\n            if (attachments[i].class == AttachmentClass.ERC721) {\n                // EIP721Interface _erc721 = EIP721Interface(attachments[i].caller);\n                // _erc721.setApprovalForAll(issuer, true);\n            }\n        } \n        \n        // transfer all remaining tokens and ETH to the issuer\n        \n        uint256 rgeBalance = rge.balanceOf(this);\n        \n        if ( rge.transfer(issuer, rgeBalance) ) {\n            selfdestruct(issuer);\n        } \n\n    }\n\n}\n",
  "sourcePath": "/home/clb/notes/rouge/repositories/rge/protocol/contracts/SimpleRougeCampaign.sol",
  "compiler": {
    "name": "solc",
    "version": "0.4.24+commit.e67f0147.Emscripten.clang"
  },
  "schemaVersion": "2.0.1",
  "updatedAt": "2018-08-28T02:06:16.549Z"
}